{
  "_format": "hh-sol-artifact-1",
  "contractName": "RoyaltyLoan",
  "sourceName": "contracts/Loans/RoyaltyLoan.sol",
  "abi": [
    {
      "inputs": [],
      "stateMutability": "nonpayable",
      "type": "constructor"
    },
    {
      "inputs": [],
      "name": "InvalidInitialization",
      "type": "error"
    },
    {
      "inputs": [],
      "name": "NotInitializing",
      "type": "error"
    },
    {
      "inputs": [
        {
          "internalType": "address",
          "name": "token",
          "type": "address"
        }
      ],
      "name": "SafeERC20FailedOperation",
      "type": "error"
    },
    {
      "anonymous": false,
      "inputs": [
        {
          "indexed": false,
          "internalType": "uint64",
          "name": "version",
          "type": "uint64"
        }
      ],
      "name": "Initialized",
      "type": "event"
    },
    {
      "anonymous": false,
      "inputs": [
        {
          "indexed": false,
          "internalType": "uint256",
          "name": "repaymentAmount",
          "type": "uint256"
        }
      ],
      "name": "LoanPartialyRepaid",
      "type": "event"
    },
    {
      "anonymous": false,
      "inputs": [
        {
          "indexed": false,
          "internalType": "address",
          "name": "lender",
          "type": "address"
        }
      ],
      "name": "LoanProvided",
      "type": "event"
    },
    {
      "anonymous": false,
      "inputs": [
        {
          "indexed": false,
          "internalType": "uint256",
          "name": "repaymentAmount",
          "type": "uint256"
        }
      ],
      "name": "LoanRepaid",
      "type": "event"
    },
    {
      "anonymous": false,
      "inputs": [],
      "name": "LoanRevoked",
      "type": "event"
    },
    {
      "inputs": [],
      "name": "borrower",
      "outputs": [
        {
          "internalType": "address",
          "name": "",
          "type": "address"
        }
      ],
      "stateMutability": "view",
      "type": "function"
    },
    {
      "inputs": [
        {
          "internalType": "uint256",
          "name": "",
          "type": "uint256"
        }
      ],
      "name": "collateralAmounts",
      "outputs": [
        {
          "internalType": "uint256",
          "name": "",
          "type": "uint256"
        }
      ],
      "stateMutability": "view",
      "type": "function"
    },
    {
      "inputs": [
        {
          "internalType": "uint256",
          "name": "",
          "type": "uint256"
        }
      ],
      "name": "collateralTokenIds",
      "outputs": [
        {
          "internalType": "uint256",
          "name": "",
          "type": "uint256"
        }
      ],
      "stateMutability": "view",
      "type": "function"
    },
    {
      "inputs": [
        {
          "internalType": "uint256",
          "name": "",
          "type": "uint256"
        }
      ],
      "name": "collateralTokens",
      "outputs": [
        {
          "internalType": "contract IERC1155",
          "name": "",
          "type": "address"
        }
      ],
      "stateMutability": "view",
      "type": "function"
    },
    {
      "inputs": [
        {
          "internalType": "uint256",
          "name": "",
          "type": "uint256"
        }
      ],
      "name": "collaterals",
      "outputs": [
        {
          "internalType": "address",
          "name": "tokenAddress",
          "type": "address"
        },
        {
          "internalType": "uint256",
          "name": "tokenId",
          "type": "uint256"
        },
        {
          "internalType": "uint256",
          "name": "tokenAmount",
          "type": "uint256"
        }
      ],
      "stateMutability": "view",
      "type": "function"
    },
    {
      "inputs": [],
      "name": "expirationDate",
      "outputs": [
        {
          "internalType": "uint256",
          "name": "",
          "type": "uint256"
        }
      ],
      "stateMutability": "view",
      "type": "function"
    },
    {
      "inputs": [],
      "name": "feePpm",
      "outputs": [
        {
          "internalType": "uint256",
          "name": "",
          "type": "uint256"
        }
      ],
      "stateMutability": "view",
      "type": "function"
    },
    {
      "inputs": [],
      "name": "getRemainingTotalDue",
      "outputs": [
        {
          "internalType": "uint256",
          "name": "",
          "type": "uint256"
        }
      ],
      "stateMutability": "view",
      "type": "function"
    },
    {
      "inputs": [
        {
          "components": [
            {
              "internalType": "address",
              "name": "tokenAddress",
              "type": "address"
            },
            {
              "internalType": "uint256",
              "name": "tokenId",
              "type": "uint256"
            },
            {
              "internalType": "uint256",
              "name": "tokenAmount",
              "type": "uint256"
            }
          ],
          "internalType": "struct ICollateral.Collateral[]",
          "name": "_collaterals",
          "type": "tuple[]"
        },
        {
          "internalType": "address",
          "name": "_paymentTokenAddress",
          "type": "address"
        },
        {
          "internalType": "address",
          "name": "_borrowerAddress",
          "type": "address"
        },
        {
          "internalType": "uint256",
          "name": "_feePpm",
          "type": "uint256"
        },
        {
          "internalType": "uint256",
          "name": "_loanAmount",
          "type": "uint256"
        },
        {
          "internalType": "uint256",
          "name": "_duration",
          "type": "uint256"
        }
      ],
      "name": "initialize",
      "outputs": [],
      "stateMutability": "nonpayable",
      "type": "function"
    },
    {
      "inputs": [],
      "name": "lender",
      "outputs": [
        {
          "internalType": "address",
          "name": "",
          "type": "address"
        }
      ],
      "stateMutability": "view",
      "type": "function"
    },
    {
      "inputs": [],
      "name": "loanActive",
      "outputs": [
        {
          "internalType": "bool",
          "name": "",
          "type": "bool"
        }
      ],
      "stateMutability": "view",
      "type": "function"
    },
    {
      "inputs": [],
      "name": "loanAmount",
      "outputs": [
        {
          "internalType": "uint256",
          "name": "",
          "type": "uint256"
        }
      ],
      "stateMutability": "view",
      "type": "function"
    },
    {
      "inputs": [],
      "name": "loanOfferActive",
      "outputs": [
        {
          "internalType": "bool",
          "name": "",
          "type": "bool"
        }
      ],
      "stateMutability": "view",
      "type": "function"
    },
    {
      "inputs": [
        {
          "internalType": "address",
          "name": "",
          "type": "address"
        },
        {
          "internalType": "address",
          "name": "",
          "type": "address"
        },
        {
          "internalType": "uint256[]",
          "name": "",
          "type": "uint256[]"
        },
        {
          "internalType": "uint256[]",
          "name": "",
          "type": "uint256[]"
        },
        {
          "internalType": "bytes",
          "name": "",
          "type": "bytes"
        }
      ],
      "name": "onERC1155BatchReceived",
      "outputs": [
        {
          "internalType": "bytes4",
          "name": "",
          "type": "bytes4"
        }
      ],
      "stateMutability": "nonpayable",
      "type": "function"
    },
    {
      "inputs": [
        {
          "internalType": "address",
          "name": "",
          "type": "address"
        },
        {
          "internalType": "address",
          "name": "",
          "type": "address"
        },
        {
          "internalType": "uint256",
          "name": "",
          "type": "uint256"
        },
        {
          "internalType": "uint256",
          "name": "",
          "type": "uint256"
        },
        {
          "internalType": "bytes",
          "name": "",
          "type": "bytes"
        }
      ],
      "name": "onERC1155Received",
      "outputs": [
        {
          "internalType": "bytes4",
          "name": "",
          "type": "bytes4"
        }
      ],
      "stateMutability": "nonpayable",
      "type": "function"
    },
    {
      "inputs": [],
      "name": "paymentToken",
      "outputs": [
        {
          "internalType": "contract IERC20",
          "name": "",
          "type": "address"
        }
      ],
      "stateMutability": "view",
      "type": "function"
    },
    {
      "inputs": [],
      "name": "processRepayment",
      "outputs": [],
      "stateMutability": "nonpayable",
      "type": "function"
    },
    {
      "inputs": [],
      "name": "provideLoan",
      "outputs": [],
      "stateMutability": "nonpayable",
      "type": "function"
    },
    {
      "inputs": [],
      "name": "reclaimExcessPaymentToken",
      "outputs": [],
      "stateMutability": "nonpayable",
      "type": "function"
    },
    {
      "inputs": [],
      "name": "revokeLoan",
      "outputs": [],
      "stateMutability": "nonpayable",
      "type": "function"
    },
    {
      "inputs": [
        {
          "internalType": "bytes4",
          "name": "interfaceId",
          "type": "bytes4"
        }
      ],
      "name": "supportsInterface",
      "outputs": [
        {
          "internalType": "bool",
          "name": "",
          "type": "bool"
        }
      ],
      "stateMutability": "view",
      "type": "function"
    }
  ],
  "bytecode": "0x60806040525f600a5f6101000a81548160ff0219169083151502179055505f600a60016101000a81548160ff02191690831515021790555034801562000043575f80fd5b50620000546200005a60201b60201c565b620001e1565b5f6200006b6200015e60201b60201c565b9050805f0160089054906101000a900460ff1615620000b6576040517ff92ee8a900000000000000000000000000000000000000000000000000000000815260040160405180910390fd5b67ffffffffffffffff8016815f015f9054906101000a900467ffffffffffffffff1667ffffffffffffffff16146200015b5767ffffffffffffffff815f015f6101000a81548167ffffffffffffffff021916908367ffffffffffffffff1602179055507fc7f505b2f371ae2175ee4913f4499e1f2633a7b5936321eed1cdaeb6115181d267ffffffffffffffff604051620001529190620001c6565b60405180910390a15b50565b5f80620001706200017960201b60201c565b90508091505090565b5f7ff0c57e16840df040f15088dc2f81fe391c3923bec73e23a9662efc9c229c6a005f1b905090565b5f67ffffffffffffffff82169050919050565b620001c081620001a2565b82525050565b5f602082019050620001db5f830184620001b5565b92915050565b6139f380620001ef5f395ff3fe608060405234801561000f575f80fd5b5060043610610135575f3560e01c80638979d014116100b6578063a534150c1161007a578063a534150c1461032d578063bbfb20071461034b578063bc197c8114610355578063bcead63e14610385578063c4fe0dc8146103a3578063f23a6e61146103ad57610135565b80638979d014146102ad5780638f620487146102cb57806394598178146102e9578063947185fd146102f35780639d585f7f1461030f57610135565b80633ec345b4116100fd5780633ec345b4146101f357806348b750901461021157806361a056b61461022f57806363371fea1461025f5780637df1f1b91461028f57610135565b806301ffc9a71461013957806308ee4ef414610169578063172c48c71461017357806324c1173b146101a35780633013ce29146101d5575b5f80fd5b610153600480360381019061014e919061220d565b6103dd565b6040516101609190612252565b60405180910390f35b610171610456565b005b61018d6004803603810190610188919061229e565b610687565b60405161019a9190612343565b60405180910390f35b6101bd60048036038101906101b8919061229e565b6106c2565b6040516101cc9392919061238b565b60405180910390f35b6101dd610715565b6040516101ea91906123e0565b60405180910390f35b6101fb61073a565b60405161020891906123f9565b60405180910390f35b61021961087e565b6040516102269190612252565b60405180910390f35b6102496004803603810190610244919061229e565b610890565b60405161025691906123f9565b60405180910390f35b6102796004803603810190610274919061229e565b6108b0565b60405161028691906123f9565b60405180910390f35b6102976108d0565b6040516102a49190612412565b60405180910390f35b6102b56108f5565b6040516102c29190612252565b60405180910390f35b6102d3610908565b6040516102e091906123f9565b60405180910390f35b6102f161090e565b005b61030d600480360381019061030891906124b6565b610d5e565b005b610317611388565b60405161032491906123f9565b60405180910390f35b61033561138e565b60405161034291906123f9565b60405180910390f35b610353611394565b005b61036f600480360381019061036a9190612758565b6115c2565b60405161037c9190612832565b60405180910390f35b61038d6115d6565b60405161039a9190612412565b60405180910390f35b6103ab6115fb565b005b6103c760048036038101906103c2919061284b565b611c89565b6040516103d49190612832565b60405180910390f35b5f7f4e2312e0000000000000000000000000000000000000000000000000000000007bffffffffffffffffffffffffffffffffffffffffffffffffffffffff1916827bffffffffffffffffffffffffffffffffffffffffffffffffffffffff1916148061044f575061044e82611c9d565b5b9050919050565b5f1515600a5f9054906101000a900460ff161515146104aa576040517f08c379a00000000000000000000000000000000000000000000000000000000081526004016104a190612938565b60405180910390fd5b5f60045f9054906101000a900473ffffffffffffffffffffffffffffffffffffffff1673ffffffffffffffffffffffffffffffffffffffff166370a08231306040518263ffffffff1660e01b81526004016105059190612412565b602060405180830381865afa158015610520573d5f803e3d5ffd5b505050506040513d601f19601f82011682018060405250810190610544919061296a565b90505f8111610588576040517f08c379a000000000000000000000000000000000000000000000000000000000815260040161057f90612a05565b60405180910390fd5b60045f9054906101000a900473ffffffffffffffffffffffffffffffffffffffff1673ffffffffffffffffffffffffffffffffffffffff1663a9059cbb60055f9054906101000a900473ffffffffffffffffffffffffffffffffffffffff16836040518363ffffffff1660e01b8152600401610605929190612a23565b6020604051808303815f875af1158015610621573d5f803e3d5ffd5b505050506040513d601f19601f820116820180604052508101906106459190612a74565b610684576040517f08c379a000000000000000000000000000000000000000000000000000000000815260040161067b90612ae9565b60405180910390fd5b50565b60018181548110610696575f80fd5b905f5260205f20015f915054906101000a900473ffffffffffffffffffffffffffffffffffffffff1681565b5f81815481106106d0575f80fd5b905f5260205f2090600302015f91509050805f015f9054906101000a900473ffffffffffffffffffffffffffffffffffffffff16908060010154908060020154905083565b60045f9054906101000a900473ffffffffffffffffffffffffffffffffffffffff1681565b5f60011515600a5f9054906101000a900460ff16151514610790576040517f08c379a000000000000000000000000000000000000000000000000000000000815260040161078790612b51565b60405180910390fd5b60055f9054906101000a900473ffffffffffffffffffffffffffffffffffffffff1673ffffffffffffffffffffffffffffffffffffffff163373ffffffffffffffffffffffffffffffffffffffff161480610837575060065f9054906101000a900473ffffffffffffffffffffffffffffffffffffffff1673ffffffffffffffffffffffffffffffffffffffff163373ffffffffffffffffffffffffffffffffffffffff16145b610876576040517f08c379a000000000000000000000000000000000000000000000000000000000815260040161086d90612c05565b60405180910390fd5b600b54905090565b600a5f9054906101000a900460ff1681565b6003818154811061089f575f80fd5b905f5260205f20015f915090505481565b600281815481106108bf575f80fd5b905f5260205f20015f915090505481565b60055f9054906101000a900473ffffffffffffffffffffffffffffffffffffffff1681565b600a60019054906101000a900460ff1681565b60095481565b5f1515600a5f9054906101000a900460ff16151514610962576040517f08c379a000000000000000000000000000000000000000000000000000000000815260040161095990612c93565b60405180910390fd5b60011515600a60019054906101000a900460ff161515146109b8576040517f08c379a00000000000000000000000000000000000000000000000000000000081526004016109af90612d21565b60405180910390fd5b60055f9054906101000a900473ffffffffffffffffffffffffffffffffffffffff1673ffffffffffffffffffffffffffffffffffffffff163373ffffffffffffffffffffffffffffffffffffffff1614610a47576040517f08c379a0000000000000000000000000000000000000000000000000000000008152600401610a3e90612daf565b60405180910390fd5b5f5b5f80549050811015610b73575f8181548110610a6857610a67612dcd565b5b905f5260205f2090600302015f015f9054906101000a900473ffffffffffffffffffffffffffffffffffffffff1673ffffffffffffffffffffffffffffffffffffffff1663f242432a3060055f9054906101000a900473ffffffffffffffffffffffffffffffffffffffff165f8581548110610ae757610ae6612dcd565b5b905f5260205f209060030201600101545f8681548110610b0a57610b09612dcd565b5b905f5260205f209060030201600201546040518563ffffffff1660e01b8152600401610b399493929190612e2d565b5f604051808303815f87803b158015610b50575f80fd5b505af1158015610b62573d5f803e3d5ffd5b505050508080600101915050610a49565b505f60045f9054906101000a900473ffffffffffffffffffffffffffffffffffffffff1673ffffffffffffffffffffffffffffffffffffffff166370a08231306040518263ffffffff1660e01b8152600401610bcf9190612412565b602060405180830381865afa158015610bea573d5f803e3d5ffd5b505050506040513d601f19601f82011682018060405250810190610c0e919061296a565b90505f811115610d155760045f9054906101000a900473ffffffffffffffffffffffffffffffffffffffff1673ffffffffffffffffffffffffffffffffffffffff1663a9059cbb60055f9054906101000a900473ffffffffffffffffffffffffffffffffffffffff16836040518363ffffffff1660e01b8152600401610c95929190612a23565b6020604051808303815f875af1158015610cb1573d5f803e3d5ffd5b505050506040513d601f19601f82011682018060405250810190610cd59190612a74565b610d14576040517f08c379a0000000000000000000000000000000000000000000000000000000008152600401610d0b90612ef3565b60405180910390fd5b5b5f600a60016101000a81548160ff0219169083151502179055507fcf90e01e154aa36eac1c51eff8a71fd95d40e9cab591b29c5db844d6d3f83af260405160405180910390a150565b5f610d67611d06565b90505f815f0160089054906101000a900460ff161590505f825f015f9054906101000a900467ffffffffffffffff1690505f808267ffffffffffffffff16148015610daf5750825b90505f60018367ffffffffffffffff16148015610de257505f3073ffffffffffffffffffffffffffffffffffffffff163b145b905081158015610df0575080155b15610e27576040517ff92ee8a900000000000000000000000000000000000000000000000000000000815260040160405180910390fd5b6001855f015f6101000a81548167ffffffffffffffff021916908367ffffffffffffffff1602179055508315610e74576001855f0160086101000a81548160ff0219169083151502179055505b5f5b8c8c90508110156110fb57368d8d83818110610e9557610e94612dcd565b5b90506060020190505f73ffffffffffffffffffffffffffffffffffffffff16815f016020810190610ec69190612f11565b73ffffffffffffffffffffffffffffffffffffffff161415610ee783611d19565b604051602001610ef79190613018565b60405160208183030381529060405290610f47576040517f08c379a0000000000000000000000000000000000000000000000000000000008152600401610f3e9190613071565b60405180910390fd5b505f816040013511610f5883611d19565b604051602001610f689190613127565b60405160208183030381529060405290610fb8576040517f08c379a0000000000000000000000000000000000000000000000000000000008152600401610faf9190613071565b60405180910390fd5b508060400135815f016020810190610fd09190612f11565b73ffffffffffffffffffffffffffffffffffffffff1662fdd58e3084602001356040518363ffffffff1660e01b815260040161100d929190612a23565b602060405180830381865afa158015611028573d5f803e3d5ffd5b505050506040513d601f19601f8201168201806040525081019061104c919061296a565b1461105683611d19565b60405160200161106691906131de565b604051602081830303815290604052906110b6576040517f08c379a00000000000000000000000000000000000000000000000000000000081526004016110ad9190613071565b60405180910390fd5b505f81908060018154018082558091505060019003905f5260205f2090600302015f9091909190915081816110eb9190613399565b5050508080600101915050610e76565b505f871161113e576040517f08c379a000000000000000000000000000000000000000000000000000000000815260040161113590613417565b60405180910390fd5b620f4240881115611184576040517f08c379a000000000000000000000000000000000000000000000000000000000815260040161117b9061347f565b60405180910390fd5b5f73ffffffffffffffffffffffffffffffffffffffff168a73ffffffffffffffffffffffffffffffffffffffff16036111f2576040517f08c379a00000000000000000000000000000000000000000000000000000000081526004016111e99061350d565b60405180910390fd5b5f8611611234576040517f08c379a000000000000000000000000000000000000000000000000000000000815260040161122b9061359b565b60405180910390fd5b8960045f6101000a81548173ffffffffffffffffffffffffffffffffffffffff021916908373ffffffffffffffffffffffffffffffffffffffff1602179055508860055f6101000a81548173ffffffffffffffffffffffffffffffffffffffff021916908373ffffffffffffffffffffffffffffffffffffffff1602179055508760078190555086600881905550620f42406007546008546112d691906135e6565b6112e09190613654565b6008546112ed9190613684565b600b8190555085426112ff9190613684565b6009819055506001600a60016101000a81548160ff021916908315150217905550831561137a575f855f0160086101000a81548160ff0219169083151502179055507fc7f505b2f371ae2175ee4913f4499e1f2633a7b5936321eed1cdaeb6115181d260016040516113719190613703565b60405180910390a15b505050505050505050505050565b60085481565b60075481565b5f1515600a5f9054906101000a900460ff161515146113e8576040517f08c379a00000000000000000000000000000000000000000000000000000000081526004016113df90612c93565b60405180910390fd5b60011515600a60019054906101000a900460ff1615151461143e576040517f08c379a000000000000000000000000000000000000000000000000000000000815260040161143590612d21565b60405180910390fd5b600954421115611483576040517f08c379a000000000000000000000000000000000000000000000000000000000815260040161147a90613766565b60405180910390fd5b3360065f6101000a81548173ffffffffffffffffffffffffffffffffffffffff021916908373ffffffffffffffffffffffffffffffffffffffff1602179055506115343360055f9054906101000a900473ffffffffffffffffffffffffffffffffffffffff1660085460045f9054906101000a900473ffffffffffffffffffffffffffffffffffffffff1673ffffffffffffffffffffffffffffffffffffffff16611de3909392919063ffffffff16565b6001600a5f6101000a81548160ff0219169083151502179055505f600a60016101000a81548160ff0219169083151502179055507f3e8d8115472dbb577aaf87fcb3f9da55b701cc89ad36efc03587625af0e3e85460065f9054906101000a900473ffffffffffffffffffffffffffffffffffffffff166040516115b89190612412565b60405180910390a1565b5f63bc197c8160e01b905095945050505050565b60065f9054906101000a900473ffffffffffffffffffffffffffffffffffffffff1681565b60011515600a5f9054906101000a900460ff16151514611650576040517f08c379a000000000000000000000000000000000000000000000000000000000815260040161164790612b51565b60405180910390fd5b5f5b5f805490508110156116b4576116a75f828154811061167457611673612dcd565b5b905f5260205f2090600302015f015f9054906101000a900473ffffffffffffffffffffffffffffffffffffffff16611e65565b8080600101915050611652565b505f60045f9054906101000a900473ffffffffffffffffffffffffffffffffffffffff1673ffffffffffffffffffffffffffffffffffffffff166370a08231306040518263ffffffff1660e01b81526004016117109190612412565b602060405180830381865afa15801561172b573d5f803e3d5ffd5b505050506040513d601f19601f8201168201806040525081019061174f919061296a565b90505f8111611793576040517f08c379a000000000000000000000000000000000000000000000000000000000815260040161178a90612a05565b60405180910390fd5b600b548110611b3e575f5b5f805490508110156118c8575f81815481106117bd576117bc612dcd565b5b905f5260205f2090600302015f015f9054906101000a900473ffffffffffffffffffffffffffffffffffffffff1673ffffffffffffffffffffffffffffffffffffffff1663f242432a3060055f9054906101000a900473ffffffffffffffffffffffffffffffffffffffff165f858154811061183c5761183b612dcd565b5b905f5260205f209060030201600101545f868154811061185f5761185e612dcd565b5b905f5260205f209060030201600201546040518563ffffffff1660e01b815260040161188e9493929190612e2d565b5f604051808303815f87803b1580156118a5575f80fd5b505af11580156118b7573d5f803e3d5ffd5b50505050808060010191505061179e565b5060045f9054906101000a900473ffffffffffffffffffffffffffffffffffffffff1673ffffffffffffffffffffffffffffffffffffffff1663a9059cbb60065f9054906101000a900473ffffffffffffffffffffffffffffffffffffffff16600b546040518363ffffffff1660e01b8152600401611948929190612a23565b6020604051808303815f875af1158015611964573d5f803e3d5ffd5b505050506040513d601f19601f820116820180604052508101906119889190612a74565b6119c7576040517f08c379a00000000000000000000000000000000000000000000000000000000081526004016119be906137f4565b60405180910390fd5b600b54811115611ae0575f600b54826119e09190613812565b905060045f9054906101000a900473ffffffffffffffffffffffffffffffffffffffff1673ffffffffffffffffffffffffffffffffffffffff1663a9059cbb60055f9054906101000a900473ffffffffffffffffffffffffffffffffffffffff16836040518363ffffffff1660e01b8152600401611a5f929190612a23565b6020604051808303815f875af1158015611a7b573d5f803e3d5ffd5b505050506040513d601f19601f82011682018060405250810190611a9f9190612a74565b611ade576040517f08c379a0000000000000000000000000000000000000000000000000000000008152600401611ad5906138b5565b60405180910390fd5b505b7f9a7851747cd7ffb3fe0a32caf3da48b31f27cebe131267051640f8b72fc47186600b54604051611b1191906123f9565b60405180910390a15f600b819055505f600a5f6101000a81548160ff021916908315150217905550611c86565b80600b54611b4c9190613812565b600b8190555060045f9054906101000a900473ffffffffffffffffffffffffffffffffffffffff1673ffffffffffffffffffffffffffffffffffffffff1663a9059cbb60065f9054906101000a900473ffffffffffffffffffffffffffffffffffffffff16836040518363ffffffff1660e01b8152600401611bcf929190612a23565b6020604051808303815f875af1158015611beb573d5f803e3d5ffd5b505050506040513d601f19601f82011682018060405250810190611c0f9190612a74565b611c4e576040517f08c379a0000000000000000000000000000000000000000000000000000000008152600401611c4590613943565b60405180910390fd5b7f488e627f46a2be23a969b9c0c9031a69d21d66c7cf5b6df1d71b7257f9bdee6881604051611c7d91906123f9565b60405180910390a15b50565b5f63f23a6e6160e01b905095945050505050565b5f7f01ffc9a7000000000000000000000000000000000000000000000000000000007bffffffffffffffffffffffffffffffffffffffffffffffffffffffff1916827bffffffffffffffffffffffffffffffffffffffffffffffffffffffff1916149050919050565b5f80611d10611f92565b90508091505090565b60605f6001611d2784611fbb565b0190505f8167ffffffffffffffff811115611d4557611d44612570565b5b6040519080825280601f01601f191660200182016040528015611d775781602001600182028036833780820191505090505b5090505f82602001820190505b600115611dd8578080600190039150507f3031323334353637383961626364656600000000000000000000000000000000600a86061a8153600a8581611dcd57611dcc613627565b5b0494505f8503611d84575b819350505050919050565b611e5f848573ffffffffffffffffffffffffffffffffffffffff166323b872dd868686604051602401611e1893929190613961565b604051602081830303815290604052915060e01b6020820180517bffffffffffffffffffffffffffffffffffffffffffffffffffffffff838183161783525050505061210c565b50505050565b5f60045f9054906101000a900473ffffffffffffffffffffffffffffffffffffffff1673ffffffffffffffffffffffffffffffffffffffff166370a08231836040518263ffffffff1660e01b8152600401611ec09190612412565b602060405180830381865afa158015611edb573d5f803e3d5ffd5b505050506040513d601f19601f82011682018060405250810190611eff919061296a565b1115611f8f578073ffffffffffffffffffffffffffffffffffffffff16635f8ba9613060045f9054906101000a900473ffffffffffffffffffffffffffffffffffffffff166040518363ffffffff1660e01b8152600401611f61929190613996565b5f604051808303815f87803b158015611f78575f80fd5b505af1158015611f8a573d5f803e3d5ffd5b505050505b50565b5f7ff0c57e16840df040f15088dc2f81fe391c3923bec73e23a9662efc9c229c6a005f1b905090565b5f805f90507a184f03e93ff9f4daa797ed6e38ed64bf6a1f0100000000000000008310612017577a184f03e93ff9f4daa797ed6e38ed64bf6a1f010000000000000000838161200d5761200c613627565b5b0492506040810190505b6d04ee2d6d415b85acef81000000008310612054576d04ee2d6d415b85acef8100000000838161204a57612049613627565b5b0492506020810190505b662386f26fc10000831061208357662386f26fc10000838161207957612078613627565b5b0492506010810190505b6305f5e10083106120ac576305f5e10083816120a2576120a1613627565b5b0492506008810190505b61271083106120d15761271083816120c7576120c6613627565b5b0492506004810190505b606483106120f457606483816120ea576120e9613627565b5b0492506002810190505b600a8310612103576001810190505b80915050919050565b5f8060205f8451602086015f885af18061212b576040513d5f823e3d81fd5b3d92505f519150505f821461214457600181141561215f565b5f8473ffffffffffffffffffffffffffffffffffffffff163b145b156121a157836040517f5274afe70000000000000000000000000000000000000000000000000000000081526004016121989190612412565b60405180910390fd5b50505050565b5f604051905090565b5f80fd5b5f80fd5b5f7fffffffff0000000000000000000000000000000000000000000000000000000082169050919050565b6121ec816121b8565b81146121f6575f80fd5b50565b5f81359050612207816121e3565b92915050565b5f60208284031215612222576122216121b0565b5b5f61222f848285016121f9565b91505092915050565b5f8115159050919050565b61224c81612238565b82525050565b5f6020820190506122655f830184612243565b92915050565b5f819050919050565b61227d8161226b565b8114612287575f80fd5b50565b5f8135905061229881612274565b92915050565b5f602082840312156122b3576122b26121b0565b5b5f6122c08482850161228a565b91505092915050565b5f73ffffffffffffffffffffffffffffffffffffffff82169050919050565b5f819050919050565b5f61230b612306612301846122c9565b6122e8565b6122c9565b9050919050565b5f61231c826122f1565b9050919050565b5f61232d82612312565b9050919050565b61233d81612323565b82525050565b5f6020820190506123565f830184612334565b92915050565b5f612366826122c9565b9050919050565b6123768161235c565b82525050565b6123858161226b565b82525050565b5f60608201905061239e5f83018661236d565b6123ab602083018561237c565b6123b8604083018461237c565b949350505050565b5f6123ca82612312565b9050919050565b6123da816123c0565b82525050565b5f6020820190506123f35f8301846123d1565b92915050565b5f60208201905061240c5f83018461237c565b92915050565b5f6020820190506124255f83018461236d565b92915050565b5f80fd5b5f80fd5b5f80fd5b5f8083601f84011261244c5761244b61242b565b5b8235905067ffffffffffffffff8111156124695761246861242f565b5b60208301915083606082028301111561248557612484612433565b5b9250929050565b6124958161235c565b811461249f575f80fd5b50565b5f813590506124b08161248c565b92915050565b5f805f805f805f60c0888a0312156124d1576124d06121b0565b5b5f88013567ffffffffffffffff8111156124ee576124ed6121b4565b5b6124fa8a828b01612437565b9750975050602061250d8a828b016124a2565b955050604061251e8a828b016124a2565b945050606061252f8a828b0161228a565b93505060806125408a828b0161228a565b92505060a06125518a828b0161228a565b91505092959891949750929550565b5f601f19601f8301169050919050565b7f4e487b71000000000000000000000000000000000000000000000000000000005f52604160045260245ffd5b6125a682612560565b810181811067ffffffffffffffff821117156125c5576125c4612570565b5b80604052505050565b5f6125d76121a7565b90506125e3828261259d565b919050565b5f67ffffffffffffffff82111561260257612601612570565b5b602082029050602081019050919050565b5f612625612620846125e8565b6125ce565b9050808382526020820190506020840283018581111561264857612647612433565b5b835b81811015612671578061265d888261228a565b84526020840193505060208101905061264a565b5050509392505050565b5f82601f83011261268f5761268e61242b565b5b813561269f848260208601612613565b91505092915050565b5f80fd5b5f67ffffffffffffffff8211156126c6576126c5612570565b5b6126cf82612560565b9050602081019050919050565b828183375f83830152505050565b5f6126fc6126f7846126ac565b6125ce565b905082815260208101848484011115612718576127176126a8565b5b6127238482856126dc565b509392505050565b5f82601f83011261273f5761273e61242b565b5b813561274f8482602086016126ea565b91505092915050565b5f805f805f60a08688031215612771576127706121b0565b5b5f61277e888289016124a2565b955050602061278f888289016124a2565b945050604086013567ffffffffffffffff8111156127b0576127af6121b4565b5b6127bc8882890161267b565b935050606086013567ffffffffffffffff8111156127dd576127dc6121b4565b5b6127e98882890161267b565b925050608086013567ffffffffffffffff81111561280a576128096121b4565b5b6128168882890161272b565b9150509295509295909350565b61282c816121b8565b82525050565b5f6020820190506128455f830184612823565b92915050565b5f805f805f60a08688031215612864576128636121b0565b5b5f612871888289016124a2565b9550506020612882888289016124a2565b94505060406128938882890161228a565b93505060606128a48882890161228a565b925050608086013567ffffffffffffffff8111156128c5576128c46121b4565b5b6128d18882890161272b565b9150509295509295909350565b5f82825260208201905092915050565b7f526f79616c74794c6f616e3a204c6f616e2069732061637469766500000000005f82015250565b5f612922601b836128de565b915061292d826128ee565b602082019050919050565b5f6020820190508181035f83015261294f81612916565b9050919050565b5f8151905061296481612274565b92915050565b5f6020828403121561297f5761297e6121b0565b5b5f61298c84828501612956565b91505092915050565b7f526f79616c74794c6f616e3a204e6f207061796d656e7420746f6b656e20746f5f8201527f2070726f63657373000000000000000000000000000000000000000000000000602082015250565b5f6129ef6028836128de565b91506129fa82612995565b604082019050919050565b5f6020820190508181035f830152612a1c816129e3565b9050919050565b5f604082019050612a365f83018561236d565b612a43602083018461237c565b9392505050565b612a5381612238565b8114612a5d575f80fd5b50565b5f81519050612a6e81612a4a565b92915050565b5f60208284031215612a8957612a886121b0565b5b5f612a9684828501612a60565b91505092915050565b7f526f79616c74794c6f616e3a205265636c61696d206661696c656400000000005f82015250565b5f612ad3601b836128de565b9150612ade82612a9f565b602082019050919050565b5f6020820190508181035f830152612b0081612ac7565b9050919050565b7f526f79616c74794c6f616e3a204c6f616e20697320696e6163746976650000005f82015250565b5f612b3b601d836128de565b9150612b4682612b07565b602082019050919050565b5f6020820190508181035f830152612b6881612b2f565b9050919050565b7f526f79616c74794c6f616e3a204f6e6c7920626f72726f77657220616e64206c5f8201527f656e6465722063616e207365652072656d61696e696e6720746f74616c20647560208201527f6500000000000000000000000000000000000000000000000000000000000000604082015250565b5f612bef6041836128de565b9150612bfa82612b6f565b606082019050919050565b5f6020820190508181035f830152612c1c81612be3565b9050919050565b7f526f79616c74794c6f616e3a204c6f616e20697320616c7265616479206163745f8201527f6976650000000000000000000000000000000000000000000000000000000000602082015250565b5f612c7d6023836128de565b9150612c8882612c23565b604082019050919050565b5f6020820190508181035f830152612caa81612c71565b9050919050565b7f526f79616c74794c6f616e3a204c6f616e206f66666572206973207265766f6b5f8201527f6564000000000000000000000000000000000000000000000000000000000000602082015250565b5f612d0b6022836128de565b9150612d1682612cb1565b604082019050919050565b5f6020820190508181035f830152612d3881612cff565b9050919050565b7f526f79616c74794c6f616e3a204f6e6c7920626f72726f7765722063616e20725f8201527f65766f6b6520746865206c6f616e000000000000000000000000000000000000602082015250565b5f612d99602e836128de565b9150612da482612d3f565b604082019050919050565b5f6020820190508181035f830152612dc681612d8d565b9050919050565b7f4e487b71000000000000000000000000000000000000000000000000000000005f52603260045260245ffd5b5f82825260208201905092915050565b50565b5f612e185f83612dfa565b9150612e2382612e0a565b5f82019050919050565b5f60a082019050612e405f83018761236d565b612e4d602083018661236d565b612e5a604083018561237c565b612e67606083018461237c565b8181036080830152612e7881612e0d565b905095945050505050565b7f526f79616c74794c6f616e3a2055534443207472616e73666572206661696c655f8201527f6400000000000000000000000000000000000000000000000000000000000000602082015250565b5f612edd6021836128de565b9150612ee882612e83565b604082019050919050565b5f6020820190508181035f830152612f0a81612ed1565b9050919050565b5f60208284031215612f2657612f256121b0565b5b5f612f33848285016124a2565b91505092915050565b5f81905092915050565b7f526f79616c74794c6f616e3a20496e76616c696420636f6c6c61746572616c205f8201527f746f6b656e206164647265737320617420706f736974696f6e20000000000000602082015250565b5f612fa0603a83612f3c565b9150612fab82612f46565b603a82019050919050565b5f81519050919050565b5f5b83811015612fdd578082015181840152602081019050612fc2565b5f8484015250505050565b5f612ff282612fb6565b612ffc8185612f3c565b935061300c818560208601612fc0565b80840191505092915050565b5f61302282612f94565b915061302e8284612fe8565b915081905092915050565b5f61304382612fb6565b61304d81856128de565b935061305d818560208601612fc0565b61306681612560565b840191505092915050565b5f6020820190508181035f8301526130898184613039565b905092915050565b7f526f79616c74794c6f616e3a20436f6c6c61746572616c20616d6f756e74206d5f8201527f7573742062652067726561746572207468616e203020617420706f736974696f60208201527f6e20000000000000000000000000000000000000000000000000000000000000604082015250565b5f613111604283612f3c565b915061311c82613091565b604282019050919050565b5f61313182613105565b915061313d8284612fe8565b915081905092915050565b7f526f79616c74794c6f616e3a20436f6c6c61746572616c20776173206e6f74205f8201527f7472616e7366657272656420696e2074686520726571756972656420616d6f7560208201527f6e7420617420706f736974696f6e200000000000000000000000000000000000604082015250565b5f6131c8604f83612f3c565b91506131d382613148565b604f82019050919050565b5f6131e8826131bc565b91506131f48284612fe8565b915081905092915050565b5f813561320b8161248c565b80915050919050565b5f815f1b9050919050565b5f73ffffffffffffffffffffffffffffffffffffffff61323e84613214565b9350801983169250808416831791505092915050565b5f61325e82612312565b9050919050565b5f819050919050565b61327782613254565b61328a61328382613265565b835461321f565b8255505050565b5f813561329d81612274565b80915050919050565b5f7fffffffffffffffffffffffffffffffffffffffffffffffffffffffffffffffff6132d184613214565b9350801983169250808416831791505092915050565b5f6133016132fc6132f78461226b565b6122e8565b61226b565b9050919050565b5f819050919050565b61331a826132e7565b61332d61332682613308565b83546132a6565b8255505050565b5f81015f830180613344816131ff565b9050613350818461326e565b50505060018101602083018061336581613291565b90506133718184613311565b50505060028101604083018061338681613291565b90506133928184613311565b5050505050565b6133a38282613334565b5050565b7f526f79616c74794c6f616e3a204c6f616e20616d6f756e74206d7573742062655f8201527f2067726561746572207468616e20300000000000000000000000000000000000602082015250565b5f613401602f836128de565b915061340c826133a7565b604082019050919050565b5f6020820190508181035f83015261342e816133f5565b9050919050565b7f526f79616c74794c6f616e3a2046656550706d206578636565647320313030255f82015250565b5f6134696020836128de565b915061347482613435565b602082019050919050565b5f6020820190508181035f8301526134968161345d565b9050919050565b7f526f79616c74794c6f616e3a20496e76616c6964207061796d656e7420746f6b5f8201527f656e206164647265737300000000000000000000000000000000000000000000602082015250565b5f6134f7602a836128de565b91506135028261349d565b604082019050919050565b5f6020820190508181035f830152613524816134eb565b9050919050565b7f526f79616c74794c6f616e3a204475726174696f6e206d7573742062652067725f8201527f6561746572207468616e20300000000000000000000000000000000000000000602082015250565b5f613585602c836128de565b91506135908261352b565b604082019050919050565b5f6020820190508181035f8301526135b281613579565b9050919050565b7f4e487b71000000000000000000000000000000000000000000000000000000005f52601160045260245ffd5b5f6135f08261226b565b91506135fb8361226b565b92508282026136098161226b565b915082820484148315176136205761361f6135b9565b5b5092915050565b7f4e487b71000000000000000000000000000000000000000000000000000000005f52601260045260245ffd5b5f61365e8261226b565b91506136698361226b565b92508261367957613678613627565b5b828204905092915050565b5f61368e8261226b565b91506136998361226b565b92508282019050808211156136b1576136b06135b9565b5b92915050565b5f819050919050565b5f67ffffffffffffffff82169050919050565b5f6136ed6136e86136e3846136b7565b6122e8565b6136c0565b9050919050565b6136fd816136d3565b82525050565b5f6020820190506137165f8301846136f4565b92915050565b7f526f79616c74794c6f616e3a204c6f616e206f666665722065787069726564005f82015250565b5f613750601f836128de565b915061375b8261371c565b602082019050919050565b5f6020820190508181035f83015261377d81613744565b9050919050565b7f526f79616c74794c6f616e3a204475652055534443207472616e7366657220665f8201527f61696c6564000000000000000000000000000000000000000000000000000000602082015250565b5f6137de6025836128de565b91506137e982613784565b604082019050919050565b5f6020820190508181035f83015261380b816137d2565b9050919050565b5f61381c8261226b565b91506138278361226b565b925082820390508181111561383f5761383e6135b9565b5b92915050565b7f526f79616c74794c6f616e3a204578636573732055534443207472616e7366655f8201527f72206661696c6564000000000000000000000000000000000000000000000000602082015250565b5f61389f6028836128de565b91506138aa82613845565b604082019050919050565b5f6020820190508181035f8301526138cc81613893565b9050919050565b7f526f79616c74794c6f616e3a205061727469616c2055534443207472616e73665f8201527f6572206661696c65640000000000000000000000000000000000000000000000602082015250565b5f61392d6029836128de565b9150613938826138d3565b604082019050919050565b5f6020820190508181035f83015261395a81613921565b9050919050565b5f6060820190506139745f83018661236d565b613981602083018561236d565b61398e604083018461237c565b949350505050565b5f6040820190506139a95f83018561236d565b6139b6602083018461236d565b939250505056fea2646970667358221220e1c9e9c313a5050eea79518fc5e1c6233e248da9211ab7924058697a84f912ab64736f6c63430008180033",
  "linkReferences": {},
  "deployedLinkReferences": {}
}