{
  "_format": "hh-sol-artifact-1",
  "contractName": "RoyaltyLoanFactory",
  "sourceName": "contracts/Loans/RoyaltyLoanFactory.sol",
  "abi": [
    {
      "inputs": [],
      "stateMutability": "nonpayable",
      "type": "constructor"
    },
    {
      "inputs": [
        {
          "internalType": "address",
          "name": "target",
          "type": "address"
        }
      ],
      "name": "AddressEmptyCode",
      "type": "error"
    },
    {
      "inputs": [
        {
          "internalType": "address",
          "name": "implementation",
          "type": "address"
        }
      ],
      "name": "ERC1967InvalidImplementation",
      "type": "error"
    },
    {
      "inputs": [],
      "name": "ERC1967NonPayable",
      "type": "error"
    },
    {
      "inputs": [],
      "name": "FailedCall",
      "type": "error"
    },
    {
      "inputs": [],
      "name": "FailedDeployment",
      "type": "error"
    },
    {
      "inputs": [
        {
          "internalType": "uint256",
          "name": "balance",
          "type": "uint256"
        },
        {
          "internalType": "uint256",
          "name": "needed",
          "type": "uint256"
        }
      ],
      "name": "InsufficientBalance",
      "type": "error"
    },
    {
      "inputs": [],
      "name": "InvalidInitialization",
      "type": "error"
    },
    {
      "inputs": [],
      "name": "NotInitializing",
      "type": "error"
    },
    {
      "inputs": [
        {
          "internalType": "address",
          "name": "owner",
          "type": "address"
        }
      ],
      "name": "OwnableInvalidOwner",
      "type": "error"
    },
    {
      "inputs": [
        {
          "internalType": "address",
          "name": "account",
          "type": "address"
        }
      ],
      "name": "OwnableUnauthorizedAccount",
      "type": "error"
    },
    {
      "inputs": [],
      "name": "UUPSUnauthorizedCallContext",
      "type": "error"
    },
    {
      "inputs": [
        {
          "internalType": "bytes32",
          "name": "slot",
          "type": "bytes32"
        }
      ],
      "name": "UUPSUnsupportedProxiableUUID",
      "type": "error"
    },
    {
      "anonymous": false,
      "inputs": [
        {
          "indexed": false,
          "internalType": "uint64",
          "name": "version",
          "type": "uint64"
        }
      ],
      "name": "Initialized",
      "type": "event"
    },
    {
      "anonymous": false,
      "inputs": [
        {
          "indexed": false,
          "internalType": "address",
          "name": "loanContract",
          "type": "address"
        },
        {
          "indexed": false,
          "internalType": "address",
          "name": "borrower",
          "type": "address"
        },
        {
          "components": [
            {
              "internalType": "address",
              "name": "tokenAddress",
              "type": "address"
            },
            {
              "internalType": "uint256",
              "name": "tokenId",
              "type": "uint256"
            },
            {
              "internalType": "uint256",
              "name": "tokenAmount",
              "type": "uint256"
            }
          ],
          "indexed": false,
          "internalType": "struct ICollateral.Collateral[]",
          "name": "collaterals",
          "type": "tuple[]"
        },
        {
          "indexed": false,
          "internalType": "uint256",
          "name": "loanAmount",
          "type": "uint256"
        },
        {
          "indexed": false,
          "internalType": "uint256",
          "name": "feePpm",
          "type": "uint256"
        },
        {
          "indexed": false,
          "internalType": "uint256",
          "name": "offerDuration",
          "type": "uint256"
        },
        {
          "indexed": false,
          "internalType": "address",
          "name": "paymentTokenAddress",
          "type": "address"
        },
        {
          "indexed": false,
          "internalType": "address",
          "name": "templateAddress",
          "type": "address"
        }
      ],
      "name": "LoanContractCreated",
      "type": "event"
    },
    {
      "anonymous": false,
      "inputs": [
        {
          "indexed": false,
          "internalType": "address",
          "name": "loanContract",
          "type": "address"
        },
        {
          "indexed": false,
          "internalType": "address",
          "name": "borrower",
          "type": "address"
        },
        {
          "components": [
            {
              "internalType": "address",
              "name": "tokenAddress",
              "type": "address"
            },
            {
              "internalType": "uint256",
              "name": "tokenId",
              "type": "uint256"
            },
            {
              "internalType": "uint256",
              "name": "tokenAmount",
              "type": "uint256"
            }
          ],
          "indexed": false,
          "internalType": "struct ICollateral.Collateral[]",
          "name": "collaterals",
          "type": "tuple[]"
        },
        {
          "indexed": false,
          "internalType": "uint256",
          "name": "loanAmount",
          "type": "uint256"
        },
        {
          "indexed": false,
          "internalType": "uint256",
          "name": "feePpm",
          "type": "uint256"
        }
      ],
      "name": "LoanContractCreated",
      "type": "event"
    },
    {
      "anonymous": false,
      "inputs": [
        {
          "indexed": false,
          "internalType": "uint256",
          "name": "previousOfferDuration",
          "type": "uint256"
        },
        {
          "indexed": false,
          "internalType": "uint256",
          "name": "newOfferDuration",
          "type": "uint256"
        }
      ],
      "name": "OfferDurationChanged",
      "type": "event"
    },
    {
      "anonymous": false,
      "inputs": [
        {
          "indexed": true,
          "internalType": "address",
          "name": "previousOwner",
          "type": "address"
        },
        {
          "indexed": true,
          "internalType": "address",
          "name": "newOwner",
          "type": "address"
        }
      ],
      "name": "OwnershipTransferred",
      "type": "event"
    },
    {
      "anonymous": false,
      "inputs": [
        {
          "indexed": false,
          "internalType": "address",
          "name": "previousPaymentToken",
          "type": "address"
        },
        {
          "indexed": false,
          "internalType": "address",
          "name": "newPaymentToken",
          "type": "address"
        }
      ],
      "name": "PaymentTokenChanged",
      "type": "event"
    },
    {
      "anonymous": false,
      "inputs": [
        {
          "indexed": false,
          "internalType": "address",
          "name": "previousAddress",
          "type": "address"
        },
        {
          "indexed": false,
          "internalType": "address",
          "name": "newAddress",
          "type": "address"
        }
      ],
      "name": "TemplateChanged",
      "type": "event"
    },
    {
      "anonymous": false,
      "inputs": [
        {
          "indexed": true,
          "internalType": "address",
          "name": "implementation",
          "type": "address"
        }
      ],
      "name": "Upgraded",
      "type": "event"
    },
    {
      "anonymous": false,
      "inputs": [
        {
          "indexed": false,
          "internalType": "bytes1",
          "name": "_whitelistId",
          "type": "bytes1"
        },
        {
          "indexed": false,
          "internalType": "address",
          "name": "_previousAddress",
          "type": "address"
        },
        {
          "indexed": false,
          "internalType": "address",
          "name": "_newAddress",
          "type": "address"
        }
      ],
      "name": "WhitelistChanged",
      "type": "event"
    },
    {
      "inputs": [],
      "name": "OPERATIONAL_WHITELIST",
      "outputs": [
        {
          "internalType": "bytes1",
          "name": "",
          "type": "bytes1"
        }
      ],
      "stateMutability": "view",
      "type": "function"
    },
    {
      "inputs": [],
      "name": "UPGRADE_INTERFACE_VERSION",
      "outputs": [
        {
          "internalType": "string",
          "name": "",
          "type": "string"
        }
      ],
      "stateMutability": "view",
      "type": "function"
    },
    {
      "inputs": [
        {
          "components": [
            {
              "internalType": "address",
              "name": "tokenAddress",
              "type": "address"
            },
            {
              "internalType": "uint256",
              "name": "tokenId",
              "type": "uint256"
            },
            {
              "internalType": "uint256",
              "name": "tokenAmount",
              "type": "uint256"
            }
          ],
          "internalType": "struct ICollateral.Collateral[]",
          "name": "collaterals",
          "type": "tuple[]"
        },
        {
          "internalType": "uint256",
          "name": "loanAmount",
          "type": "uint256"
        },
        {
          "internalType": "uint256",
          "name": "feePpm",
          "type": "uint256"
        }
      ],
      "name": "createLoanContract",
      "outputs": [
        {
          "internalType": "address",
          "name": "",
          "type": "address"
        }
      ],
      "stateMutability": "nonpayable",
      "type": "function"
    },
    {
      "inputs": [
        {
          "internalType": "address",
          "name": "_templateAddress",
          "type": "address"
        },
        {
          "internalType": "address",
          "name": "_operationalWhitelistAddress",
          "type": "address"
        },
        {
          "internalType": "address",
          "name": "_paymentTokenAddress",
          "type": "address"
        },
        {
          "internalType": "uint256",
          "name": "_offerDuration",
          "type": "uint256"
        }
      ],
      "name": "initialize",
      "outputs": [],
      "stateMutability": "nonpayable",
      "type": "function"
    },
    {
      "inputs": [],
      "name": "offerDuration",
      "outputs": [
        {
          "internalType": "uint256",
          "name": "",
          "type": "uint256"
        }
      ],
      "stateMutability": "view",
      "type": "function"
    },
    {
      "inputs": [],
      "name": "owner",
      "outputs": [
        {
          "internalType": "address",
          "name": "",
          "type": "address"
        }
      ],
      "stateMutability": "view",
      "type": "function"
    },
    {
      "inputs": [],
      "name": "paymentTokenAddress",
      "outputs": [
        {
          "internalType": "address",
          "name": "",
          "type": "address"
        }
      ],
      "stateMutability": "view",
      "type": "function"
    },
    {
      "inputs": [],
      "name": "proxiableUUID",
      "outputs": [
        {
          "internalType": "bytes32",
          "name": "",
          "type": "bytes32"
        }
      ],
      "stateMutability": "view",
      "type": "function"
    },
    {
      "inputs": [],
      "name": "renounceOwnership",
      "outputs": [],
      "stateMutability": "nonpayable",
      "type": "function"
    },
    {
      "inputs": [
        {
          "internalType": "uint256",
          "name": "_duration",
          "type": "uint256"
        }
      ],
      "name": "setOfferDuration",
      "outputs": [],
      "stateMutability": "nonpayable",
      "type": "function"
    },
    {
      "inputs": [
        {
          "internalType": "address",
          "name": "_paymentTokenAddress",
          "type": "address"
        }
      ],
      "name": "setPaymentTokenAddress",
      "outputs": [],
      "stateMutability": "nonpayable",
      "type": "function"
    },
    {
      "inputs": [
        {
          "internalType": "address",
          "name": "_templateAddress",
          "type": "address"
        }
      ],
      "name": "setTemplateAddress",
      "outputs": [],
      "stateMutability": "nonpayable",
      "type": "function"
    },
    {
      "inputs": [
        {
          "internalType": "address",
          "name": "_whitelistAddress",
          "type": "address"
        }
      ],
      "name": "setWhitelistAddress",
      "outputs": [],
      "stateMutability": "nonpayable",
      "type": "function"
    },
    {
      "inputs": [],
      "name": "templateAddress",
      "outputs": [
        {
          "internalType": "address",
          "name": "",
          "type": "address"
        }
      ],
      "stateMutability": "view",
      "type": "function"
    },
    {
      "inputs": [
        {
          "internalType": "address",
          "name": "newOwner",
          "type": "address"
        }
      ],
      "name": "transferOwnership",
      "outputs": [],
      "stateMutability": "nonpayable",
      "type": "function"
    },
    {
      "inputs": [
        {
          "internalType": "address",
          "name": "newImplementation",
          "type": "address"
        },
        {
          "internalType": "bytes",
          "name": "data",
          "type": "bytes"
        }
      ],
      "name": "upgradeToAndCall",
      "outputs": [],
      "stateMutability": "payable",
      "type": "function"
    },
    {
      "inputs": [
        {
          "internalType": "bytes1",
          "name": "",
          "type": "bytes1"
        }
      ],
      "name": "whitelists",
      "outputs": [
        {
          "internalType": "address",
          "name": "",
          "type": "address"
        }
      ],
      "stateMutability": "view",
      "type": "function"
    }
  ],
  "bytecode": "0x60a06040523073ffffffffffffffffffffffffffffffffffffffff1660809073ffffffffffffffffffffffffffffffffffffffff1681525034801562000043575f80fd5b50620000546200005a60201b60201c565b620001e1565b5f6200006b6200015e60201b60201c565b9050805f0160089054906101000a900460ff1615620000b6576040517ff92ee8a900000000000000000000000000000000000000000000000000000000815260040160405180910390fd5b67ffffffffffffffff8016815f015f9054906101000a900467ffffffffffffffff1667ffffffffffffffff16146200015b5767ffffffffffffffff815f015f6101000a81548167ffffffffffffffff021916908367ffffffffffffffff1602179055507fc7f505b2f371ae2175ee4913f4499e1f2633a7b5936321eed1cdaeb6115181d267ffffffffffffffff604051620001529190620001c6565b60405180910390a15b50565b5f80620001706200017960201b60201c565b90508091505090565b5f7ff0c57e16840df040f15088dc2f81fe391c3923bec73e23a9662efc9c229c6a005f1b905090565b5f67ffffffffffffffff82169050919050565b620001c081620001a2565b82525050565b5f602082019050620001db5f830184620001b5565b92915050565b608051612c9b620002085f395f8181610f7d01528181610fd2015261118c0152612c9b5ff3fe6080604052600436106100fd575f3560e01c8063afb18fe711610094578063d5ea989611610063578063d5ea9896146102cf578063da03f385146102f9578063dcb98f7e14610335578063f2fde38b1461035d578063fd80dd4614610385576100fd565b8063afb18fe71461022b578063b962854114610255578063bd62869a1461027d578063cf756fdf146102a7576100fd565b8063715018a6116100d0578063715018a6146101995780638da5cb5b146101af578063a224c745146101d9578063ad3cb1cc14610201576100fd565b80630c5a6f2f146101015780631378b62e1461012b5780634f1ef2861461015357806352d1902d1461016f575b5f80fd5b34801561010c575f80fd5b506101156103c1565b6040516101229190611ebe565b60405180910390f35b348015610136575f80fd5b50610151600480360381019061014c9190611f1b565b6103e6565b005b61016d600480360381019061016891906120ac565b610522565b005b34801561017a575f80fd5b50610183610541565b604051610190919061211e565b60405180910390f35b3480156101a4575f80fd5b506101ad610572565b005b3480156101ba575f80fd5b506101c3610585565b6040516101d09190611ebe565b60405180910390f35b3480156101e4575f80fd5b506101ff60048036038101906101fa9190612137565b6105ba565b005b34801561020c575f80fd5b50610215610769565b60405161022291906121dc565b60405180910390f35b348015610236575f80fd5b5061023f6107a2565b60405161024c9190611ebe565b60405180910390f35b348015610260575f80fd5b5061027b60048036038101906102769190612137565b6107c7565b005b348015610288575f80fd5b50610291610903565b60405161029e919061220b565b60405180910390f35b3480156102b2575f80fd5b506102cd60048036038101906102c89190612224565b610909565b005b3480156102da575f80fd5b506102e3610ab6565b6040516102f091906122c2565b60405180910390f35b348015610304575f80fd5b5061031f600480360381019061031a9190612338565b610abe565b60405161032c9190611ebe565b60405180910390f35b348015610340575f80fd5b5061035b60048036038101906103569190612137565b610d00565b005b348015610368575f80fd5b50610383600480360381019061037e9190612137565b610e3c565b005b348015610390575f80fd5b506103ab60048036038101906103a691906123d3565b610ec0565b6040516103b89190611ebe565b60405180910390f35b60035f9054906101000a900473ffffffffffffffffffffffffffffffffffffffff1681565b600160f81b5f80827effffffffffffffffffffffffffffffffffffffffffffffffffffffffffffff19167effffffffffffffffffffffffffffffffffffffffffffffffffffffffffffff191681526020019081526020015f205f9054906101000a900473ffffffffffffffffffffffffffffffffffffffff1673ffffffffffffffffffffffffffffffffffffffff16633af32abf336040518263ffffffff1660e01b81526004016104979190611ebe565b602060405180830381865afa1580156104b2573d5f803e3d5ffd5b505050506040513d601f19601f820116820180604052508101906104d69190612433565b610515576040517f08c379a000000000000000000000000000000000000000000000000000000000815260040161050c906124a8565b60405180910390fd5b61051e82610eef565b5050565b61052a610f7b565b61053382611061565b61053d828261106c565b5050565b5f61054a61118a565b7f360894a13ba1a3210667c828492db98dca3e2076cc3735a920a3ca505d382bbc5f1b905090565b61057a611211565b6105835f611298565b565b5f8061058f611369565b9050805f015f9054906101000a900473ffffffffffffffffffffffffffffffffffffffff1691505090565b600160f81b5f80827effffffffffffffffffffffffffffffffffffffffffffffffffffffffffffff19167effffffffffffffffffffffffffffffffffffffffffffffffffffffffffffff191681526020019081526020015f205f9054906101000a900473ffffffffffffffffffffffffffffffffffffffff1673ffffffffffffffffffffffffffffffffffffffff16633af32abf336040518263ffffffff1660e01b815260040161066b9190611ebe565b602060405180830381865afa158015610686573d5f803e3d5ffd5b505050506040513d601f19601f820116820180604052508101906106aa9190612433565b6106e9576040517f08c379a00000000000000000000000000000000000000000000000000000000081526004016106e0906124a8565b60405180910390fd5b5f73ffffffffffffffffffffffffffffffffffffffff168273ffffffffffffffffffffffffffffffffffffffff1603610757576040517f08c379a000000000000000000000000000000000000000000000000000000000815260040161074e9061255c565b60405180910390fd5b61076582600160f81b611390565b5050565b6040518060400160405280600581526020017f352e302e3000000000000000000000000000000000000000000000000000000081525081565b60015f9054906101000a900473ffffffffffffffffffffffffffffffffffffffff1681565b600160f81b5f80827effffffffffffffffffffffffffffffffffffffffffffffffffffffffffffff19167effffffffffffffffffffffffffffffffffffffffffffffffffffffffffffff191681526020019081526020015f205f9054906101000a900473ffffffffffffffffffffffffffffffffffffffff1673ffffffffffffffffffffffffffffffffffffffff16633af32abf336040518263ffffffff1660e01b81526004016108789190611ebe565b602060405180830381865afa158015610893573d5f803e3d5ffd5b505050506040513d601f19601f820116820180604052508101906108b79190612433565b6108f6576040517f08c379a00000000000000000000000000000000000000000000000000000000081526004016108ed906124a8565b60405180910390fd5b6108ff8261140c565b5050565b60025481565b5f61091261151c565b90505f815f0160089054906101000a900460ff161590505f825f015f9054906101000a900467ffffffffffffffff1690505f808267ffffffffffffffff1614801561095a5750825b90505f60018367ffffffffffffffff1614801561098d57505f3073ffffffffffffffffffffffffffffffffffffffff163b145b90508115801561099b575080155b156109d2576040517ff92ee8a900000000000000000000000000000000000000000000000000000000815260040160405180910390fd5b6001855f015f6101000a81548167ffffffffffffffff021916908367ffffffffffffffff1602179055508315610a1f576001855f0160086101000a81548160ff0219169083151502179055505b610a288961140c565b610a3688600160f81b611390565b610a3f86610eef565b610a488761152f565b610a513361163f565b8315610aab575f855f0160086101000a81548160ff0219169083151502179055507fc7f505b2f371ae2175ee4913f4499e1f2633a7b5936321eed1cdaeb6115181d26001604051610aa291906125cf565b60405180910390a15b505050505050505050565b600160f81b81565b5f80610aea60035f9054906101000a900473ffffffffffffffffffffffffffffffffffffffff16611653565b90505f5b86869050811015610bd357868682818110610b0c57610b0b6125e8565b5b9050606002015f016020810190610b239190612137565b73ffffffffffffffffffffffffffffffffffffffff1663f242432a33848a8a86818110610b5357610b526125e8565b5b905060600201602001358b8b87818110610b7057610b6f6125e8565b5b905060600201604001356040518563ffffffff1660e01b8152600401610b999493929190612648565b5f604051808303815f87803b158015610bb0575f80fd5b505af1158015610bc2573d5f803e3d5ffd5b505050508080600101915050610aee565b508073ffffffffffffffffffffffffffffffffffffffff1663947185fd878760015f9054906101000a900473ffffffffffffffffffffffffffffffffffffffff1633888a6002546040518863ffffffff1660e01b8152600401610c3c97969594939291906127e1565b5f604051808303815f87803b158015610c53575f80fd5b505af1158015610c65573d5f803e3d5ffd5b505050507fa841a3011e3922f3de259ccf7c520c71c8d8815399c13e642214bd295e17e2e581338888888860025460015f9054906101000a900473ffffffffffffffffffffffffffffffffffffffff1660035f9054906101000a900473ffffffffffffffffffffffffffffffffffffffff16604051610cec99989796959493929190612849565b60405180910390a180915050949350505050565b600160f81b5f80827effffffffffffffffffffffffffffffffffffffffffffffffffffffffffffff19167effffffffffffffffffffffffffffffffffffffffffffffffffffffffffffff191681526020019081526020015f205f9054906101000a900473ffffffffffffffffffffffffffffffffffffffff1673ffffffffffffffffffffffffffffffffffffffff16633af32abf336040518263ffffffff1660e01b8152600401610db19190611ebe565b602060405180830381865afa158015610dcc573d5f803e3d5ffd5b505050506040513d601f19601f82011682018060405250810190610df09190612433565b610e2f576040517f08c379a0000000000000000000000000000000000000000000000000000000008152600401610e26906124a8565b60405180910390fd5b610e388261152f565b5050565b610e44611211565b5f73ffffffffffffffffffffffffffffffffffffffff168173ffffffffffffffffffffffffffffffffffffffff1603610eb4575f6040517f1e4fbdf7000000000000000000000000000000000000000000000000000000008152600401610eab9190611ebe565b60405180910390fd5b610ebd81611298565b50565b5f602052805f5260405f205f915054906101000a900473ffffffffffffffffffffffffffffffffffffffff1681565b5f8111610f31576040517f08c379a0000000000000000000000000000000000000000000000000000000008152600401610f289061293e565b60405180910390fd5b5f6002549050816002819055507f0c70561463a299653d17821c251f5eba3844457b5d1b9fae5d7a1ed2b219c0758183604051610f6f92919061295c565b60405180910390a15050565b7f000000000000000000000000000000000000000000000000000000000000000073ffffffffffffffffffffffffffffffffffffffff163073ffffffffffffffffffffffffffffffffffffffff16148061102857507f000000000000000000000000000000000000000000000000000000000000000073ffffffffffffffffffffffffffffffffffffffff1661100f611665565b73ffffffffffffffffffffffffffffffffffffffff1614155b1561105f576040517fe07c8dba00000000000000000000000000000000000000000000000000000000815260040160405180910390fd5b565b611069611211565b50565b8173ffffffffffffffffffffffffffffffffffffffff166352d1902d6040518163ffffffff1660e01b8152600401602060405180830381865afa9250505080156110d457506040513d601f19601f820116820180604052508101906110d191906129ad565b60015b61111557816040517f4c9c8ce300000000000000000000000000000000000000000000000000000000815260040161110c9190611ebe565b60405180910390fd5b7f360894a13ba1a3210667c828492db98dca3e2076cc3735a920a3ca505d382bbc5f1b811461117b57806040517faa1d49a4000000000000000000000000000000000000000000000000000000008152600401611172919061211e565b60405180910390fd5b61118583836116b8565b505050565b7f000000000000000000000000000000000000000000000000000000000000000073ffffffffffffffffffffffffffffffffffffffff163073ffffffffffffffffffffffffffffffffffffffff161461120f576040517fe07c8dba00000000000000000000000000000000000000000000000000000000815260040160405180910390fd5b565b61121961172a565b73ffffffffffffffffffffffffffffffffffffffff16611237610585565b73ffffffffffffffffffffffffffffffffffffffff16146112965761125a61172a565b6040517f118cdaa700000000000000000000000000000000000000000000000000000000815260040161128d9190611ebe565b60405180910390fd5b565b5f6112a1611369565b90505f815f015f9054906101000a900473ffffffffffffffffffffffffffffffffffffffff16905082825f015f6101000a81548173ffffffffffffffffffffffffffffffffffffffff021916908373ffffffffffffffffffffffffffffffffffffffff1602179055508273ffffffffffffffffffffffffffffffffffffffff168173ffffffffffffffffffffffffffffffffffffffff167f8be0079c531659141344cd1fd0a4f28419497f9722a3daafe3b4186f6b6457e060405160405180910390a3505050565b5f7f9016d09d72d40fdae2fd8ceac6b6234c7706214fd39c1cd1e609a0528c199300905090565b5f73ffffffffffffffffffffffffffffffffffffffff168273ffffffffffffffffffffffffffffffffffffffff16036113fe576040517f08c379a00000000000000000000000000000000000000000000000000000000081526004016113f59061255c565b60405180910390fd5b6114088282611731565b5050565b5f73ffffffffffffffffffffffffffffffffffffffff168173ffffffffffffffffffffffffffffffffffffffff160361147a576040517f08c379a000000000000000000000000000000000000000000000000000000000815260040161147190612a48565b60405180910390fd5b5f60035f9054906101000a900473ffffffffffffffffffffffffffffffffffffffff1690508160035f6101000a81548173ffffffffffffffffffffffffffffffffffffffff021916908373ffffffffffffffffffffffffffffffffffffffff1602179055507f2b12be9fa6bedeff30cb15ba65624af638a4ba58bf9445d9e29fa9abeb10c4da8183604051611510929190612a66565b60405180910390a15050565b5f80611526611917565b90508091505090565b5f73ffffffffffffffffffffffffffffffffffffffff168173ffffffffffffffffffffffffffffffffffffffff160361159d576040517f08c379a000000000000000000000000000000000000000000000000000000000815260040161159490612afd565b60405180910390fd5b5f60015f9054906101000a900473ffffffffffffffffffffffffffffffffffffffff1690508160015f6101000a81548173ffffffffffffffffffffffffffffffffffffffff021916908373ffffffffffffffffffffffffffffffffffffffff1602179055507f2bd8c5354233e1142193df7977bd89f7ad57b724087278bad86db1e15fc3033b8183604051611633929190612a66565b60405180910390a15050565b611647611940565b61165081611980565b50565b5f61165e825f611a04565b9050919050565b5f6116917f360894a13ba1a3210667c828492db98dca3e2076cc3735a920a3ca505d382bbc5f1b611af9565b5f015f9054906101000a900473ffffffffffffffffffffffffffffffffffffffff16905090565b6116c182611b02565b8173ffffffffffffffffffffffffffffffffffffffff167fbc7cd75a20ee27fd9adebab32041f755214dbc6bffa90cc0225b39da2e5c2d3b60405160405180910390a25f8151111561171d576117178282611bcb565b50611726565b611725611c4b565b5b5050565b5f33905090565b5f73ffffffffffffffffffffffffffffffffffffffff168273ffffffffffffffffffffffffffffffffffffffff16146117ce5761178e827f5470aee900000000000000000000000000000000000000000000000000000000611c87565b6117cd576040517f08c379a00000000000000000000000000000000000000000000000000000000081526004016117c490612b65565b60405180910390fd5b5b5f805f837effffffffffffffffffffffffffffffffffffffffffffffffffffffffffffff19167effffffffffffffffffffffffffffffffffffffffffffffffffffffffffffff191681526020019081526020015f205f9054906101000a900473ffffffffffffffffffffffffffffffffffffffff169050825f80847effffffffffffffffffffffffffffffffffffffffffffffffffffffffffffff19167effffffffffffffffffffffffffffffffffffffffffffffffffffffffffffff191681526020019081526020015f205f6101000a81548173ffffffffffffffffffffffffffffffffffffffff021916908373ffffffffffffffffffffffffffffffffffffffff1602179055507fbdb658fbebcb4884950df11335d9177f3b8c7fb1b1f5290202b9715198d7e10582828560405161190a93929190612b83565b60405180910390a1505050565b5f7ff0c57e16840df040f15088dc2f81fe391c3923bec73e23a9662efc9c229c6a005f1b905090565b611948611cab565b61197e576040517fd7e6bcf800000000000000000000000000000000000000000000000000000000815260040160405180910390fd5b565b611988611940565b5f73ffffffffffffffffffffffffffffffffffffffff168173ffffffffffffffffffffffffffffffffffffffff16036119f8575f6040517f1e4fbdf70000000000000000000000000000000000000000000000000000000081526004016119ef9190611ebe565b60405180910390fd5b611a0181611298565b50565b5f81471015611a4c5747826040517fcf479181000000000000000000000000000000000000000000000000000000008152600401611a4392919061295c565b60405180910390fd5b763d602d80600a3d3981f3363d3d373d3d3d363d730000008360601b60e81c175f526e5af43d82803e903d91602b57fd5bf38360781b176020526037600983f090505f73ffffffffffffffffffffffffffffffffffffffff168173ffffffffffffffffffffffffffffffffffffffff1603611af3576040517fb06ebf3d00000000000000000000000000000000000000000000000000000000815260040160405180910390fd5b92915050565b5f819050919050565b5f8173ffffffffffffffffffffffffffffffffffffffff163b03611b5d57806040517f4c9c8ce3000000000000000000000000000000000000000000000000000000008152600401611b549190611ebe565b60405180910390fd5b80611b897f360894a13ba1a3210667c828492db98dca3e2076cc3735a920a3ca505d382bbc5f1b611af9565b5f015f6101000a81548173ffffffffffffffffffffffffffffffffffffffff021916908373ffffffffffffffffffffffffffffffffffffffff16021790555050565b60605f808473ffffffffffffffffffffffffffffffffffffffff1684604051611bf49190612bfc565b5f60405180830381855af49150503d805f8114611c2c576040519150601f19603f3d011682016040523d82523d5f602084013e611c31565b606091505b5091509150611c41858383611cc9565b9250505092915050565b5f341115611c85576040517fb398979f00000000000000000000000000000000000000000000000000000000815260040160405180910390fd5b565b5f611c9183611d56565b8015611ca35750611ca28383611da2565b5b905092915050565b5f611cb461151c565b5f0160089054906101000a900460ff16905090565b606082611cde57611cd982611e3b565b611d4e565b5f8251148015611d0457505f8473ffffffffffffffffffffffffffffffffffffffff163b145b15611d4657836040517f9996b315000000000000000000000000000000000000000000000000000000008152600401611d3d9190611ebe565b60405180910390fd5b819050611d4f565b5b9392505050565b5f611d81827f01ffc9a700000000000000000000000000000000000000000000000000000000611da2565b8015611d9b5750611d998263ffffffff60e01b611da2565b155b9050919050565b5f8082604051602401611db59190612c4c565b6040516020818303038152906040526301ffc9a760e01b6020820180517bffffffffffffffffffffffffffffffffffffffffffffffffffffffff838183161783525050505090505f805f60205f8551602087018a617530fa92503d91505f519050828015611e24575060208210155b8015611e2f57505f81115b94505050505092915050565b5f81511115611e4d5780518082602001fd5b6040517fd6bda27500000000000000000000000000000000000000000000000000000000815260040160405180910390fd5b5f73ffffffffffffffffffffffffffffffffffffffff82169050919050565b5f611ea882611e7f565b9050919050565b611eb881611e9e565b82525050565b5f602082019050611ed15f830184611eaf565b92915050565b5f604051905090565b5f80fd5b5f80fd5b5f819050919050565b611efa81611ee8565b8114611f04575f80fd5b50565b5f81359050611f1581611ef1565b92915050565b5f60208284031215611f3057611f2f611ee0565b5b5f611f3d84828501611f07565b91505092915050565b611f4f81611e9e565b8114611f59575f80fd5b50565b5f81359050611f6a81611f46565b92915050565b5f80fd5b5f80fd5b5f601f19601f8301169050919050565b7f4e487b71000000000000000000000000000000000000000000000000000000005f52604160045260245ffd5b611fbe82611f78565b810181811067ffffffffffffffff82111715611fdd57611fdc611f88565b5b80604052505050565b5f611fef611ed7565b9050611ffb8282611fb5565b919050565b5f67ffffffffffffffff82111561201a57612019611f88565b5b61202382611f78565b9050602081019050919050565b828183375f83830152505050565b5f61205061204b84612000565b611fe6565b90508281526020810184848401111561206c5761206b611f74565b5b612077848285612030565b509392505050565b5f82601f83011261209357612092611f70565b5b81356120a384826020860161203e565b91505092915050565b5f80604083850312156120c2576120c1611ee0565b5b5f6120cf85828601611f5c565b925050602083013567ffffffffffffffff8111156120f0576120ef611ee4565b5b6120fc8582860161207f565b9150509250929050565b5f819050919050565b61211881612106565b82525050565b5f6020820190506121315f83018461210f565b92915050565b5f6020828403121561214c5761214b611ee0565b5b5f61215984828501611f5c565b91505092915050565b5f81519050919050565b5f82825260208201905092915050565b5f5b8381101561219957808201518184015260208101905061217e565b5f8484015250505050565b5f6121ae82612162565b6121b8818561216c565b93506121c881856020860161217c565b6121d181611f78565b840191505092915050565b5f6020820190508181035f8301526121f481846121a4565b905092915050565b61220581611ee8565b82525050565b5f60208201905061221e5f8301846121fc565b92915050565b5f805f806080858703121561223c5761223b611ee0565b5b5f61224987828801611f5c565b945050602061225a87828801611f5c565b935050604061226b87828801611f5c565b925050606061227c87828801611f07565b91505092959194509250565b5f7fff0000000000000000000000000000000000000000000000000000000000000082169050919050565b6122bc81612288565b82525050565b5f6020820190506122d55f8301846122b3565b92915050565b5f80fd5b5f80fd5b5f8083601f8401126122f8576122f7611f70565b5b8235905067ffffffffffffffff811115612315576123146122db565b5b602083019150836060820283011115612331576123306122df565b5b9250929050565b5f805f80606085870312156123505761234f611ee0565b5b5f85013567ffffffffffffffff81111561236d5761236c611ee4565b5b612379878288016122e3565b9450945050602061238c87828801611f07565b925050604061239d87828801611f07565b91505092959194509250565b6123b281612288565b81146123bc575f80fd5b50565b5f813590506123cd816123a9565b92915050565b5f602082840312156123e8576123e7611ee0565b5b5f6123f5848285016123bf565b91505092915050565b5f8115159050919050565b612412816123fe565b811461241c575f80fd5b50565b5f8151905061242d81612409565b92915050565b5f6020828403121561244857612447611ee0565b5b5f6124558482850161241f565b91505092915050565b7f53656e646572206973206e6f742077686974656c6973746564000000000000005f82015250565b5f61249260198361216c565b915061249d8261245e565b602082019050919050565b5f6020820190508181035f8301526124bf81612486565b9050919050565b7f526f79616c74794c6f616e466163746f72793a205f77686974656c69737441645f8201527f6472657373206164647265737320697320746865207a65726f2061646472657360208201527f7300000000000000000000000000000000000000000000000000000000000000604082015250565b5f61254660418361216c565b9150612551826124c6565b606082019050919050565b5f6020820190508181035f8301526125738161253a565b9050919050565b5f819050919050565b5f67ffffffffffffffff82169050919050565b5f819050919050565b5f6125b96125b46125af8461257a565b612596565b612583565b9050919050565b6125c98161259f565b82525050565b5f6020820190506125e25f8301846125c0565b92915050565b7f4e487b71000000000000000000000000000000000000000000000000000000005f52603260045260245ffd5b5f82825260208201905092915050565b50565b5f6126335f83612615565b915061263e82612625565b5f82019050919050565b5f60a08201905061265b5f830187611eaf565b6126686020830186611eaf565b61267560408301856121fc565b61268260608301846121fc565b818103608083015261269381612628565b905095945050505050565b5f82825260208201905092915050565b5f819050919050565b5f6126c56020840184611f5c565b905092915050565b6126d681611e9e565b82525050565b5f6126ea6020840184611f07565b905092915050565b6126fb81611ee8565b82525050565b606082016127115f8301836126b7565b61271d5f8501826126cd565b5061272b60208301836126dc565b61273860208501826126f2565b5061274660408301836126dc565b61275360408501826126f2565b50505050565b5f6127648383612701565b60608301905092915050565b5f82905092915050565b5f606082019050919050565b5f612791838561269e565b935061279c826126ae565b805f5b858110156127d4576127b18284612770565b6127bb8882612759565b97506127c68361277a565b92505060018101905061279f565b5085925050509392505050565b5f60c0820190508181035f8301526127fa81898b612786565b90506128096020830188611eaf565b6128166040830187611eaf565b61282360608301866121fc565b61283060808301856121fc565b61283d60a08301846121fc565b98975050505050505050565b5f6101008201905061285d5f83018c611eaf565b61286a602083018b611eaf565b818103604083015261287d81898b612786565b905061288c60608301886121fc565b61289960808301876121fc565b6128a660a08301866121fc565b6128b360c0830185611eaf565b6128c060e0830184611eaf565b9a9950505050505050505050565b7f526f79616c74794c6f616e466163746f72793a205f6475726174696f6e206d755f8201527f73742062652067726561746572207468616e2030000000000000000000000000602082015250565b5f61292860348361216c565b9150612933826128ce565b604082019050919050565b5f6020820190508181035f8301526129558161291c565b9050919050565b5f60408201905061296f5f8301856121fc565b61297c60208301846121fc565b9392505050565b61298c81612106565b8114612996575f80fd5b50565b5f815190506129a781612983565b92915050565b5f602082840312156129c2576129c1611ee0565b5b5f6129cf84828501612999565b91505092915050565b7f526f79616c74794c6f616e466163746f72793a205f74656d706c6174654164645f8201527f7265737320697320746865207a65726f20616464726573730000000000000000602082015250565b5f612a3260388361216c565b9150612a3d826129d8565b604082019050919050565b5f6020820190508181035f830152612a5f81612a26565b9050919050565b5f604082019050612a795f830185611eaf565b612a866020830184611eaf565b9392505050565b7f526f79616c74794c6f616e466163746f72793a205f7061796d656e74546f6b655f8201527f6e4164647265737320697320746865207a65726f206164647265737300000000602082015250565b5f612ae7603c8361216c565b9150612af282612a8d565b604082019050919050565b5f6020820190508181035f830152612b1481612adb565b9050919050565b7f496e74657266616365206e6f7420737570706f727465640000000000000000005f82015250565b5f612b4f60178361216c565b9150612b5a82612b1b565b602082019050919050565b5f6020820190508181035f830152612b7c81612b43565b9050919050565b5f606082019050612b965f8301866122b3565b612ba36020830185611eaf565b612bb06040830184611eaf565b949350505050565b5f81519050919050565b5f81905092915050565b5f612bd682612bb8565b612be08185612bc2565b9350612bf081856020860161217c565b80840191505092915050565b5f612c078284612bcc565b915081905092915050565b5f7fffffffff0000000000000000000000000000000000000000000000000000000082169050919050565b612c4681612c12565b82525050565b5f602082019050612c5f5f830184612c3d565b9291505056fea2646970667358221220d2c645bf21a8ec585b0a5ef2d790cbcfa67a7a2acac987dff4f7fb3714908d2264736f6c63430008180033",
  "linkReferences": {},
  "deployedLinkReferences": {}
}