{
  "_format": "hh-sol-artifact-1",
  "contractName": "RoyaltyLoan",
  "sourceName": "contracts/Loans/RoyaltyLoan.sol",
  "abi": [
    {
      "inputs": [],
      "stateMutability": "nonpayable",
      "type": "constructor"
    },
    {
      "inputs": [],
      "name": "InvalidInitialization",
      "type": "error"
    },
    {
      "inputs": [],
      "name": "NotInitializing",
      "type": "error"
    },
    {
      "inputs": [
        {
          "internalType": "address",
          "name": "token",
          "type": "address"
        }
      ],
      "name": "SafeERC20FailedOperation",
      "type": "error"
    },
    {
      "anonymous": false,
      "inputs": [
        {
          "indexed": false,
          "internalType": "uint64",
          "name": "version",
          "type": "uint64"
        }
      ],
      "name": "Initialized",
      "type": "event"
    },
    {
      "anonymous": false,
      "inputs": [
        {
          "indexed": false,
          "internalType": "uint256",
          "name": "repaymentAmount",
          "type": "uint256"
        }
      ],
      "name": "LoanPartialyRepaid",
      "type": "event"
    },
    {
      "anonymous": false,
      "inputs": [
        {
          "indexed": false,
          "internalType": "address",
          "name": "lender",
          "type": "address"
        }
      ],
      "name": "LoanProvided",
      "type": "event"
    },
    {
      "anonymous": false,
      "inputs": [
        {
          "indexed": false,
          "internalType": "uint256",
          "name": "repaymentAmount",
          "type": "uint256"
        }
      ],
      "name": "LoanRepaid",
      "type": "event"
    },
    {
      "anonymous": false,
      "inputs": [],
      "name": "LoanRevoked",
      "type": "event"
    },
    {
      "inputs": [],
      "name": "borrower",
      "outputs": [
        {
          "internalType": "address",
          "name": "",
          "type": "address"
        }
      ],
      "stateMutability": "view",
      "type": "function"
    },
    {
      "inputs": [
        {
          "internalType": "uint256",
          "name": "",
          "type": "uint256"
        }
      ],
      "name": "collateralAmounts",
      "outputs": [
        {
          "internalType": "uint256",
          "name": "",
          "type": "uint256"
        }
      ],
      "stateMutability": "view",
      "type": "function"
    },
    {
      "inputs": [
        {
          "internalType": "uint256",
          "name": "",
          "type": "uint256"
        }
      ],
      "name": "collateralTokenIds",
      "outputs": [
        {
          "internalType": "uint256",
          "name": "",
          "type": "uint256"
        }
      ],
      "stateMutability": "view",
      "type": "function"
    },
    {
      "inputs": [
        {
          "internalType": "uint256",
          "name": "",
          "type": "uint256"
        }
      ],
      "name": "collateralTokens",
      "outputs": [
        {
          "internalType": "contract IERC1155",
          "name": "",
          "type": "address"
        }
      ],
      "stateMutability": "view",
      "type": "function"
    },
    {
      "inputs": [
        {
          "internalType": "uint256",
          "name": "",
          "type": "uint256"
        }
      ],
      "name": "collaterals",
      "outputs": [
        {
          "internalType": "address",
          "name": "tokenAddress",
          "type": "address"
        },
        {
          "internalType": "uint256",
          "name": "tokenId",
          "type": "uint256"
        },
        {
          "internalType": "uint256",
          "name": "tokenAmount",
          "type": "uint256"
        }
      ],
      "stateMutability": "view",
      "type": "function"
    },
    {
      "inputs": [],
      "name": "expirationDate",
      "outputs": [
        {
          "internalType": "uint256",
          "name": "",
          "type": "uint256"
        }
      ],
      "stateMutability": "view",
      "type": "function"
    },
    {
      "inputs": [],
      "name": "feePpm",
      "outputs": [
        {
          "internalType": "uint256",
          "name": "",
          "type": "uint256"
        }
      ],
      "stateMutability": "view",
      "type": "function"
    },
    {
      "inputs": [],
      "name": "getRemainingTotalDue",
      "outputs": [
        {
          "internalType": "uint256",
          "name": "",
          "type": "uint256"
        }
      ],
      "stateMutability": "view",
      "type": "function"
    },
    {
      "inputs": [
        {
          "components": [
            {
              "internalType": "address",
              "name": "tokenAddress",
              "type": "address"
            },
            {
              "internalType": "uint256",
              "name": "tokenId",
              "type": "uint256"
            },
            {
              "internalType": "uint256",
              "name": "tokenAmount",
              "type": "uint256"
            }
          ],
          "internalType": "struct ICollateral.Collateral[]",
          "name": "_collaterals",
          "type": "tuple[]"
        },
        {
          "internalType": "address",
          "name": "_paymentTokenAddress",
          "type": "address"
        },
        {
          "internalType": "address",
          "name": "_borrowerAddress",
          "type": "address"
        },
        {
          "internalType": "uint256",
          "name": "_feePpm",
          "type": "uint256"
        },
        {
          "internalType": "uint256",
          "name": "_loanAmount",
          "type": "uint256"
        },
        {
          "internalType": "uint256",
          "name": "_duration",
          "type": "uint256"
        }
      ],
      "name": "initialize",
      "outputs": [],
      "stateMutability": "nonpayable",
      "type": "function"
    },
    {
      "inputs": [],
      "name": "lender",
      "outputs": [
        {
          "internalType": "address",
          "name": "",
          "type": "address"
        }
      ],
      "stateMutability": "view",
      "type": "function"
    },
    {
      "inputs": [],
      "name": "loanActive",
      "outputs": [
        {
          "internalType": "bool",
          "name": "",
          "type": "bool"
        }
      ],
      "stateMutability": "view",
      "type": "function"
    },
    {
      "inputs": [],
      "name": "loanAmount",
      "outputs": [
        {
          "internalType": "uint256",
          "name": "",
          "type": "uint256"
        }
      ],
      "stateMutability": "view",
      "type": "function"
    },
    {
      "inputs": [],
      "name": "loanOfferActive",
      "outputs": [
        {
          "internalType": "bool",
          "name": "",
          "type": "bool"
        }
      ],
      "stateMutability": "view",
      "type": "function"
    },
    {
      "inputs": [
        {
          "internalType": "address",
          "name": "",
          "type": "address"
        },
        {
          "internalType": "address",
          "name": "",
          "type": "address"
        },
        {
          "internalType": "uint256[]",
          "name": "",
          "type": "uint256[]"
        },
        {
          "internalType": "uint256[]",
          "name": "",
          "type": "uint256[]"
        },
        {
          "internalType": "bytes",
          "name": "",
          "type": "bytes"
        }
      ],
      "name": "onERC1155BatchReceived",
      "outputs": [
        {
          "internalType": "bytes4",
          "name": "",
          "type": "bytes4"
        }
      ],
      "stateMutability": "nonpayable",
      "type": "function"
    },
    {
      "inputs": [
        {
          "internalType": "address",
          "name": "",
          "type": "address"
        },
        {
          "internalType": "address",
          "name": "",
          "type": "address"
        },
        {
          "internalType": "uint256",
          "name": "",
          "type": "uint256"
        },
        {
          "internalType": "uint256",
          "name": "",
          "type": "uint256"
        },
        {
          "internalType": "bytes",
          "name": "",
          "type": "bytes"
        }
      ],
      "name": "onERC1155Received",
      "outputs": [
        {
          "internalType": "bytes4",
          "name": "",
          "type": "bytes4"
        }
      ],
      "stateMutability": "nonpayable",
      "type": "function"
    },
    {
      "inputs": [],
      "name": "paymentToken",
      "outputs": [
        {
          "internalType": "contract IERC20",
          "name": "",
          "type": "address"
        }
      ],
      "stateMutability": "view",
      "type": "function"
    },
    {
      "inputs": [],
      "name": "processRepayment",
      "outputs": [],
      "stateMutability": "nonpayable",
      "type": "function"
    },
    {
      "inputs": [],
      "name": "provideLoan",
      "outputs": [],
      "stateMutability": "nonpayable",
      "type": "function"
    },
    {
      "inputs": [],
      "name": "reclaimExcessPaymentToken",
      "outputs": [],
      "stateMutability": "nonpayable",
      "type": "function"
    },
    {
      "inputs": [],
      "name": "revokeLoan",
      "outputs": [],
      "stateMutability": "nonpayable",
      "type": "function"
    },
    {
      "inputs": [
        {
          "internalType": "bytes4",
          "name": "interfaceId",
          "type": "bytes4"
        }
      ],
      "name": "supportsInterface",
      "outputs": [
        {
          "internalType": "bool",
          "name": "",
          "type": "bool"
        }
      ],
      "stateMutability": "view",
      "type": "function"
    }
  ],
  "bytecode": "0x60806040525f600a5f6101000a81548160ff0219169083151502179055505f600a60016101000a81548160ff02191690831515021790555034801562000043575f80fd5b50620000546200005a60201b60201c565b620001e1565b5f6200006b6200015e60201b60201c565b9050805f0160089054906101000a900460ff1615620000b6576040517ff92ee8a900000000000000000000000000000000000000000000000000000000815260040160405180910390fd5b67ffffffffffffffff8016815f015f9054906101000a900467ffffffffffffffff1667ffffffffffffffff16146200015b5767ffffffffffffffff815f015f6101000a81548167ffffffffffffffff021916908367ffffffffffffffff1602179055507fc7f505b2f371ae2175ee4913f4499e1f2633a7b5936321eed1cdaeb6115181d267ffffffffffffffff604051620001529190620001c6565b60405180910390a15b50565b5f80620001706200017960201b60201c565b90508091505090565b5f7ff0c57e16840df040f15088dc2f81fe391c3923bec73e23a9662efc9c229c6a005f1b905090565b5f67ffffffffffffffff82169050919050565b620001c081620001a2565b82525050565b5f602082019050620001db5f830184620001b5565b92915050565b613b1b80620001ef5f395ff3fe608060405234801561000f575f80fd5b5060043610610135575f3560e01c80638979d014116100b6578063a534150c1161007a578063a534150c1461032d578063bbfb20071461034b578063bc197c8114610355578063bcead63e14610385578063c4fe0dc8146103a3578063f23a6e61146103ad57610135565b80638979d014146102ad5780638f620487146102cb57806394598178146102e9578063947185fd146102f35780639d585f7f1461030f57610135565b80633ec345b4116100fd5780633ec345b4146101f357806348b750901461021157806361a056b61461022f57806363371fea1461025f5780637df1f1b91461028f57610135565b806301ffc9a71461013957806308ee4ef414610169578063172c48c71461017357806324c1173b146101a35780633013ce29146101d5575b5f80fd5b610153600480360381019061014e9190612335565b6103dd565b604051610160919061237a565b60405180910390f35b610171610456565b005b61018d600480360381019061018891906123c6565b610687565b60405161019a919061246b565b60405180910390f35b6101bd60048036038101906101b891906123c6565b6106c2565b6040516101cc939291906124b3565b60405180910390f35b6101dd610715565b6040516101ea9190612508565b60405180910390f35b6101fb61073a565b6040516102089190612521565b60405180910390f35b61021961087e565b604051610226919061237a565b60405180910390f35b610249600480360381019061024491906123c6565b610890565b6040516102569190612521565b60405180910390f35b610279600480360381019061027491906123c6565b6108b0565b6040516102869190612521565b60405180910390f35b6102976108d0565b6040516102a4919061253a565b60405180910390f35b6102b56108f5565b6040516102c2919061237a565b60405180910390f35b6102d3610908565b6040516102e09190612521565b60405180910390f35b6102f161090e565b005b61030d600480360381019061030891906125de565b610d5e565b005b610317611445565b6040516103249190612521565b60405180910390f35b61033561144b565b6040516103429190612521565b60405180910390f35b610353611451565b005b61036f600480360381019061036a9190612880565b61167f565b60405161037c919061295a565b60405180910390f35b61038d611693565b60405161039a919061253a565b60405180910390f35b6103ab6116b8565b005b6103c760048036038101906103c29190612973565b611d46565b6040516103d4919061295a565b60405180910390f35b5f7f4e2312e0000000000000000000000000000000000000000000000000000000007bffffffffffffffffffffffffffffffffffffffffffffffffffffffff1916827bffffffffffffffffffffffffffffffffffffffffffffffffffffffff1916148061044f575061044e82611d5a565b5b9050919050565b5f1515600a5f9054906101000a900460ff161515146104aa576040517f08c379a00000000000000000000000000000000000000000000000000000000081526004016104a190612a60565b60405180910390fd5b5f60045f9054906101000a900473ffffffffffffffffffffffffffffffffffffffff1673ffffffffffffffffffffffffffffffffffffffff166370a08231306040518263ffffffff1660e01b8152600401610505919061253a565b602060405180830381865afa158015610520573d5f803e3d5ffd5b505050506040513d601f19601f820116820180604052508101906105449190612a92565b90505f8111610588576040517f08c379a000000000000000000000000000000000000000000000000000000000815260040161057f90612b2d565b60405180910390fd5b60045f9054906101000a900473ffffffffffffffffffffffffffffffffffffffff1673ffffffffffffffffffffffffffffffffffffffff1663a9059cbb60055f9054906101000a900473ffffffffffffffffffffffffffffffffffffffff16836040518363ffffffff1660e01b8152600401610605929190612b4b565b6020604051808303815f875af1158015610621573d5f803e3d5ffd5b505050506040513d601f19601f820116820180604052508101906106459190612b9c565b610684576040517f08c379a000000000000000000000000000000000000000000000000000000000815260040161067b90612c11565b60405180910390fd5b50565b60018181548110610696575f80fd5b905f5260205f20015f915054906101000a900473ffffffffffffffffffffffffffffffffffffffff1681565b5f81815481106106d0575f80fd5b905f5260205f2090600302015f91509050805f015f9054906101000a900473ffffffffffffffffffffffffffffffffffffffff16908060010154908060020154905083565b60045f9054906101000a900473ffffffffffffffffffffffffffffffffffffffff1681565b5f60011515600a5f9054906101000a900460ff16151514610790576040517f08c379a000000000000000000000000000000000000000000000000000000000815260040161078790612c79565b60405180910390fd5b60055f9054906101000a900473ffffffffffffffffffffffffffffffffffffffff1673ffffffffffffffffffffffffffffffffffffffff163373ffffffffffffffffffffffffffffffffffffffff161480610837575060065f9054906101000a900473ffffffffffffffffffffffffffffffffffffffff1673ffffffffffffffffffffffffffffffffffffffff163373ffffffffffffffffffffffffffffffffffffffff16145b610876576040517f08c379a000000000000000000000000000000000000000000000000000000000815260040161086d90612d2d565b60405180910390fd5b600b54905090565b600a5f9054906101000a900460ff1681565b6003818154811061089f575f80fd5b905f5260205f20015f915090505481565b600281815481106108bf575f80fd5b905f5260205f20015f915090505481565b60055f9054906101000a900473ffffffffffffffffffffffffffffffffffffffff1681565b600a60019054906101000a900460ff1681565b60095481565b5f1515600a5f9054906101000a900460ff16151514610962576040517f08c379a000000000000000000000000000000000000000000000000000000000815260040161095990612dbb565b60405180910390fd5b60011515600a60019054906101000a900460ff161515146109b8576040517f08c379a00000000000000000000000000000000000000000000000000000000081526004016109af90612e49565b60405180910390fd5b60055f9054906101000a900473ffffffffffffffffffffffffffffffffffffffff1673ffffffffffffffffffffffffffffffffffffffff163373ffffffffffffffffffffffffffffffffffffffff1614610a47576040517f08c379a0000000000000000000000000000000000000000000000000000000008152600401610a3e90612ed7565b60405180910390fd5b5f5b5f80549050811015610b73575f8181548110610a6857610a67612ef5565b5b905f5260205f2090600302015f015f9054906101000a900473ffffffffffffffffffffffffffffffffffffffff1673ffffffffffffffffffffffffffffffffffffffff1663f242432a3060055f9054906101000a900473ffffffffffffffffffffffffffffffffffffffff165f8581548110610ae757610ae6612ef5565b5b905f5260205f209060030201600101545f8681548110610b0a57610b09612ef5565b5b905f5260205f209060030201600201546040518563ffffffff1660e01b8152600401610b399493929190612f55565b5f604051808303815f87803b158015610b50575f80fd5b505af1158015610b62573d5f803e3d5ffd5b505050508080600101915050610a49565b505f60045f9054906101000a900473ffffffffffffffffffffffffffffffffffffffff1673ffffffffffffffffffffffffffffffffffffffff166370a08231306040518263ffffffff1660e01b8152600401610bcf919061253a565b602060405180830381865afa158015610bea573d5f803e3d5ffd5b505050506040513d601f19601f82011682018060405250810190610c0e9190612a92565b90505f811115610d155760045f9054906101000a900473ffffffffffffffffffffffffffffffffffffffff1673ffffffffffffffffffffffffffffffffffffffff1663a9059cbb60055f9054906101000a900473ffffffffffffffffffffffffffffffffffffffff16836040518363ffffffff1660e01b8152600401610c95929190612b4b565b6020604051808303815f875af1158015610cb1573d5f803e3d5ffd5b505050506040513d601f19601f82011682018060405250810190610cd59190612b9c565b610d14576040517f08c379a0000000000000000000000000000000000000000000000000000000008152600401610d0b9061301b565b60405180910390fd5b5b5f600a60016101000a81548160ff0219169083151502179055507fcf90e01e154aa36eac1c51eff8a71fd95d40e9cab591b29c5db844d6d3f83af260405160405180910390a150565b5f610d67611dc3565b90505f815f0160089054906101000a900460ff161590505f825f015f9054906101000a900467ffffffffffffffff1690505f808267ffffffffffffffff16148015610daf5750825b90505f60018367ffffffffffffffff16148015610de257505f3073ffffffffffffffffffffffffffffffffffffffff163b145b905081158015610df0575080155b15610e27576040517ff92ee8a900000000000000000000000000000000000000000000000000000000815260040160405180910390fd5b6001855f015f6101000a81548167ffffffffffffffff021916908367ffffffffffffffff1602179055508315610e74576001855f0160086101000a81548160ff0219169083151502179055505b5f5b8c8c9050811015611143575f73ffffffffffffffffffffffffffffffffffffffff168d8d83818110610eab57610eaa612ef5565b5b9050606002015f016020810190610ec29190613039565b73ffffffffffffffffffffffffffffffffffffffff161415610ee382611dd6565b604051602001610ef39190613140565b60405160208183030381529060405290610f43576040517f08c379a0000000000000000000000000000000000000000000000000000000008152600401610f3a9190613199565b60405180910390fd5b505f8d8d83818110610f5857610f57612ef5565b5b9050606002016040013511610f6c82611dd6565b604051602001610f7c919061324f565b60405160208183030381529060405290610fcc576040517f08c379a0000000000000000000000000000000000000000000000000000000008152600401610fc39190613199565b60405180910390fd5b505f8181548110610fe057610fdf612ef5565b5b905f5260205f209060030201600201545f828154811061100357611002612ef5565b5b905f5260205f2090600302015f015f9054906101000a900473ffffffffffffffffffffffffffffffffffffffff1673ffffffffffffffffffffffffffffffffffffffff1662fdd58e305f858154811061105f5761105e612ef5565b5b905f5260205f209060030201600101546040518363ffffffff1660e01b815260040161108c929190612b4b565b602060405180830381865afa1580156110a7573d5f803e3d5ffd5b505050506040513d601f19601f820116820180604052508101906110cb9190612a92565b146110d582611dd6565b6040516020016110e59190613306565b60405160208183030381529060405290611135576040517f08c379a000000000000000000000000000000000000000000000000000000000815260040161112c9190613199565b60405180910390fd5b508080600101915050610e76565b505f8711611186576040517f08c379a000000000000000000000000000000000000000000000000000000000815260040161117d90613397565b60405180910390fd5b620f42408811156111cc576040517f08c379a00000000000000000000000000000000000000000000000000000000081526004016111c3906133ff565b60405180910390fd5b5f73ffffffffffffffffffffffffffffffffffffffff168a73ffffffffffffffffffffffffffffffffffffffff160361123a576040517f08c379a00000000000000000000000000000000000000000000000000000000081526004016112319061348d565b60405180910390fd5b5f861161127c576040517f08c379a00000000000000000000000000000000000000000000000000000000081526004016112739061351b565b60405180910390fd5b5f806112889190612264565b5f5b8c8c90508110156112f0575f8d8d838181106112a9576112a8612ef5565b5b905060600201908060018154018082558091505060019003905f5260205f2090600302015f9091909190915081816112e191906136d3565b5050808060010191505061128a565b508960045f6101000a81548173ffffffffffffffffffffffffffffffffffffffff021916908373ffffffffffffffffffffffffffffffffffffffff1602179055508860055f6101000a81548173ffffffffffffffffffffffffffffffffffffffff021916908373ffffffffffffffffffffffffffffffffffffffff1602179055508760078190555086600881905550620f4240600754600854611393919061370e565b61139d919061377c565b6008546113aa91906137ac565b600b8190555085426113bc91906137ac565b6009819055506001600a60016101000a81548160ff0219169083151502179055508315611437575f855f0160086101000a81548160ff0219169083151502179055507fc7f505b2f371ae2175ee4913f4499e1f2633a7b5936321eed1cdaeb6115181d2600160405161142e919061382b565b60405180910390a15b505050505050505050505050565b60085481565b60075481565b5f1515600a5f9054906101000a900460ff161515146114a5576040517f08c379a000000000000000000000000000000000000000000000000000000000815260040161149c90612dbb565b60405180910390fd5b60011515600a60019054906101000a900460ff161515146114fb576040517f08c379a00000000000000000000000000000000000000000000000000000000081526004016114f290612e49565b60405180910390fd5b600954421115611540576040517f08c379a00000000000000000000000000000000000000000000000000000000081526004016115379061388e565b60405180910390fd5b3360065f6101000a81548173ffffffffffffffffffffffffffffffffffffffff021916908373ffffffffffffffffffffffffffffffffffffffff1602179055506115f13360055f9054906101000a900473ffffffffffffffffffffffffffffffffffffffff1660085460045f9054906101000a900473ffffffffffffffffffffffffffffffffffffffff1673ffffffffffffffffffffffffffffffffffffffff16611ea0909392919063ffffffff16565b6001600a5f6101000a81548160ff0219169083151502179055505f600a60016101000a81548160ff0219169083151502179055507f3e8d8115472dbb577aaf87fcb3f9da55b701cc89ad36efc03587625af0e3e85460065f9054906101000a900473ffffffffffffffffffffffffffffffffffffffff16604051611675919061253a565b60405180910390a1565b5f63bc197c8160e01b905095945050505050565b60065f9054906101000a900473ffffffffffffffffffffffffffffffffffffffff1681565b60011515600a5f9054906101000a900460ff1615151461170d576040517f08c379a000000000000000000000000000000000000000000000000000000000815260040161170490612c79565b60405180910390fd5b5f60045f9054906101000a900473ffffffffffffffffffffffffffffffffffffffff1673ffffffffffffffffffffffffffffffffffffffff166370a08231306040518263ffffffff1660e01b8152600401611768919061253a565b602060405180830381865afa158015611783573d5f803e3d5ffd5b505050506040513d601f19601f820116820180604052508101906117a79190612a92565b90505f81116117eb576040517f08c379a00000000000000000000000000000000000000000000000000000000081526004016117e290612b2d565b60405180910390fd5b5f5b5f8054905081101561184f576118425f828154811061180f5761180e612ef5565b5b905f5260205f2090600302015f015f9054906101000a900473ffffffffffffffffffffffffffffffffffffffff16611f22565b80806001019150506117ed565b50600b548110611bfb575f5b5f80549050811015611985575f818154811061187a57611879612ef5565b5b905f5260205f2090600302015f015f9054906101000a900473ffffffffffffffffffffffffffffffffffffffff1673ffffffffffffffffffffffffffffffffffffffff1663f242432a3060055f9054906101000a900473ffffffffffffffffffffffffffffffffffffffff165f85815481106118f9576118f8612ef5565b5b905f5260205f209060030201600101545f868154811061191c5761191b612ef5565b5b905f5260205f209060030201600201546040518563ffffffff1660e01b815260040161194b9493929190612f55565b5f604051808303815f87803b158015611962575f80fd5b505af1158015611974573d5f803e3d5ffd5b50505050808060010191505061185b565b5060045f9054906101000a900473ffffffffffffffffffffffffffffffffffffffff1673ffffffffffffffffffffffffffffffffffffffff1663a9059cbb60065f9054906101000a900473ffffffffffffffffffffffffffffffffffffffff16600b546040518363ffffffff1660e01b8152600401611a05929190612b4b565b6020604051808303815f875af1158015611a21573d5f803e3d5ffd5b505050506040513d601f19601f82011682018060405250810190611a459190612b9c565b611a84576040517f08c379a0000000000000000000000000000000000000000000000000000000008152600401611a7b9061391c565b60405180910390fd5b600b54811115611b9d575f600b5482611a9d919061393a565b905060045f9054906101000a900473ffffffffffffffffffffffffffffffffffffffff1673ffffffffffffffffffffffffffffffffffffffff1663a9059cbb60055f9054906101000a900473ffffffffffffffffffffffffffffffffffffffff16836040518363ffffffff1660e01b8152600401611b1c929190612b4b565b6020604051808303815f875af1158015611b38573d5f803e3d5ffd5b505050506040513d601f19601f82011682018060405250810190611b5c9190612b9c565b611b9b576040517f08c379a0000000000000000000000000000000000000000000000000000000008152600401611b92906139dd565b60405180910390fd5b505b7f9a7851747cd7ffb3fe0a32caf3da48b31f27cebe131267051640f8b72fc47186600b54604051611bce9190612521565b60405180910390a15f600b819055505f600a5f6101000a81548160ff021916908315150217905550611d43565b80600b54611c09919061393a565b600b8190555060045f9054906101000a900473ffffffffffffffffffffffffffffffffffffffff1673ffffffffffffffffffffffffffffffffffffffff1663a9059cbb60065f9054906101000a900473ffffffffffffffffffffffffffffffffffffffff16836040518363ffffffff1660e01b8152600401611c8c929190612b4b565b6020604051808303815f875af1158015611ca8573d5f803e3d5ffd5b505050506040513d601f19601f82011682018060405250810190611ccc9190612b9c565b611d0b576040517f08c379a0000000000000000000000000000000000000000000000000000000008152600401611d0290613a6b565b60405180910390fd5b7f488e627f46a2be23a969b9c0c9031a69d21d66c7cf5b6df1d71b7257f9bdee6881604051611d3a9190612521565b60405180910390a15b50565b5f63f23a6e6160e01b905095945050505050565b5f7f01ffc9a7000000000000000000000000000000000000000000000000000000007bffffffffffffffffffffffffffffffffffffffffffffffffffffffff1916827bffffffffffffffffffffffffffffffffffffffffffffffffffffffff1916149050919050565b5f80611dcd61204f565b90508091505090565b60605f6001611de484612078565b0190505f8167ffffffffffffffff811115611e0257611e01612698565b5b6040519080825280601f01601f191660200182016040528015611e345781602001600182028036833780820191505090505b5090505f82602001820190505b600115611e95578080600190039150507f3031323334353637383961626364656600000000000000000000000000000000600a86061a8153600a8581611e8a57611e8961374f565b5b0494505f8503611e41575b819350505050919050565b611f1c848573ffffffffffffffffffffffffffffffffffffffff166323b872dd868686604051602401611ed593929190613a89565b604051602081830303815290604052915060e01b6020820180517bffffffffffffffffffffffffffffffffffffffffffffffffffffffff83818316178352505050506121c9565b50505050565b5f60045f9054906101000a900473ffffffffffffffffffffffffffffffffffffffff1673ffffffffffffffffffffffffffffffffffffffff166370a08231836040518263ffffffff1660e01b8152600401611f7d919061253a565b602060405180830381865afa158015611f98573d5f803e3d5ffd5b505050506040513d601f19601f82011682018060405250810190611fbc9190612a92565b111561204c578073ffffffffffffffffffffffffffffffffffffffff16635f8ba9613060045f9054906101000a900473ffffffffffffffffffffffffffffffffffffffff166040518363ffffffff1660e01b815260040161201e929190613abe565b5f604051808303815f87803b158015612035575f80fd5b505af1158015612047573d5f803e3d5ffd5b505050505b50565b5f7ff0c57e16840df040f15088dc2f81fe391c3923bec73e23a9662efc9c229c6a005f1b905090565b5f805f90507a184f03e93ff9f4daa797ed6e38ed64bf6a1f01000000000000000083106120d4577a184f03e93ff9f4daa797ed6e38ed64bf6a1f01000000000000000083816120ca576120c961374f565b5b0492506040810190505b6d04ee2d6d415b85acef81000000008310612111576d04ee2d6d415b85acef810000000083816121075761210661374f565b5b0492506020810190505b662386f26fc10000831061214057662386f26fc1000083816121365761213561374f565b5b0492506010810190505b6305f5e1008310612169576305f5e100838161215f5761215e61374f565b5b0492506008810190505b612710831061218e5761271083816121845761218361374f565b5b0492506004810190505b606483106121b157606483816121a7576121a661374f565b5b0492506002810190505b600a83106121c0576001810190505b80915050919050565b5f8060205f8451602086015f885af1806121e8576040513d5f823e3d81fd5b3d92505f519150505f821461220157600181141561221c565b5f8473ffffffffffffffffffffffffffffffffffffffff163b145b1561225e57836040517f5274afe7000000000000000000000000000000000000000000000000000000008152600401612255919061253a565b60405180910390fd5b50505050565b5080545f8255600302905f5260205f20908101906122829190612285565b50565b5b808211156122cb575f8082015f6101000a81549073ffffffffffffffffffffffffffffffffffffffff0219169055600182015f9055600282015f905550600301612286565b5090565b5f604051905090565b5f80fd5b5f80fd5b5f7fffffffff0000000000000000000000000000000000000000000000000000000082169050919050565b612314816122e0565b811461231e575f80fd5b50565b5f8135905061232f8161230b565b92915050565b5f6020828403121561234a576123496122d8565b5b5f61235784828501612321565b91505092915050565b5f8115159050919050565b61237481612360565b82525050565b5f60208201905061238d5f83018461236b565b92915050565b5f819050919050565b6123a581612393565b81146123af575f80fd5b50565b5f813590506123c08161239c565b92915050565b5f602082840312156123db576123da6122d8565b5b5f6123e8848285016123b2565b91505092915050565b5f73ffffffffffffffffffffffffffffffffffffffff82169050919050565b5f819050919050565b5f61243361242e612429846123f1565b612410565b6123f1565b9050919050565b5f61244482612419565b9050919050565b5f6124558261243a565b9050919050565b6124658161244b565b82525050565b5f60208201905061247e5f83018461245c565b92915050565b5f61248e826123f1565b9050919050565b61249e81612484565b82525050565b6124ad81612393565b82525050565b5f6060820190506124c65f830186612495565b6124d360208301856124a4565b6124e060408301846124a4565b949350505050565b5f6124f28261243a565b9050919050565b612502816124e8565b82525050565b5f60208201905061251b5f8301846124f9565b92915050565b5f6020820190506125345f8301846124a4565b92915050565b5f60208201905061254d5f830184612495565b92915050565b5f80fd5b5f80fd5b5f80fd5b5f8083601f84011261257457612573612553565b5b8235905067ffffffffffffffff81111561259157612590612557565b5b6020830191508360608202830111156125ad576125ac61255b565b5b9250929050565b6125bd81612484565b81146125c7575f80fd5b50565b5f813590506125d8816125b4565b92915050565b5f805f805f805f60c0888a0312156125f9576125f86122d8565b5b5f88013567ffffffffffffffff811115612616576126156122dc565b5b6126228a828b0161255f565b975097505060206126358a828b016125ca565b95505060406126468a828b016125ca565b94505060606126578a828b016123b2565b93505060806126688a828b016123b2565b92505060a06126798a828b016123b2565b91505092959891949750929550565b5f601f19601f8301169050919050565b7f4e487b71000000000000000000000000000000000000000000000000000000005f52604160045260245ffd5b6126ce82612688565b810181811067ffffffffffffffff821117156126ed576126ec612698565b5b80604052505050565b5f6126ff6122cf565b905061270b82826126c5565b919050565b5f67ffffffffffffffff82111561272a57612729612698565b5b602082029050602081019050919050565b5f61274d61274884612710565b6126f6565b905080838252602082019050602084028301858111156127705761276f61255b565b5b835b81811015612799578061278588826123b2565b845260208401935050602081019050612772565b5050509392505050565b5f82601f8301126127b7576127b6612553565b5b81356127c784826020860161273b565b91505092915050565b5f80fd5b5f67ffffffffffffffff8211156127ee576127ed612698565b5b6127f782612688565b9050602081019050919050565b828183375f83830152505050565b5f61282461281f846127d4565b6126f6565b9050828152602081018484840111156128405761283f6127d0565b5b61284b848285612804565b509392505050565b5f82601f83011261286757612866612553565b5b8135612877848260208601612812565b91505092915050565b5f805f805f60a08688031215612899576128986122d8565b5b5f6128a6888289016125ca565b95505060206128b7888289016125ca565b945050604086013567ffffffffffffffff8111156128d8576128d76122dc565b5b6128e4888289016127a3565b935050606086013567ffffffffffffffff811115612905576129046122dc565b5b612911888289016127a3565b925050608086013567ffffffffffffffff811115612932576129316122dc565b5b61293e88828901612853565b9150509295509295909350565b612954816122e0565b82525050565b5f60208201905061296d5f83018461294b565b92915050565b5f805f805f60a0868803121561298c5761298b6122d8565b5b5f612999888289016125ca565b95505060206129aa888289016125ca565b94505060406129bb888289016123b2565b93505060606129cc888289016123b2565b925050608086013567ffffffffffffffff8111156129ed576129ec6122dc565b5b6129f988828901612853565b9150509295509295909350565b5f82825260208201905092915050565b7f526f79616c74794c6f616e3a204c6f616e2069732061637469766500000000005f82015250565b5f612a4a601b83612a06565b9150612a5582612a16565b602082019050919050565b5f6020820190508181035f830152612a7781612a3e565b9050919050565b5f81519050612a8c8161239c565b92915050565b5f60208284031215612aa757612aa66122d8565b5b5f612ab484828501612a7e565b91505092915050565b7f526f79616c74794c6f616e3a204e6f207061796d656e7420746f6b656e20746f5f8201527f2070726f63657373000000000000000000000000000000000000000000000000602082015250565b5f612b17602883612a06565b9150612b2282612abd565b604082019050919050565b5f6020820190508181035f830152612b4481612b0b565b9050919050565b5f604082019050612b5e5f830185612495565b612b6b60208301846124a4565b9392505050565b612b7b81612360565b8114612b85575f80fd5b50565b5f81519050612b9681612b72565b92915050565b5f60208284031215612bb157612bb06122d8565b5b5f612bbe84828501612b88565b91505092915050565b7f526f79616c74794c6f616e3a205265636c61696d206661696c656400000000005f82015250565b5f612bfb601b83612a06565b9150612c0682612bc7565b602082019050919050565b5f6020820190508181035f830152612c2881612bef565b9050919050565b7f526f79616c74794c6f616e3a204c6f616e20697320696e6163746976650000005f82015250565b5f612c63601d83612a06565b9150612c6e82612c2f565b602082019050919050565b5f6020820190508181035f830152612c9081612c57565b9050919050565b7f526f79616c74794c6f616e3a204f6e6c7920626f72726f77657220616e64206c5f8201527f656e6465722063616e207365652072656d61696e696e6720746f74616c20647560208201527f6500000000000000000000000000000000000000000000000000000000000000604082015250565b5f612d17604183612a06565b9150612d2282612c97565b606082019050919050565b5f6020820190508181035f830152612d4481612d0b565b9050919050565b7f526f79616c74794c6f616e3a204c6f616e20697320616c7265616479206163745f8201527f6976650000000000000000000000000000000000000000000000000000000000602082015250565b5f612da5602383612a06565b9150612db082612d4b565b604082019050919050565b5f6020820190508181035f830152612dd281612d99565b9050919050565b7f526f79616c74794c6f616e3a204c6f616e206f66666572206973207265766f6b5f8201527f6564000000000000000000000000000000000000000000000000000000000000602082015250565b5f612e33602283612a06565b9150612e3e82612dd9565b604082019050919050565b5f6020820190508181035f830152612e6081612e27565b9050919050565b7f526f79616c74794c6f616e3a204f6e6c7920626f72726f7765722063616e20725f8201527f65766f6b6520746865206c6f616e000000000000000000000000000000000000602082015250565b5f612ec1602e83612a06565b9150612ecc82612e67565b604082019050919050565b5f6020820190508181035f830152612eee81612eb5565b9050919050565b7f4e487b71000000000000000000000000000000000000000000000000000000005f52603260045260245ffd5b5f82825260208201905092915050565b50565b5f612f405f83612f22565b9150612f4b82612f32565b5f82019050919050565b5f60a082019050612f685f830187612495565b612f756020830186612495565b612f8260408301856124a4565b612f8f60608301846124a4565b8181036080830152612fa081612f35565b905095945050505050565b7f526f79616c74794c6f616e3a2055534443207472616e73666572206661696c655f8201527f6400000000000000000000000000000000000000000000000000000000000000602082015250565b5f613005602183612a06565b915061301082612fab565b604082019050919050565b5f6020820190508181035f83015261303281612ff9565b9050919050565b5f6020828403121561304e5761304d6122d8565b5b5f61305b848285016125ca565b91505092915050565b5f81905092915050565b7f526f79616c74794c6f616e3a20496e76616c696420636f6c6c61746572616c205f8201527f746f6b656e206164647265737320617420706f736974696f6e20000000000000602082015250565b5f6130c8603a83613064565b91506130d38261306e565b603a82019050919050565b5f81519050919050565b5f5b838110156131055780820151818401526020810190506130ea565b5f8484015250505050565b5f61311a826130de565b6131248185613064565b93506131348185602086016130e8565b80840191505092915050565b5f61314a826130bc565b91506131568284613110565b915081905092915050565b5f61316b826130de565b6131758185612a06565b93506131858185602086016130e8565b61318e81612688565b840191505092915050565b5f6020820190508181035f8301526131b18184613161565b905092915050565b7f526f79616c74794c6f616e3a20436f6c6c61746572616c20616d6f756e74206d5f8201527f7573742062652067726561746572207468616e203020617420706f736974696f60208201527f6e20000000000000000000000000000000000000000000000000000000000000604082015250565b5f613239604283613064565b9150613244826131b9565b604282019050919050565b5f6132598261322d565b91506132658284613110565b915081905092915050565b7f526f79616c74794c6f616e3a20436f6c6c61746572616c20776173206e6f74205f8201527f7472616e7366657272656420696e2074686520726571756972656420616d6f7560208201527f6e7420617420706f736974696f6e200000000000000000000000000000000000604082015250565b5f6132f0604f83613064565b91506132fb82613270565b604f82019050919050565b5f613310826132e4565b915061331c8284613110565b915081905092915050565b7f526f79616c74794c6f616e3a204c6f616e20616d6f756e74206d7573742062655f8201527f2067726561746572207468616e20300000000000000000000000000000000000602082015250565b5f613381602f83612a06565b915061338c82613327565b604082019050919050565b5f6020820190508181035f8301526133ae81613375565b9050919050565b7f526f79616c74794c6f616e3a2046656550706d206578636565647320313030255f82015250565b5f6133e9602083612a06565b91506133f4826133b5565b602082019050919050565b5f6020820190508181035f830152613416816133dd565b9050919050565b7f526f79616c74794c6f616e3a20496e76616c6964207061796d656e7420746f6b5f8201527f656e206164647265737300000000000000000000000000000000000000000000602082015250565b5f613477602a83612a06565b91506134828261341d565b604082019050919050565b5f6020820190508181035f8301526134a48161346b565b9050919050565b7f526f79616c74794c6f616e3a204475726174696f6e206d7573742062652067725f8201527f6561746572207468616e20300000000000000000000000000000000000000000602082015250565b5f613505602c83612a06565b9150613510826134ab565b604082019050919050565b5f6020820190508181035f830152613532816134f9565b9050919050565b5f8135613545816125b4565b80915050919050565b5f815f1b9050919050565b5f73ffffffffffffffffffffffffffffffffffffffff6135788461354e565b9350801983169250808416831791505092915050565b5f6135988261243a565b9050919050565b5f819050919050565b6135b18261358e565b6135c46135bd8261359f565b8354613559565b8255505050565b5f81356135d78161239c565b80915050919050565b5f7fffffffffffffffffffffffffffffffffffffffffffffffffffffffffffffffff61360b8461354e565b9350801983169250808416831791505092915050565b5f61363b61363661363184612393565b612410565b612393565b9050919050565b5f819050919050565b61365482613621565b61366761366082613642565b83546135e0565b8255505050565b5f81015f83018061367e81613539565b905061368a81846135a8565b50505060018101602083018061369f816135cb565b90506136ab818461364b565b5050506002810160408301806136c0816135cb565b90506136cc818461364b565b5050505050565b6136dd828261366e565b5050565b7f4e487b71000000000000000000000000000000000000000000000000000000005f52601160045260245ffd5b5f61371882612393565b915061372383612393565b925082820261373181612393565b91508282048414831517613748576137476136e1565b5b5092915050565b7f4e487b71000000000000000000000000000000000000000000000000000000005f52601260045260245ffd5b5f61378682612393565b915061379183612393565b9250826137a1576137a061374f565b5b828204905092915050565b5f6137b682612393565b91506137c183612393565b92508282019050808211156137d9576137d86136e1565b5b92915050565b5f819050919050565b5f67ffffffffffffffff82169050919050565b5f61381561381061380b846137df565b612410565b6137e8565b9050919050565b613825816137fb565b82525050565b5f60208201905061383e5f83018461381c565b92915050565b7f526f79616c74794c6f616e3a204c6f616e206f666665722065787069726564005f82015250565b5f613878601f83612a06565b915061388382613844565b602082019050919050565b5f6020820190508181035f8301526138a58161386c565b9050919050565b7f526f79616c74794c6f616e3a204475652055534443207472616e7366657220665f8201527f61696c6564000000000000000000000000000000000000000000000000000000602082015250565b5f613906602583612a06565b9150613911826138ac565b604082019050919050565b5f6020820190508181035f830152613933816138fa565b9050919050565b5f61394482612393565b915061394f83612393565b9250828203905081811115613967576139666136e1565b5b92915050565b7f526f79616c74794c6f616e3a204578636573732055534443207472616e7366655f8201527f72206661696c6564000000000000000000000000000000000000000000000000602082015250565b5f6139c7602883612a06565b91506139d28261396d565b604082019050919050565b5f6020820190508181035f8301526139f4816139bb565b9050919050565b7f526f79616c74794c6f616e3a205061727469616c2055534443207472616e73665f8201527f6572206661696c65640000000000000000000000000000000000000000000000602082015250565b5f613a55602983612a06565b9150613a60826139fb565b604082019050919050565b5f6020820190508181035f830152613a8281613a49565b9050919050565b5f606082019050613a9c5f830186612495565b613aa96020830185612495565b613ab660408301846124a4565b949350505050565b5f604082019050613ad15f830185612495565b613ade6020830184612495565b939250505056fea26469706673582212203b353bbc5fa6968ab9b012594ddf2079b5172224765c0db3587d3d2efbac627364736f6c63430008180033",
  "linkReferences": {},
  "deployedLinkReferences": {}
}