{
  "_format": "hh-sol-artifact-1",
  "contractName": "RoyaltyAdvanceFactory",
  "sourceName": "contracts/Advances/RoyaltyAdvanceFactory.sol",
  "abi": [
    {
      "inputs": [],
      "stateMutability": "nonpayable",
      "type": "constructor"
    },
    {
      "inputs": [
        {
          "internalType": "address",
          "name": "target",
          "type": "address"
        }
      ],
      "name": "AddressEmptyCode",
      "type": "error"
    },
    {
      "inputs": [
        {
          "internalType": "address",
          "name": "collateralAddress",
          "type": "address"
        }
      ],
      "name": "CollateralNotERC1155",
      "type": "error"
    },
    {
      "inputs": [
        {
          "internalType": "address",
          "name": "collateralAddress",
          "type": "address"
        }
      ],
      "name": "CollateralNotRegistered",
      "type": "error"
    },
    {
      "inputs": [
        {
          "internalType": "address",
          "name": "implementation",
          "type": "address"
        }
      ],
      "name": "ERC1967InvalidImplementation",
      "type": "error"
    },
    {
      "inputs": [],
      "name": "ERC1967NonPayable",
      "type": "error"
    },
    {
      "inputs": [],
      "name": "FailedCall",
      "type": "error"
    },
    {
      "inputs": [],
      "name": "FailedDeployment",
      "type": "error"
    },
    {
      "inputs": [
        {
          "internalType": "uint256",
          "name": "balance",
          "type": "uint256"
        },
        {
          "internalType": "uint256",
          "name": "needed",
          "type": "uint256"
        }
      ],
      "name": "InsufficientBalance",
      "type": "error"
    },
    {
      "inputs": [],
      "name": "InvalidInitialization",
      "type": "error"
    },
    {
      "inputs": [],
      "name": "NotAgreementFactory",
      "type": "error"
    },
    {
      "inputs": [],
      "name": "NotInitializing",
      "type": "error"
    },
    {
      "inputs": [
        {
          "internalType": "address",
          "name": "owner",
          "type": "address"
        }
      ],
      "name": "OwnableInvalidOwner",
      "type": "error"
    },
    {
      "inputs": [
        {
          "internalType": "address",
          "name": "account",
          "type": "address"
        }
      ],
      "name": "OwnableUnauthorizedAccount",
      "type": "error"
    },
    {
      "inputs": [],
      "name": "ReentrancyGuardReentrantCall",
      "type": "error"
    },
    {
      "inputs": [],
      "name": "TooManyCollaterals",
      "type": "error"
    },
    {
      "inputs": [],
      "name": "UUPSUnauthorizedCallContext",
      "type": "error"
    },
    {
      "inputs": [
        {
          "internalType": "bytes32",
          "name": "slot",
          "type": "bytes32"
        }
      ],
      "name": "UUPSUnsupportedProxiableUUID",
      "type": "error"
    },
    {
      "inputs": [],
      "name": "ZeroCollateralTokenAddress",
      "type": "error"
    },
    {
      "inputs": [],
      "name": "ZeroDuration",
      "type": "error"
    },
    {
      "inputs": [],
      "name": "ZeroMaxCollateralsPerAdvance",
      "type": "error"
    },
    {
      "inputs": [],
      "name": "ZeroPaymentTokenAddress",
      "type": "error"
    },
    {
      "inputs": [],
      "name": "ZeroTemplateAddress",
      "type": "error"
    },
    {
      "anonymous": false,
      "inputs": [
        {
          "indexed": false,
          "internalType": "address",
          "name": "advanceContract",
          "type": "address"
        },
        {
          "indexed": false,
          "internalType": "address",
          "name": "recipient",
          "type": "address"
        },
        {
          "indexed": false,
          "internalType": "address",
          "name": "collateralReceiver",
          "type": "address"
        },
        {
          "components": [
            {
              "internalType": "address",
              "name": "tokenAddress",
              "type": "address"
            },
            {
              "internalType": "uint256",
              "name": "tokenId",
              "type": "uint256"
            },
            {
              "internalType": "uint256",
              "name": "tokenAmount",
              "type": "uint256"
            }
          ],
          "indexed": false,
          "internalType": "struct ICollateral.Collateral[]",
          "name": "collaterals",
          "type": "tuple[]"
        },
        {
          "indexed": false,
          "internalType": "uint256",
          "name": "advanceAmount",
          "type": "uint256"
        },
        {
          "indexed": false,
          "internalType": "uint256",
          "name": "feePpm",
          "type": "uint256"
        },
        {
          "indexed": false,
          "internalType": "uint256",
          "name": "offerDuration",
          "type": "uint256"
        },
        {
          "indexed": false,
          "internalType": "address",
          "name": "paymentTokenAddress",
          "type": "address"
        },
        {
          "indexed": false,
          "internalType": "address",
          "name": "templateAddress",
          "type": "address"
        }
      ],
      "name": "AdvanceContractCreated",
      "type": "event"
    },
    {
      "anonymous": false,
      "inputs": [
        {
          "indexed": false,
          "internalType": "address",
          "name": "previousAgreementFactory",
          "type": "address"
        },
        {
          "indexed": false,
          "internalType": "address",
          "name": "newAgreementFactory",
          "type": "address"
        }
      ],
      "name": "AgreementFactoryChanged",
      "type": "event"
    },
    {
      "anonymous": false,
      "inputs": [
        {
          "indexed": false,
          "internalType": "uint64",
          "name": "version",
          "type": "uint64"
        }
      ],
      "name": "Initialized",
      "type": "event"
    },
    {
      "anonymous": false,
      "inputs": [
        {
          "indexed": false,
          "internalType": "uint256",
          "name": "previousMaxCollateralsPerAdvance",
          "type": "uint256"
        },
        {
          "indexed": false,
          "internalType": "uint256",
          "name": "newMaxCollateralsPerAdvance",
          "type": "uint256"
        }
      ],
      "name": "MaxCollateralsPerAdvanceChanged",
      "type": "event"
    },
    {
      "anonymous": false,
      "inputs": [
        {
          "indexed": false,
          "internalType": "uint256",
          "name": "previousOfferDuration",
          "type": "uint256"
        },
        {
          "indexed": false,
          "internalType": "uint256",
          "name": "newOfferDuration",
          "type": "uint256"
        }
      ],
      "name": "OfferDurationChanged",
      "type": "event"
    },
    {
      "anonymous": false,
      "inputs": [
        {
          "indexed": true,
          "internalType": "address",
          "name": "previousOwner",
          "type": "address"
        },
        {
          "indexed": true,
          "internalType": "address",
          "name": "newOwner",
          "type": "address"
        }
      ],
      "name": "OwnershipTransferred",
      "type": "event"
    },
    {
      "anonymous": false,
      "inputs": [
        {
          "indexed": false,
          "internalType": "address",
          "name": "previousPaymentToken",
          "type": "address"
        },
        {
          "indexed": false,
          "internalType": "address",
          "name": "newPaymentToken",
          "type": "address"
        }
      ],
      "name": "PaymentTokenChanged",
      "type": "event"
    },
    {
      "anonymous": false,
      "inputs": [
        {
          "indexed": false,
          "internalType": "address",
          "name": "previousAddress",
          "type": "address"
        },
        {
          "indexed": false,
          "internalType": "address",
          "name": "newAddress",
          "type": "address"
        }
      ],
      "name": "TemplateChanged",
      "type": "event"
    },
    {
      "anonymous": false,
      "inputs": [
        {
          "indexed": true,
          "internalType": "address",
          "name": "implementation",
          "type": "address"
        }
      ],
      "name": "Upgraded",
      "type": "event"
    },
    {
      "inputs": [],
      "name": "UPGRADE_INTERFACE_VERSION",
      "outputs": [
        {
          "internalType": "string",
          "name": "",
          "type": "string"
        }
      ],
      "stateMutability": "view",
      "type": "function"
    },
    {
      "inputs": [],
      "name": "agreementFactoryAddress",
      "outputs": [
        {
          "internalType": "address",
          "name": "",
          "type": "address"
        }
      ],
      "stateMutability": "view",
      "type": "function"
    },
    {
      "inputs": [
        {
          "components": [
            {
              "internalType": "address",
              "name": "tokenAddress",
              "type": "address"
            },
            {
              "internalType": "uint256",
              "name": "tokenId",
              "type": "uint256"
            },
            {
              "internalType": "uint256",
              "name": "tokenAmount",
              "type": "uint256"
            }
          ],
          "internalType": "struct ICollateral.Collateral[]",
          "name": "collaterals",
          "type": "tuple[]"
        },
        {
          "internalType": "address",
          "name": "collateralReceiver",
          "type": "address"
        },
        {
          "internalType": "uint256",
          "name": "advanceAmount",
          "type": "uint256"
        },
        {
          "internalType": "uint256",
          "name": "feePpm",
          "type": "uint256"
        }
      ],
      "name": "createAdvanceContract",
      "outputs": [
        {
          "internalType": "address",
          "name": "",
          "type": "address"
        }
      ],
      "stateMutability": "nonpayable",
      "type": "function"
    },
    {
      "inputs": [
        {
          "internalType": "address",
          "name": "_templateAddress",
          "type": "address"
        },
        {
          "internalType": "address",
          "name": "_paymentTokenAddress",
          "type": "address"
        },
        {
          "internalType": "address",
          "name": "_agreementFactoryAddress",
          "type": "address"
        },
        {
          "internalType": "uint256",
          "name": "_offerDuration",
          "type": "uint256"
        },
        {
          "internalType": "uint256",
          "name": "_maxCollateralsPerAdvance",
          "type": "uint256"
        }
      ],
      "name": "initialize",
      "outputs": [],
      "stateMutability": "nonpayable",
      "type": "function"
    },
    {
      "inputs": [],
      "name": "maxCollateralsPerAdvance",
      "outputs": [
        {
          "internalType": "uint256",
          "name": "",
          "type": "uint256"
        }
      ],
      "stateMutability": "view",
      "type": "function"
    },
    {
      "inputs": [],
      "name": "offerDuration",
      "outputs": [
        {
          "internalType": "uint256",
          "name": "",
          "type": "uint256"
        }
      ],
      "stateMutability": "view",
      "type": "function"
    },
    {
      "inputs": [],
      "name": "owner",
      "outputs": [
        {
          "internalType": "address",
          "name": "",
          "type": "address"
        }
      ],
      "stateMutability": "view",
      "type": "function"
    },
    {
      "inputs": [],
      "name": "paymentTokenAddress",
      "outputs": [
        {
          "internalType": "address",
          "name": "",
          "type": "address"
        }
      ],
      "stateMutability": "view",
      "type": "function"
    },
    {
      "inputs": [],
      "name": "proxiableUUID",
      "outputs": [
        {
          "internalType": "bytes32",
          "name": "",
          "type": "bytes32"
        }
      ],
      "stateMutability": "view",
      "type": "function"
    },
    {
      "inputs": [],
      "name": "renounceOwnership",
      "outputs": [],
      "stateMutability": "nonpayable",
      "type": "function"
    },
    {
      "inputs": [
        {
          "internalType": "address",
          "name": "_agreementFactoryAddress",
          "type": "address"
        }
      ],
      "name": "setAgreementFactoryAddress",
      "outputs": [],
      "stateMutability": "nonpayable",
      "type": "function"
    },
    {
      "inputs": [
        {
          "internalType": "uint256",
          "name": "_maxCollateralsPerAdvance",
          "type": "uint256"
        }
      ],
      "name": "setMaxCollateralsPerAdvance",
      "outputs": [],
      "stateMutability": "nonpayable",
      "type": "function"
    },
    {
      "inputs": [
        {
          "internalType": "uint256",
          "name": "_duration",
          "type": "uint256"
        }
      ],
      "name": "setOfferDuration",
      "outputs": [],
      "stateMutability": "nonpayable",
      "type": "function"
    },
    {
      "inputs": [
        {
          "internalType": "address",
          "name": "_paymentTokenAddress",
          "type": "address"
        }
      ],
      "name": "setPaymentTokenAddress",
      "outputs": [],
      "stateMutability": "nonpayable",
      "type": "function"
    },
    {
      "inputs": [
        {
          "internalType": "address",
          "name": "_templateAddress",
          "type": "address"
        }
      ],
      "name": "setTemplateAddress",
      "outputs": [],
      "stateMutability": "nonpayable",
      "type": "function"
    },
    {
      "inputs": [],
      "name": "templateAddress",
      "outputs": [
        {
          "internalType": "address",
          "name": "",
          "type": "address"
        }
      ],
      "stateMutability": "view",
      "type": "function"
    },
    {
      "inputs": [
        {
          "internalType": "address",
          "name": "newOwner",
          "type": "address"
        }
      ],
      "name": "transferOwnership",
      "outputs": [],
      "stateMutability": "nonpayable",
      "type": "function"
    },
    {
      "inputs": [
        {
          "internalType": "address",
          "name": "newImplementation",
          "type": "address"
        },
        {
          "internalType": "bytes",
          "name": "data",
          "type": "bytes"
        }
      ],
      "name": "upgradeToAndCall",
      "outputs": [],
      "stateMutability": "payable",
      "type": "function"
    }
  ],
  "bytecode": "0x60a06040523060805234801561001457600080fd5b5061001d610022565b6100d4565b7ff0c57e16840df040f15088dc2f81fe391c3923bec73e23a9662efc9c229c6a00805468010000000000000000900460ff16156100725760405163f92ee8a960e01b815260040160405180910390fd5b80546001600160401b03908116146100d15780546001600160401b0319166001600160401b0390811782556040519081527fc7f505b2f371ae2175ee4913f4499e1f2633a7b5936321eed1cdaeb6115181d29060200160405180910390a15b50565b608051611b126100fd600039600081816109fb01528181610a240152610bd90152611b126000f3fe6080604052600436106101295760003560e01c8063a6b63eb8116100a5578063bd62869a11610074578063f2fde38b11610059578063f2fde38b14610361578063f78eddbc14610381578063fcf549c0146103a157600080fd5b8063bd62869a1461032b578063dcb98f7e1461034157600080fd5b8063a6b63eb814610275578063ad3cb1cc14610295578063afb18fe7146102eb578063b96285411461030b57600080fd5b806352d1902d116100fc578063715018a6116100e1578063715018a61461020357806374eb1ddd146102185780638da5cb5b1461023857600080fd5b806352d1902d146101c05780635512d3ea146101e357600080fd5b80630c5a6f2f1461012e5780631378b62e1461016b57806347c6787e1461018d5780634f1ef286146101ad575b600080fd5b34801561013a57600080fd5b5060035461014e906001600160a01b031681565b6040516001600160a01b0390911681526020015b60405180910390f35b34801561017757600080fd5b5061018b6101863660046116a0565b6103b7565b005b34801561019957600080fd5b5060015461014e906001600160a01b031681565b61018b6101bb366004611704565b6103cb565b3480156101cc57600080fd5b506101d56103ea565b604051908152602001610162565b3480156101ef57600080fd5b5061018b6101fe3660046116a0565b610419565b34801561020f57600080fd5b5061018b61042a565b34801561022457600080fd5b5061018b6102333660046117cf565b61043e565b34801561024457600080fd5b507f9016d09d72d40fdae2fd8ceac6b6234c7706214fd39c1cd1e609a0528c199300546001600160a01b031661014e565b34801561028157600080fd5b5061018b6102903660046117ea565b61044f565b3480156102a157600080fd5b506102de6040518060400160405280600581526020017f352e302e3000000000000000000000000000000000000000000000000000000081525081565b6040516101629190611863565b3480156102f757600080fd5b5060005461014e906001600160a01b031681565b34801561031757600080fd5b5061018b6103263660046117cf565b6105c8565b34801561033757600080fd5b506101d560025481565b34801561034d57600080fd5b5061018b61035c3660046117cf565b6105d9565b34801561036d57600080fd5b5061018b61037c3660046117cf565b6105ea565b34801561038d57600080fd5b5061014e61039c366004611896565b610643565b3480156103ad57600080fd5b506101d560045481565b6103bf6108fc565b6103c881610970565b50565b6103d36109f0565b6103dc82610ac0565b6103e68282610ac8565b5050565b60006103f4610bce565b507f360894a13ba1a3210667c828492db98dca3e2076cc3735a920a3ca505d382bbc90565b6104216108fc565b6103c881610c30565b6104326108fc565b61043c6000610ca8565b565b6104466108fc565b6103c881610d26565b6000610459610dfb565b805490915060ff68010000000000000000820416159067ffffffffffffffff166000811580156104865750825b905060008267ffffffffffffffff1660011480156104a35750303b155b9050811580156104b1575080155b156104e8576040517ff92ee8a900000000000000000000000000000000000000000000000000000000815260040160405180910390fd5b84547fffffffffffffffffffffffffffffffffffffffffffffffff0000000000000000166001178555831561053357845468ff00000000000000001916680100000000000000001785555b61053c8a610e26565b61054587610970565b61054e89610ecd565b61055788610d26565b61056086610c30565b610568610f74565b61057133610f84565b83156105bc57845468ff000000000000000019168555604051600181527fc7f505b2f371ae2175ee4913f4499e1f2633a7b5936321eed1cdaeb6115181d29060200160405180910390a15b50505050505050505050565b6105d06108fc565b6103c881610e26565b6105e16108fc565b6103c881610ecd565b6105f26108fc565b6001600160a01b03811661063a576040517f1e4fbdf7000000000000000000000000000000000000000000000000000000008152600060048201526024015b60405180910390fd5b6103c881610ca8565b600061064d610f95565b600454859081111561068b576040517f4e5888d700000000000000000000000000000000000000000000000000000000815260040160405180910390fd5b60005b818110156106ce576106c68888838181106106ab576106ab61192e565b6106c192602060609092020190810191506117cf565b611016565b60010161068e565b506003546000906106e7906001600160a01b0316611192565b905060005b828110156107c857368989838181106107075761070761192e565b60600291909101915061071f905060208201826117cf565b604080517ff242432a0000000000000000000000000000000000000000000000000000000081523360048201526001600160a01b0386811660248301526020850135604483015291840135606482015260a06084820152600060a482015291169063f242432a9060c401600060405180830381600087803b1580156107a357600080fd5b505af11580156107b7573d6000803e3d6000fd5b5050600190930192506106ec915050565b506000546002546040517f11f8a4ff0000000000000000000000000000000000000000000000000000000081526001600160a01b03808516936311f8a4ff93610822938e938e93169133918e918d918f91906004016119b8565b600060405180830381600087803b15801561083c57600080fd5b505af1158015610850573d6000803e3d6000fd5b505050507f5e882b308499b7548febbc026d823df000ed7dac5bf0cf42ff26e78382a7cfda8133888b8b8a8a60025460008054906101000a90046001600160a01b0316600360009054906101000a90046001600160a01b03166040516108bf9a99989796959493929190611a08565b60405180910390a19150506108f360017f9b779b17422d0df92223018b32b4d1fa46e071723d6817e2486d003becc55f0055565b95945050505050565b3361092e7f9016d09d72d40fdae2fd8ceac6b6234c7706214fd39c1cd1e609a0528c199300546001600160a01b031690565b6001600160a01b03161461043c576040517f118cdaa7000000000000000000000000000000000000000000000000000000008152336004820152602401610631565b806000036109aa576040517f68d5686e00000000000000000000000000000000000000000000000000000000815260040160405180910390fd5b600280549082905560408051828152602081018490527f0c70561463a299653d17821c251f5eba3844457b5d1b9fae5d7a1ed2b219c07591015b60405180910390a15050565b306001600160a01b037f0000000000000000000000000000000000000000000000000000000000000000161480610a8957507f00000000000000000000000000000000000000000000000000000000000000006001600160a01b0316610a7d7f360894a13ba1a3210667c828492db98dca3e2076cc3735a920a3ca505d382bbc546001600160a01b031690565b6001600160a01b031614155b1561043c576040517fe07c8dba00000000000000000000000000000000000000000000000000000000815260040160405180910390fd5b6103c86108fc565b816001600160a01b03166352d1902d6040518163ffffffff1660e01b8152600401602060405180830381865afa925050508015610b22575060408051601f3d908101601f19168201909252610b1f91810190611a85565b60015b610b63576040517f4c9c8ce30000000000000000000000000000000000000000000000000000000081526001600160a01b0383166004820152602401610631565b7f360894a13ba1a3210667c828492db98dca3e2076cc3735a920a3ca505d382bbc8114610bbf576040517faa1d49a400000000000000000000000000000000000000000000000000000000815260048101829052602401610631565b610bc983836111c5565b505050565b306001600160a01b037f0000000000000000000000000000000000000000000000000000000000000000161461043c576040517fe07c8dba00000000000000000000000000000000000000000000000000000000815260040160405180910390fd5b80600003610c6a576040517fd6a7475f00000000000000000000000000000000000000000000000000000000815260040160405180910390fd5b600480549082905560408051828152602081018490527f7a88cf6a81507632686f6f781ada1a4fd2cd7fc7ac9d81b20441563aa6a63bef91016109e4565b7f9016d09d72d40fdae2fd8ceac6b6234c7706214fd39c1cd1e609a0528c199300805473ffffffffffffffffffffffffffffffffffffffff1981166001600160a01b03848116918217845560405192169182907f8be0079c531659141344cd1fd0a4f28419497f9722a3daafe3b4186f6b6457e090600090a3505050565b610d596001600160a01b0382167f340b727c0000000000000000000000000000000000000000000000000000000061121b565b1515600003610d94576040517fa959f68500000000000000000000000000000000000000000000000000000000815260040160405180910390fd5b600180546001600160a01b0383811673ffffffffffffffffffffffffffffffffffffffff1983168117909355604080519190921680825260208201939093527faefc75eee4a7f1b3adac4c242e189d0372392a5cfbdb81718fd951bbcac0650d91016109e4565b6000807ff0c57e16840df040f15088dc2f81fe391c3923bec73e23a9662efc9c229c6a005b92915050565b6001600160a01b038116610e66576040517f18c2d90000000000000000000000000000000000000000000000000000000000815260040160405180910390fd5b600380546001600160a01b0383811673ffffffffffffffffffffffffffffffffffffffff1983168117909355604080519190921680825260208201939093527f2b12be9fa6bedeff30cb15ba65624af638a4ba58bf9445d9e29fa9abeb10c4da91016109e4565b6001600160a01b038116610f0d576040517f5ebf731600000000000000000000000000000000000000000000000000000000815260040160405180910390fd5b600080546001600160a01b0383811673ffffffffffffffffffffffffffffffffffffffff1983168117909355604080519190921680825260208201939093527f2bd8c5354233e1142193df7977bd89f7ad57b724087278bad86db1e15fc3033b91016109e4565b610f7c61123e565b61043c61127c565b610f8c61123e565b6103c881611284565b7f9b779b17422d0df92223018b32b4d1fa46e071723d6817e2486d003becc55f0080547ffffffffffffffffffffffffffffffffffffffffffffffffffffffffffffffffe01611010576040517f3ee5aeb500000000000000000000000000000000000000000000000000000000815260040160405180910390fd5b60029055565b6001600160a01b038116611056576040517fe0e23abe00000000000000000000000000000000000000000000000000000000815260040160405180910390fd5b6110896001600160a01b0382167fd9b67a260000000000000000000000000000000000000000000000000000000061121b565b6110ca576040517fc7f466630000000000000000000000000000000000000000000000000000000081526001600160a01b0382166004820152602401610631565b6001546040517f340b727c0000000000000000000000000000000000000000000000000000000081526001600160a01b0383811660048301529091169063340b727c90602401602060405180830381865afa15801561112d573d6000803e3d6000fd5b505050506040513d601f19601f820116820180604052508101906111519190611a9e565b6103c8576040517f79d1f8120000000000000000000000000000000000000000000000000000000081526001600160a01b0382166004820152602401610631565b6000610e2082600061128c565b60017f9b779b17422d0df92223018b32b4d1fa46e071723d6817e2486d003becc55f0055565b6111ce82611354565b6040516001600160a01b038316907fbc7cd75a20ee27fd9adebab32041f755214dbc6bffa90cc0225b39da2e5c2d3b90600090a280511561121357610bc982826113f1565b6103e661145e565b600061122683611496565b8015611237575061123783836114fa565b9392505050565b6112466115ca565b61043c576040517fd7e6bcf800000000000000000000000000000000000000000000000000000000815260040160405180910390fd5b61119f61123e565b6105f261123e565b6000814710156112d1576040517fcf47918100000000000000000000000000000000000000000000000000000000815247600482015260248101839052604401610631565b763d602d80600a3d3981f3363d3d373d3d3d363d730000008360601b60e81c176000526e5af43d82803e903d91602b57fd5bf38360781b176020526037600983f090506001600160a01b038116610e20576040517fb06ebf3d00000000000000000000000000000000000000000000000000000000815260040160405180910390fd5b806001600160a01b03163b6000036113a3576040517f4c9c8ce30000000000000000000000000000000000000000000000000000000081526001600160a01b0382166004820152602401610631565b7f360894a13ba1a3210667c828492db98dca3e2076cc3735a920a3ca505d382bbc805473ffffffffffffffffffffffffffffffffffffffff19166001600160a01b0392909216919091179055565b6060600080846001600160a01b03168460405161140e9190611ac0565b600060405180830381855af49150503d8060008114611449576040519150601f19603f3d011682016040523d82523d6000602084013e61144e565b606091505b50915091506108f38583836115e9565b341561043c576040517fb398979f00000000000000000000000000000000000000000000000000000000815260040160405180910390fd5b60006114c2827f01ffc9a7000000000000000000000000000000000000000000000000000000006114fa565b8015610e2057506114f3827fffffffff000000000000000000000000000000000000000000000000000000006114fa565b1592915050565b6040517fffffffff0000000000000000000000000000000000000000000000000000000082166024820152600090819060440160408051601f19818403018152919052602080820180517bffffffffffffffffffffffffffffffffffffffffffffffffffffffff167f01ffc9a700000000000000000000000000000000000000000000000000000000178152825192935060009283928392909183918a617530fa92503d915060005190508280156115b3575060208210155b80156115bf5750600081115b979650505050505050565b60006115d4610dfb565b5468010000000000000000900460ff16919050565b6060826115fe576115f98261165e565b611237565b815115801561161557506001600160a01b0384163b155b15611657576040517f9996b3150000000000000000000000000000000000000000000000000000000081526001600160a01b0385166004820152602401610631565b5092915050565b80511561166e5780518082602001fd5b6040517fd6bda27500000000000000000000000000000000000000000000000000000000815260040160405180910390fd5b6000602082840312156116b257600080fd5b5035919050565b80356001600160a01b03811681146116d057600080fd5b919050565b7f4e487b7100000000000000000000000000000000000000000000000000000000600052604160045260246000fd5b6000806040838503121561171757600080fd5b611720836116b9565b9150602083013567ffffffffffffffff81111561173c57600080fd5b8301601f8101851361174d57600080fd5b803567ffffffffffffffff811115611767576117676116d5565b604051601f19603f601f19601f8501160116810181811067ffffffffffffffff82111715611797576117976116d5565b6040528181528282016020018710156117af57600080fd5b816020840160208301376000602083830101528093505050509250929050565b6000602082840312156117e157600080fd5b611237826116b9565b600080600080600060a0868803121561180257600080fd5b61180b866116b9565b9450611819602087016116b9565b9350611827604087016116b9565b94979396509394606081013594506080013592915050565b60005b8381101561185a578181015183820152602001611842565b50506000910152565b602081526000825180602084015261188281604085016020870161183f565b601f01601f19169190910160400192915050565b6000806000806000608086880312156118ae57600080fd5b853567ffffffffffffffff8111156118c557600080fd5b8601601f810188136118d657600080fd5b803567ffffffffffffffff8111156118ed57600080fd5b88602060608302840101111561190257600080fd5b6020918201965094506119169087016116b9565b94979396509394604081013594506060013592915050565b7f4e487b7100000000000000000000000000000000000000000000000000000000600052603260045260246000fd5b81835260208301925060008160005b848110156119ae576001600160a01b03611985836116b9565b16865260208281013590870152604080830135908701526060958601959091019060010161196c565b5093949350505050565b60e0815260006119cc60e083018a8c61195d565b6001600160a01b039889166020840152968816604083015250939095166060840152608083019190915260a082015260c0019190915292915050565b6001600160a01b038b1681526001600160a01b038a1660208201526001600160a01b038916604082015261012060608201526000611a4b6101208301898b61195d565b60808301979097525060a081019490945260c08401929092526001600160a01b0390811660e0840152166101009091015295945050505050565b600060208284031215611a9757600080fd5b5051919050565b600060208284031215611ab057600080fd5b8151801515811461123757600080fd5b60008251611ad281846020870161183f565b919091019291505056fea26469706673582212204cbad67b77fbe6cb67f1de00d444e6421efa6a05954f43522d30b60e12911fa464736f6c63430008200033",
  "linkReferences": {},
  "deployedLinkReferences": {}
}