{
  "_format": "hh-sol-artifact-1",
  "contractName": "RoyaltyLoan",
  "sourceName": "contracts/Loans/RoyaltyLoan.sol",
  "abi": [
    {
      "inputs": [],
      "stateMutability": "nonpayable",
      "type": "constructor"
    },
    {
      "inputs": [],
      "name": "InvalidInitialization",
      "type": "error"
    },
    {
      "inputs": [],
      "name": "NotInitializing",
      "type": "error"
    },
    {
      "inputs": [
        {
          "internalType": "address",
          "name": "token",
          "type": "address"
        }
      ],
      "name": "SafeERC20FailedOperation",
      "type": "error"
    },
    {
      "anonymous": false,
      "inputs": [
        {
          "indexed": false,
          "internalType": "uint64",
          "name": "version",
          "type": "uint64"
        }
      ],
      "name": "Initialized",
      "type": "event"
    },
    {
      "anonymous": false,
      "inputs": [
        {
          "indexed": false,
          "internalType": "uint256",
          "name": "repaymentAmount",
          "type": "uint256"
        }
      ],
      "name": "LoanPartialyRepaid",
      "type": "event"
    },
    {
      "anonymous": false,
      "inputs": [
        {
          "indexed": false,
          "internalType": "address",
          "name": "lender",
          "type": "address"
        }
      ],
      "name": "LoanProvided",
      "type": "event"
    },
    {
      "anonymous": false,
      "inputs": [
        {
          "indexed": false,
          "internalType": "uint256",
          "name": "repaymentAmount",
          "type": "uint256"
        }
      ],
      "name": "LoanRepaid",
      "type": "event"
    },
    {
      "anonymous": false,
      "inputs": [],
      "name": "LoanRevoked",
      "type": "event"
    },
    {
      "inputs": [],
      "name": "borrower",
      "outputs": [
        {
          "internalType": "address",
          "name": "",
          "type": "address"
        }
      ],
      "stateMutability": "view",
      "type": "function"
    },
    {
      "inputs": [],
      "name": "collateralAmount",
      "outputs": [
        {
          "internalType": "uint256",
          "name": "",
          "type": "uint256"
        }
      ],
      "stateMutability": "view",
      "type": "function"
    },
    {
      "inputs": [],
      "name": "collateralToken",
      "outputs": [
        {
          "internalType": "contract IERC1155",
          "name": "",
          "type": "address"
        }
      ],
      "stateMutability": "view",
      "type": "function"
    },
    {
      "inputs": [],
      "name": "collateralTokenId",
      "outputs": [
        {
          "internalType": "uint256",
          "name": "",
          "type": "uint256"
        }
      ],
      "stateMutability": "view",
      "type": "function"
    },
    {
      "inputs": [],
      "name": "expirationDate",
      "outputs": [
        {
          "internalType": "uint256",
          "name": "",
          "type": "uint256"
        }
      ],
      "stateMutability": "view",
      "type": "function"
    },
    {
      "inputs": [],
      "name": "feePpm",
      "outputs": [
        {
          "internalType": "uint256",
          "name": "",
          "type": "uint256"
        }
      ],
      "stateMutability": "view",
      "type": "function"
    },
    {
      "inputs": [],
      "name": "getRemainingTotalDue",
      "outputs": [
        {
          "internalType": "uint256",
          "name": "",
          "type": "uint256"
        }
      ],
      "stateMutability": "view",
      "type": "function"
    },
    {
      "inputs": [
        {
          "internalType": "address",
          "name": "_collateralTokenAddress",
          "type": "address"
        },
        {
          "internalType": "uint256",
          "name": "_collateralTokenId",
          "type": "uint256"
        },
        {
          "internalType": "uint256",
          "name": "_collateralAmount",
          "type": "uint256"
        },
        {
          "internalType": "address",
          "name": "_paymentTokenAddress",
          "type": "address"
        },
        {
          "internalType": "address",
          "name": "_borrowerAddress",
          "type": "address"
        },
        {
          "internalType": "uint256",
          "name": "_feePpm",
          "type": "uint256"
        },
        {
          "internalType": "uint256",
          "name": "_loanAmount",
          "type": "uint256"
        },
        {
          "internalType": "uint256",
          "name": "_duration",
          "type": "uint256"
        }
      ],
      "name": "initialize",
      "outputs": [],
      "stateMutability": "nonpayable",
      "type": "function"
    },
    {
      "inputs": [],
      "name": "lender",
      "outputs": [
        {
          "internalType": "address",
          "name": "",
          "type": "address"
        }
      ],
      "stateMutability": "view",
      "type": "function"
    },
    {
      "inputs": [],
      "name": "loanActive",
      "outputs": [
        {
          "internalType": "bool",
          "name": "",
          "type": "bool"
        }
      ],
      "stateMutability": "view",
      "type": "function"
    },
    {
      "inputs": [],
      "name": "loanAmount",
      "outputs": [
        {
          "internalType": "uint256",
          "name": "",
          "type": "uint256"
        }
      ],
      "stateMutability": "view",
      "type": "function"
    },
    {
      "inputs": [],
      "name": "loanOfferActive",
      "outputs": [
        {
          "internalType": "bool",
          "name": "",
          "type": "bool"
        }
      ],
      "stateMutability": "view",
      "type": "function"
    },
    {
      "inputs": [
        {
          "internalType": "address",
          "name": "",
          "type": "address"
        },
        {
          "internalType": "address",
          "name": "",
          "type": "address"
        },
        {
          "internalType": "uint256[]",
          "name": "",
          "type": "uint256[]"
        },
        {
          "internalType": "uint256[]",
          "name": "",
          "type": "uint256[]"
        },
        {
          "internalType": "bytes",
          "name": "",
          "type": "bytes"
        }
      ],
      "name": "onERC1155BatchReceived",
      "outputs": [
        {
          "internalType": "bytes4",
          "name": "",
          "type": "bytes4"
        }
      ],
      "stateMutability": "nonpayable",
      "type": "function"
    },
    {
      "inputs": [
        {
          "internalType": "address",
          "name": "",
          "type": "address"
        },
        {
          "internalType": "address",
          "name": "",
          "type": "address"
        },
        {
          "internalType": "uint256",
          "name": "",
          "type": "uint256"
        },
        {
          "internalType": "uint256",
          "name": "",
          "type": "uint256"
        },
        {
          "internalType": "bytes",
          "name": "",
          "type": "bytes"
        }
      ],
      "name": "onERC1155Received",
      "outputs": [
        {
          "internalType": "bytes4",
          "name": "",
          "type": "bytes4"
        }
      ],
      "stateMutability": "nonpayable",
      "type": "function"
    },
    {
      "inputs": [],
      "name": "paymentToken",
      "outputs": [
        {
          "internalType": "contract IERC20",
          "name": "",
          "type": "address"
        }
      ],
      "stateMutability": "view",
      "type": "function"
    },
    {
      "inputs": [],
      "name": "processRepayment",
      "outputs": [],
      "stateMutability": "nonpayable",
      "type": "function"
    },
    {
      "inputs": [],
      "name": "provideLoan",
      "outputs": [],
      "stateMutability": "nonpayable",
      "type": "function"
    },
    {
      "inputs": [],
      "name": "reclaimExcessPaymentToken",
      "outputs": [],
      "stateMutability": "nonpayable",
      "type": "function"
    },
    {
      "inputs": [],
      "name": "revokeLoan",
      "outputs": [],
      "stateMutability": "nonpayable",
      "type": "function"
    },
    {
      "inputs": [
        {
          "internalType": "bytes4",
          "name": "interfaceId",
          "type": "bytes4"
        }
      ],
      "name": "supportsInterface",
      "outputs": [
        {
          "internalType": "bool",
          "name": "",
          "type": "bool"
        }
      ],
      "stateMutability": "view",
      "type": "function"
    }
  ],
  "bytecode": "0x60806040525f60095f6101000a81548160ff0219169083151502179055505f600960016101000a81548160ff02191690831515021790555034801562000043575f80fd5b50620000546200005a60201b60201c565b620001e1565b5f6200006b6200015e60201b60201c565b9050805f0160089054906101000a900460ff1615620000b6576040517ff92ee8a900000000000000000000000000000000000000000000000000000000815260040160405180910390fd5b67ffffffffffffffff8016815f015f9054906101000a900467ffffffffffffffff1667ffffffffffffffff16146200015b5767ffffffffffffffff815f015f6101000a81548167ffffffffffffffff021916908367ffffffffffffffff1602179055507fc7f505b2f371ae2175ee4913f4499e1f2633a7b5936321eed1cdaeb6115181d267ffffffffffffffff604051620001529190620001c6565b60405180910390a15b50565b5f80620001706200017960201b60201c565b90508091505090565b5f7ff0c57e16840df040f15088dc2f81fe391c3923bec73e23a9662efc9c229c6a005f1b905090565b5f67ffffffffffffffff82169050919050565b620001c081620001a2565b82525050565b5f602082019050620001db5f830184620001b5565b92915050565b612fc180620001ef5f395ff3fe608060405234801561000f575f80fd5b506004361061012a575f3560e01c806394598178116100ab578063bbfb20071161006f578063bbfb2007146102d8578063bc197c81146102e2578063bcead63e14610312578063c4fe0dc814610330578063f23a6e611461033a5761012a565b806394598178146102565780639980ff12146102605780639d585f7f1461027e578063a534150c1461029c578063b2016bd4146102ba5761012a565b80637df1f1b9116100f25780637df1f1b9146101c25780638979d014146101e05780638f620487146101fe5780638f7bcd041461021c57806392d09ceb146102385761012a565b806301ffc9a71461012e57806308ee4ef41461015e5780633013ce29146101685780633ec345b41461018657806348b75090146101a4575b5f80fd5b61014860048036038101906101439190611ba7565b61036a565b6040516101559190611bec565b60405180910390f35b6101666103e3565b005b610170610614565b60405161017d9190611c7f565b60405180910390f35b61018e610639565b60405161019b9190611cb0565b60405180910390f35b6101ac61077d565b6040516101b99190611bec565b60405180910390f35b6101ca61078f565b6040516101d79190611ce9565b60405180910390f35b6101e86107b4565b6040516101f59190611bec565b60405180910390f35b6102066107c7565b6040516102139190611cb0565b60405180910390f35b61023660048036038101906102319190611d56565b6107cd565b005b610240610d4a565b60405161024d9190611cb0565b60405180910390f35b61025e610d50565b005b610268611123565b6040516102759190611cb0565b60405180910390f35b610286611129565b6040516102939190611cb0565b60405180910390f35b6102a461112f565b6040516102b19190611cb0565b60405180910390f35b6102c2611135565b6040516102cf9190611e27565b60405180910390f35b6102e0611158565b005b6102fc60048036038101906102f79190612040565b611386565b604051610309919061211a565b60405180910390f35b61031a61139a565b6040516103279190611ce9565b60405180910390f35b6103386113bf565b005b610354600480360381019061034f9190612133565b61196b565b604051610361919061211a565b60405180910390f35b5f7f4e2312e0000000000000000000000000000000000000000000000000000000007bffffffffffffffffffffffffffffffffffffffffffffffffffffffff1916827bffffffffffffffffffffffffffffffffffffffffffffffffffffffff191614806103dc57506103db8261197f565b5b9050919050565b5f151560095f9054906101000a900460ff16151514610437576040517f08c379a000000000000000000000000000000000000000000000000000000000815260040161042e90612220565b60405180910390fd5b5f60035f9054906101000a900473ffffffffffffffffffffffffffffffffffffffff1673ffffffffffffffffffffffffffffffffffffffff166370a08231306040518263ffffffff1660e01b81526004016104929190611ce9565b602060405180830381865afa1580156104ad573d5f803e3d5ffd5b505050506040513d601f19601f820116820180604052508101906104d19190612252565b90505f8111610515576040517f08c379a000000000000000000000000000000000000000000000000000000000815260040161050c906122ed565b60405180910390fd5b60035f9054906101000a900473ffffffffffffffffffffffffffffffffffffffff1673ffffffffffffffffffffffffffffffffffffffff1663a9059cbb60045f9054906101000a900473ffffffffffffffffffffffffffffffffffffffff16836040518363ffffffff1660e01b815260040161059292919061230b565b6020604051808303815f875af11580156105ae573d5f803e3d5ffd5b505050506040513d601f19601f820116820180604052508101906105d2919061235c565b610611576040517f08c379a0000000000000000000000000000000000000000000000000000000008152600401610608906123d1565b60405180910390fd5b50565b60035f9054906101000a900473ffffffffffffffffffffffffffffffffffffffff1681565b5f6001151560095f9054906101000a900460ff1615151461068f576040517f08c379a000000000000000000000000000000000000000000000000000000000815260040161068690612439565b60405180910390fd5b60045f9054906101000a900473ffffffffffffffffffffffffffffffffffffffff1673ffffffffffffffffffffffffffffffffffffffff163373ffffffffffffffffffffffffffffffffffffffff161480610736575060055f9054906101000a900473ffffffffffffffffffffffffffffffffffffffff1673ffffffffffffffffffffffffffffffffffffffff163373ffffffffffffffffffffffffffffffffffffffff16145b610775576040517f08c379a000000000000000000000000000000000000000000000000000000000815260040161076c906124ed565b60405180910390fd5b600a54905090565b60095f9054906101000a900460ff1681565b60045f9054906101000a900473ffffffffffffffffffffffffffffffffffffffff1681565b600960019054906101000a900460ff1681565b60085481565b5f6107d66119e8565b90505f815f0160089054906101000a900460ff161590505f825f015f9054906101000a900467ffffffffffffffff1690505f808267ffffffffffffffff1614801561081e5750825b90505f60018367ffffffffffffffff1614801561085157505f3073ffffffffffffffffffffffffffffffffffffffff163b145b90508115801561085f575080155b15610896576040517ff92ee8a900000000000000000000000000000000000000000000000000000000815260040160405180910390fd5b6001855f015f6101000a81548167ffffffffffffffff021916908367ffffffffffffffff16021790555083156108e3576001855f0160086101000a81548160ff0219169083151502179055505b5f73ffffffffffffffffffffffffffffffffffffffff168d73ffffffffffffffffffffffffffffffffffffffff1603610951576040517f08c379a00000000000000000000000000000000000000000000000000000000081526004016109489061257b565b60405180910390fd5b5f8b11610993576040517f08c379a000000000000000000000000000000000000000000000000000000000815260040161098a90612609565b60405180910390fd5b5f87116109d5576040517f08c379a00000000000000000000000000000000000000000000000000000000081526004016109cc90612697565b60405180910390fd5b620f4240881115610a1b576040517f08c379a0000000000000000000000000000000000000000000000000000000008152600401610a12906126ff565b60405180910390fd5b5f73ffffffffffffffffffffffffffffffffffffffff168a73ffffffffffffffffffffffffffffffffffffffff1603610a89576040517f08c379a0000000000000000000000000000000000000000000000000000000008152600401610a809061278d565b60405180910390fd5b5f8611610acb576040517f08c379a0000000000000000000000000000000000000000000000000000000008152600401610ac29061281b565b60405180910390fd5b8c5f806101000a81548173ffffffffffffffffffffffffffffffffffffffff021916908373ffffffffffffffffffffffffffffffffffffffff1602179055508b6001819055508a6002819055506002545f8054906101000a900473ffffffffffffffffffffffffffffffffffffffff1673ffffffffffffffffffffffffffffffffffffffff1662fdd58e306001546040518363ffffffff1660e01b8152600401610b7692919061230b565b602060405180830381865afa158015610b91573d5f803e3d5ffd5b505050506040513d601f19601f82011682018060405250810190610bb59190612252565b14610bf5576040517f08c379a0000000000000000000000000000000000000000000000000000000008152600401610bec906128cf565b60405180910390fd5b8960035f6101000a81548173ffffffffffffffffffffffffffffffffffffffff021916908373ffffffffffffffffffffffffffffffffffffffff1602179055508860045f6101000a81548173ffffffffffffffffffffffffffffffffffffffff021916908373ffffffffffffffffffffffffffffffffffffffff1602179055508760068190555086600781905550620f4240600654600754610c97919061291a565b610ca19190612988565b600754610cae91906129b8565b600a819055508542610cc091906129b8565b6008819055506001600960016101000a81548160ff0219169083151502179055508315610d3b575f855f0160086101000a81548160ff0219169083151502179055507fc7f505b2f371ae2175ee4913f4499e1f2633a7b5936321eed1cdaeb6115181d26001604051610d329190612a37565b60405180910390a15b50505050505050505050505050565b60025481565b5f151560095f9054906101000a900460ff16151514610da4576040517f08c379a0000000000000000000000000000000000000000000000000000000008152600401610d9b90612ac0565b60405180910390fd5b60011515600960019054906101000a900460ff16151514610dfa576040517f08c379a0000000000000000000000000000000000000000000000000000000008152600401610df190612b4e565b60405180910390fd5b60045f9054906101000a900473ffffffffffffffffffffffffffffffffffffffff1673ffffffffffffffffffffffffffffffffffffffff163373ffffffffffffffffffffffffffffffffffffffff1614610e89576040517f08c379a0000000000000000000000000000000000000000000000000000000008152600401610e8090612bdc565b60405180910390fd5b5f8054906101000a900473ffffffffffffffffffffffffffffffffffffffff1673ffffffffffffffffffffffffffffffffffffffff1663f242432a3060045f9054906101000a900473ffffffffffffffffffffffffffffffffffffffff166001546002546040518563ffffffff1660e01b8152600401610f0c9493929190612c2d565b5f604051808303815f87803b158015610f23575f80fd5b505af1158015610f35573d5f803e3d5ffd5b505050505f60035f9054906101000a900473ffffffffffffffffffffffffffffffffffffffff1673ffffffffffffffffffffffffffffffffffffffff166370a08231306040518263ffffffff1660e01b8152600401610f949190611ce9565b602060405180830381865afa158015610faf573d5f803e3d5ffd5b505050506040513d601f19601f82011682018060405250810190610fd39190612252565b90505f8111156110da5760035f9054906101000a900473ffffffffffffffffffffffffffffffffffffffff1673ffffffffffffffffffffffffffffffffffffffff1663a9059cbb60045f9054906101000a900473ffffffffffffffffffffffffffffffffffffffff16836040518363ffffffff1660e01b815260040161105a92919061230b565b6020604051808303815f875af1158015611076573d5f803e3d5ffd5b505050506040513d601f19601f8201168201806040525081019061109a919061235c565b6110d9576040517f08c379a00000000000000000000000000000000000000000000000000000000081526004016110d090612cf3565b60405180910390fd5b5b5f600960016101000a81548160ff0219169083151502179055507fcf90e01e154aa36eac1c51eff8a71fd95d40e9cab591b29c5db844d6d3f83af260405160405180910390a150565b60015481565b60075481565b60065481565b5f8054906101000a900473ffffffffffffffffffffffffffffffffffffffff1681565b5f151560095f9054906101000a900460ff161515146111ac576040517f08c379a00000000000000000000000000000000000000000000000000000000081526004016111a390612ac0565b60405180910390fd5b60011515600960019054906101000a900460ff16151514611202576040517f08c379a00000000000000000000000000000000000000000000000000000000081526004016111f990612b4e565b60405180910390fd5b600854421115611247576040517f08c379a000000000000000000000000000000000000000000000000000000000815260040161123e90612d5b565b60405180910390fd5b3360055f6101000a81548173ffffffffffffffffffffffffffffffffffffffff021916908373ffffffffffffffffffffffffffffffffffffffff1602179055506112f83360045f9054906101000a900473ffffffffffffffffffffffffffffffffffffffff1660075460035f9054906101000a900473ffffffffffffffffffffffffffffffffffffffff1673ffffffffffffffffffffffffffffffffffffffff166119fb909392919063ffffffff16565b600160095f6101000a81548160ff0219169083151502179055505f600960016101000a81548160ff0219169083151502179055507f3e8d8115472dbb577aaf87fcb3f9da55b701cc89ad36efc03587625af0e3e85460055f9054906101000a900473ffffffffffffffffffffffffffffffffffffffff1660405161137c9190611ce9565b60405180910390a1565b5f63bc197c8160e01b905095945050505050565b60055f9054906101000a900473ffffffffffffffffffffffffffffffffffffffff1681565b6001151560095f9054906101000a900460ff16151514611414576040517f08c379a000000000000000000000000000000000000000000000000000000000815260040161140b90612439565b60405180910390fd5b5f60035f9054906101000a900473ffffffffffffffffffffffffffffffffffffffff1673ffffffffffffffffffffffffffffffffffffffff166370a08231306040518263ffffffff1660e01b815260040161146f9190611ce9565b602060405180830381865afa15801561148a573d5f803e3d5ffd5b505050506040513d601f19601f820116820180604052508101906114ae9190612252565b90505f81116114f2576040517f08c379a00000000000000000000000000000000000000000000000000000000081526004016114e9906122ed565b60405180910390fd5b600a548110611820575f8054906101000a900473ffffffffffffffffffffffffffffffffffffffff1673ffffffffffffffffffffffffffffffffffffffff1663f242432a3060045f9054906101000a900473ffffffffffffffffffffffffffffffffffffffff166001546002546040518563ffffffff1660e01b815260040161157e9493929190612c2d565b5f604051808303815f87803b158015611595575f80fd5b505af11580156115a7573d5f803e3d5ffd5b5050505060035f9054906101000a900473ffffffffffffffffffffffffffffffffffffffff1673ffffffffffffffffffffffffffffffffffffffff1663a9059cbb60055f9054906101000a900473ffffffffffffffffffffffffffffffffffffffff16600a546040518363ffffffff1660e01b815260040161162a92919061230b565b6020604051808303815f875af1158015611646573d5f803e3d5ffd5b505050506040513d601f19601f8201168201806040525081019061166a919061235c565b6116a9576040517f08c379a00000000000000000000000000000000000000000000000000000000081526004016116a090612de9565b60405180910390fd5b600a548111156117c2575f600a54826116c29190612e07565b905060035f9054906101000a900473ffffffffffffffffffffffffffffffffffffffff1673ffffffffffffffffffffffffffffffffffffffff1663a9059cbb60045f9054906101000a900473ffffffffffffffffffffffffffffffffffffffff16836040518363ffffffff1660e01b815260040161174192919061230b565b6020604051808303815f875af115801561175d573d5f803e3d5ffd5b505050506040513d601f19601f82011682018060405250810190611781919061235c565b6117c0576040517f08c379a00000000000000000000000000000000000000000000000000000000081526004016117b790612eaa565b60405180910390fd5b505b7f9a7851747cd7ffb3fe0a32caf3da48b31f27cebe131267051640f8b72fc47186600a546040516117f39190611cb0565b60405180910390a15f600a819055505f60095f6101000a81548160ff021916908315150217905550611968565b80600a5461182e9190612e07565b600a8190555060035f9054906101000a900473ffffffffffffffffffffffffffffffffffffffff1673ffffffffffffffffffffffffffffffffffffffff1663a9059cbb60055f9054906101000a900473ffffffffffffffffffffffffffffffffffffffff16836040518363ffffffff1660e01b81526004016118b192919061230b565b6020604051808303815f875af11580156118cd573d5f803e3d5ffd5b505050506040513d601f19601f820116820180604052508101906118f1919061235c565b611930576040517f08c379a000000000000000000000000000000000000000000000000000000000815260040161192790612f38565b60405180910390fd5b7f488e627f46a2be23a969b9c0c9031a69d21d66c7cf5b6df1d71b7257f9bdee688160405161195f9190611cb0565b60405180910390a15b50565b5f63f23a6e6160e01b905095945050505050565b5f7f01ffc9a7000000000000000000000000000000000000000000000000000000007bffffffffffffffffffffffffffffffffffffffffffffffffffffffff1916827bffffffffffffffffffffffffffffffffffffffffffffffffffffffff1916149050919050565b5f806119f2611a7d565b90508091505090565b611a77848573ffffffffffffffffffffffffffffffffffffffff166323b872dd868686604051602401611a3093929190612f56565b604051602081830303815290604052915060e01b6020820180517bffffffffffffffffffffffffffffffffffffffffffffffffffffffff8381831617835250505050611aa6565b50505050565b5f7ff0c57e16840df040f15088dc2f81fe391c3923bec73e23a9662efc9c229c6a005f1b905090565b5f8060205f8451602086015f885af180611ac5576040513d5f823e3d81fd5b3d92505f519150505f8214611ade576001811415611af9565b5f8473ffffffffffffffffffffffffffffffffffffffff163b145b15611b3b57836040517f5274afe7000000000000000000000000000000000000000000000000000000008152600401611b329190611ce9565b60405180910390fd5b50505050565b5f604051905090565b5f80fd5b5f80fd5b5f7fffffffff0000000000000000000000000000000000000000000000000000000082169050919050565b611b8681611b52565b8114611b90575f80fd5b50565b5f81359050611ba181611b7d565b92915050565b5f60208284031215611bbc57611bbb611b4a565b5b5f611bc984828501611b93565b91505092915050565b5f8115159050919050565b611be681611bd2565b82525050565b5f602082019050611bff5f830184611bdd565b92915050565b5f73ffffffffffffffffffffffffffffffffffffffff82169050919050565b5f819050919050565b5f611c47611c42611c3d84611c05565b611c24565b611c05565b9050919050565b5f611c5882611c2d565b9050919050565b5f611c6982611c4e565b9050919050565b611c7981611c5f565b82525050565b5f602082019050611c925f830184611c70565b92915050565b5f819050919050565b611caa81611c98565b82525050565b5f602082019050611cc35f830184611ca1565b92915050565b5f611cd382611c05565b9050919050565b611ce381611cc9565b82525050565b5f602082019050611cfc5f830184611cda565b92915050565b611d0b81611cc9565b8114611d15575f80fd5b50565b5f81359050611d2681611d02565b92915050565b611d3581611c98565b8114611d3f575f80fd5b50565b5f81359050611d5081611d2c565b92915050565b5f805f805f805f80610100898b031215611d7357611d72611b4a565b5b5f611d808b828c01611d18565b9850506020611d918b828c01611d42565b9750506040611da28b828c01611d42565b9650506060611db38b828c01611d18565b9550506080611dc48b828c01611d18565b94505060a0611dd58b828c01611d42565b93505060c0611de68b828c01611d42565b92505060e0611df78b828c01611d42565b9150509295985092959890939650565b5f611e1182611c4e565b9050919050565b611e2181611e07565b82525050565b5f602082019050611e3a5f830184611e18565b92915050565b5f80fd5b5f601f19601f8301169050919050565b7f4e487b71000000000000000000000000000000000000000000000000000000005f52604160045260245ffd5b611e8a82611e44565b810181811067ffffffffffffffff82111715611ea957611ea8611e54565b5b80604052505050565b5f611ebb611b41565b9050611ec78282611e81565b919050565b5f67ffffffffffffffff821115611ee657611ee5611e54565b5b602082029050602081019050919050565b5f80fd5b5f611f0d611f0884611ecc565b611eb2565b90508083825260208201905060208402830185811115611f3057611f2f611ef7565b5b835b81811015611f595780611f458882611d42565b845260208401935050602081019050611f32565b5050509392505050565b5f82601f830112611f7757611f76611e40565b5b8135611f87848260208601611efb565b91505092915050565b5f80fd5b5f67ffffffffffffffff821115611fae57611fad611e54565b5b611fb782611e44565b9050602081019050919050565b828183375f83830152505050565b5f611fe4611fdf84611f94565b611eb2565b90508281526020810184848401111561200057611fff611f90565b5b61200b848285611fc4565b509392505050565b5f82601f83011261202757612026611e40565b5b8135612037848260208601611fd2565b91505092915050565b5f805f805f60a0868803121561205957612058611b4a565b5b5f61206688828901611d18565b955050602061207788828901611d18565b945050604086013567ffffffffffffffff81111561209857612097611b4e565b5b6120a488828901611f63565b935050606086013567ffffffffffffffff8111156120c5576120c4611b4e565b5b6120d188828901611f63565b925050608086013567ffffffffffffffff8111156120f2576120f1611b4e565b5b6120fe88828901612013565b9150509295509295909350565b61211481611b52565b82525050565b5f60208201905061212d5f83018461210b565b92915050565b5f805f805f60a0868803121561214c5761214b611b4a565b5b5f61215988828901611d18565b955050602061216a88828901611d18565b945050604061217b88828901611d42565b935050606061218c88828901611d42565b925050608086013567ffffffffffffffff8111156121ad576121ac611b4e565b5b6121b988828901612013565b9150509295509295909350565b5f82825260208201905092915050565b7f526f79616c74794c6f616e3a204c6f616e2069732061637469766500000000005f82015250565b5f61220a601b836121c6565b9150612215826121d6565b602082019050919050565b5f6020820190508181035f830152612237816121fe565b9050919050565b5f8151905061224c81611d2c565b92915050565b5f6020828403121561226757612266611b4a565b5b5f6122748482850161223e565b91505092915050565b7f526f79616c74794c6f616e3a204e6f207061796d656e7420746f6b656e20746f5f8201527f2070726f63657373000000000000000000000000000000000000000000000000602082015250565b5f6122d76028836121c6565b91506122e28261227d565b604082019050919050565b5f6020820190508181035f830152612304816122cb565b9050919050565b5f60408201905061231e5f830185611cda565b61232b6020830184611ca1565b9392505050565b61233b81611bd2565b8114612345575f80fd5b50565b5f8151905061235681612332565b92915050565b5f6020828403121561237157612370611b4a565b5b5f61237e84828501612348565b91505092915050565b7f526f79616c74794c6f616e3a205265636c61696d206661696c656400000000005f82015250565b5f6123bb601b836121c6565b91506123c682612387565b602082019050919050565b5f6020820190508181035f8301526123e8816123af565b9050919050565b7f526f79616c74794c6f616e3a204c6f616e20697320696e6163746976650000005f82015250565b5f612423601d836121c6565b915061242e826123ef565b602082019050919050565b5f6020820190508181035f83015261245081612417565b9050919050565b7f526f79616c74794c6f616e3a204f6e6c7920626f72726f77657220616e64206c5f8201527f656e6465722063616e207365652072656d61696e696e6720746f74616c20647560208201527f6500000000000000000000000000000000000000000000000000000000000000604082015250565b5f6124d76041836121c6565b91506124e282612457565b606082019050919050565b5f6020820190508181035f830152612504816124cb565b9050919050565b7f526f79616c74794c6f616e3a20496e76616c696420636f6c6c61746572616c205f8201527f746f6b656e206164647265737300000000000000000000000000000000000000602082015250565b5f612565602d836121c6565b91506125708261250b565b604082019050919050565b5f6020820190508181035f83015261259281612559565b9050919050565b7f526f79616c74794c6f616e3a20436f6c6c61746572616c20616d6f756e74206d5f8201527f7573742062652067726561746572207468616e20300000000000000000000000602082015250565b5f6125f36035836121c6565b91506125fe82612599565b604082019050919050565b5f6020820190508181035f830152612620816125e7565b9050919050565b7f526f79616c74794c6f616e3a204c6f616e20616d6f756e74206d7573742062655f8201527f2067726561746572207468616e20300000000000000000000000000000000000602082015250565b5f612681602f836121c6565b915061268c82612627565b604082019050919050565b5f6020820190508181035f8301526126ae81612675565b9050919050565b7f526f79616c74794c6f616e3a2046656550706d206578636565647320313030255f82015250565b5f6126e96020836121c6565b91506126f4826126b5565b602082019050919050565b5f6020820190508181035f830152612716816126dd565b9050919050565b7f526f79616c74794c6f616e3a20496e76616c6964207061796d656e7420746f6b5f8201527f656e206164647265737300000000000000000000000000000000000000000000602082015250565b5f612777602a836121c6565b91506127828261271d565b604082019050919050565b5f6020820190508181035f8301526127a48161276b565b9050919050565b7f526f79616c74794c6f616e3a204475726174696f6e206d7573742062652067725f8201527f6561746572207468616e20300000000000000000000000000000000000000000602082015250565b5f612805602c836121c6565b9150612810826127ab565b604082019050919050565b5f6020820190508181035f830152612832816127f9565b9050919050565b7f526f79616c74794c6f616e3a20436f6c6c61746572616c20776173206e6f74205f8201527f7472616e7366657272656420696e2074686520726571756972656420616d6f7560208201527f6e74000000000000000000000000000000000000000000000000000000000000604082015250565b5f6128b96042836121c6565b91506128c482612839565b606082019050919050565b5f6020820190508181035f8301526128e6816128ad565b9050919050565b7f4e487b71000000000000000000000000000000000000000000000000000000005f52601160045260245ffd5b5f61292482611c98565b915061292f83611c98565b925082820261293d81611c98565b91508282048414831517612954576129536128ed565b5b5092915050565b7f4e487b71000000000000000000000000000000000000000000000000000000005f52601260045260245ffd5b5f61299282611c98565b915061299d83611c98565b9250826129ad576129ac61295b565b5b828204905092915050565b5f6129c282611c98565b91506129cd83611c98565b92508282019050808211156129e5576129e46128ed565b5b92915050565b5f819050919050565b5f67ffffffffffffffff82169050919050565b5f612a21612a1c612a17846129eb565b611c24565b6129f4565b9050919050565b612a3181612a07565b82525050565b5f602082019050612a4a5f830184612a28565b92915050565b7f526f79616c74794c6f616e3a204c6f616e20697320616c7265616479206163745f8201527f6976650000000000000000000000000000000000000000000000000000000000602082015250565b5f612aaa6023836121c6565b9150612ab582612a50565b604082019050919050565b5f6020820190508181035f830152612ad781612a9e565b9050919050565b7f526f79616c74794c6f616e3a204c6f616e206f66666572206973207265766f6b5f8201527f6564000000000000000000000000000000000000000000000000000000000000602082015250565b5f612b386022836121c6565b9150612b4382612ade565b604082019050919050565b5f6020820190508181035f830152612b6581612b2c565b9050919050565b7f526f79616c74794c6f616e3a204f6e6c7920626f72726f7765722063616e20725f8201527f65766f6b6520746865206c6f616e000000000000000000000000000000000000602082015250565b5f612bc6602e836121c6565b9150612bd182612b6c565b604082019050919050565b5f6020820190508181035f830152612bf381612bba565b9050919050565b5f82825260208201905092915050565b50565b5f612c185f83612bfa565b9150612c2382612c0a565b5f82019050919050565b5f60a082019050612c405f830187611cda565b612c4d6020830186611cda565b612c5a6040830185611ca1565b612c676060830184611ca1565b8181036080830152612c7881612c0d565b905095945050505050565b7f526f79616c74794c6f616e3a2055534443207472616e73666572206661696c655f8201527f6400000000000000000000000000000000000000000000000000000000000000602082015250565b5f612cdd6021836121c6565b9150612ce882612c83565b604082019050919050565b5f6020820190508181035f830152612d0a81612cd1565b9050919050565b7f526f79616c74794c6f616e3a204c6f616e206f666665722065787069726564005f82015250565b5f612d45601f836121c6565b9150612d5082612d11565b602082019050919050565b5f6020820190508181035f830152612d7281612d39565b9050919050565b7f526f79616c74794c6f616e3a204475652055534443207472616e7366657220665f8201527f61696c6564000000000000000000000000000000000000000000000000000000602082015250565b5f612dd36025836121c6565b9150612dde82612d79565b604082019050919050565b5f6020820190508181035f830152612e0081612dc7565b9050919050565b5f612e1182611c98565b9150612e1c83611c98565b9250828203905081811115612e3457612e336128ed565b5b92915050565b7f526f79616c74794c6f616e3a204578636573732055534443207472616e7366655f8201527f72206661696c6564000000000000000000000000000000000000000000000000602082015250565b5f612e946028836121c6565b9150612e9f82612e3a565b604082019050919050565b5f6020820190508181035f830152612ec181612e88565b9050919050565b7f526f79616c74794c6f616e3a205061727469616c2055534443207472616e73665f8201527f6572206661696c65640000000000000000000000000000000000000000000000602082015250565b5f612f226029836121c6565b9150612f2d82612ec8565b604082019050919050565b5f6020820190508181035f830152612f4f81612f16565b9050919050565b5f606082019050612f695f830186611cda565b612f766020830185611cda565b612f836040830184611ca1565b94935050505056fea2646970667358221220600d145f706d770b1af81bc039ee0f160897ec60a5a3d448bf683576a9f777db64736f6c63430008180033",
  "linkReferences": {},
  "deployedLinkReferences": {}
}