{
  "_format": "hh-sol-artifact-1",
  "contractName": "RoyaltyLoanFactory",
  "sourceName": "contracts/Loans/RoyaltyLoanFactory.sol",
  "abi": [
    {
      "inputs": [],
      "stateMutability": "nonpayable",
      "type": "constructor"
    },
    {
      "inputs": [
        {
          "internalType": "address",
          "name": "target",
          "type": "address"
        }
      ],
      "name": "AddressEmptyCode",
      "type": "error"
    },
    {
      "inputs": [
        {
          "internalType": "address",
          "name": "implementation",
          "type": "address"
        }
      ],
      "name": "ERC1967InvalidImplementation",
      "type": "error"
    },
    {
      "inputs": [],
      "name": "ERC1967NonPayable",
      "type": "error"
    },
    {
      "inputs": [],
      "name": "FailedCall",
      "type": "error"
    },
    {
      "inputs": [],
      "name": "FailedDeployment",
      "type": "error"
    },
    {
      "inputs": [
        {
          "internalType": "uint256",
          "name": "balance",
          "type": "uint256"
        },
        {
          "internalType": "uint256",
          "name": "needed",
          "type": "uint256"
        }
      ],
      "name": "InsufficientBalance",
      "type": "error"
    },
    {
      "inputs": [],
      "name": "InvalidInitialization",
      "type": "error"
    },
    {
      "inputs": [],
      "name": "NotInitializing",
      "type": "error"
    },
    {
      "inputs": [
        {
          "internalType": "address",
          "name": "owner",
          "type": "address"
        }
      ],
      "name": "OwnableInvalidOwner",
      "type": "error"
    },
    {
      "inputs": [
        {
          "internalType": "address",
          "name": "account",
          "type": "address"
        }
      ],
      "name": "OwnableUnauthorizedAccount",
      "type": "error"
    },
    {
      "inputs": [],
      "name": "UUPSUnauthorizedCallContext",
      "type": "error"
    },
    {
      "inputs": [
        {
          "internalType": "bytes32",
          "name": "slot",
          "type": "bytes32"
        }
      ],
      "name": "UUPSUnsupportedProxiableUUID",
      "type": "error"
    },
    {
      "anonymous": false,
      "inputs": [
        {
          "indexed": false,
          "internalType": "uint64",
          "name": "version",
          "type": "uint64"
        }
      ],
      "name": "Initialized",
      "type": "event"
    },
    {
      "anonymous": false,
      "inputs": [
        {
          "indexed": false,
          "internalType": "address",
          "name": "loanContract",
          "type": "address"
        },
        {
          "indexed": false,
          "internalType": "address",
          "name": "borrower",
          "type": "address"
        },
        {
          "indexed": false,
          "internalType": "address",
          "name": "collateralToken",
          "type": "address"
        },
        {
          "indexed": false,
          "internalType": "uint256",
          "name": "collateralTokenId",
          "type": "uint256"
        },
        {
          "indexed": false,
          "internalType": "uint256",
          "name": "collateralAmount",
          "type": "uint256"
        },
        {
          "indexed": false,
          "internalType": "uint256",
          "name": "loanAmount",
          "type": "uint256"
        },
        {
          "indexed": false,
          "internalType": "uint256",
          "name": "feePpm",
          "type": "uint256"
        }
      ],
      "name": "LoanContractCreated",
      "type": "event"
    },
    {
      "anonymous": false,
      "inputs": [
        {
          "indexed": true,
          "internalType": "address",
          "name": "previousOwner",
          "type": "address"
        },
        {
          "indexed": true,
          "internalType": "address",
          "name": "newOwner",
          "type": "address"
        }
      ],
      "name": "OwnershipTransferred",
      "type": "event"
    },
    {
      "anonymous": false,
      "inputs": [
        {
          "indexed": false,
          "internalType": "address",
          "name": "previousAddress",
          "type": "address"
        },
        {
          "indexed": false,
          "internalType": "address",
          "name": "newAddress",
          "type": "address"
        }
      ],
      "name": "TemplateChanged",
      "type": "event"
    },
    {
      "anonymous": false,
      "inputs": [
        {
          "indexed": true,
          "internalType": "address",
          "name": "implementation",
          "type": "address"
        }
      ],
      "name": "Upgraded",
      "type": "event"
    },
    {
      "anonymous": false,
      "inputs": [
        {
          "indexed": false,
          "internalType": "bytes1",
          "name": "_whitelistId",
          "type": "bytes1"
        },
        {
          "indexed": false,
          "internalType": "address",
          "name": "_previousAddress",
          "type": "address"
        },
        {
          "indexed": false,
          "internalType": "address",
          "name": "_newAddress",
          "type": "address"
        }
      ],
      "name": "WhitelistChanged",
      "type": "event"
    },
    {
      "inputs": [],
      "name": "OPERATIONAL_WHITELIST",
      "outputs": [
        {
          "internalType": "bytes1",
          "name": "",
          "type": "bytes1"
        }
      ],
      "stateMutability": "view",
      "type": "function"
    },
    {
      "inputs": [],
      "name": "UPGRADE_INTERFACE_VERSION",
      "outputs": [
        {
          "internalType": "string",
          "name": "",
          "type": "string"
        }
      ],
      "stateMutability": "view",
      "type": "function"
    },
    {
      "inputs": [
        {
          "internalType": "address",
          "name": "collateralTokenAddress",
          "type": "address"
        },
        {
          "internalType": "uint256",
          "name": "collateralTokenId",
          "type": "uint256"
        },
        {
          "internalType": "uint256",
          "name": "collateralAmount",
          "type": "uint256"
        },
        {
          "internalType": "uint256",
          "name": "loanAmount",
          "type": "uint256"
        },
        {
          "internalType": "uint256",
          "name": "feePpm",
          "type": "uint256"
        }
      ],
      "name": "createLoanContract",
      "outputs": [
        {
          "internalType": "address",
          "name": "",
          "type": "address"
        }
      ],
      "stateMutability": "nonpayable",
      "type": "function"
    },
    {
      "inputs": [
        {
          "internalType": "address",
          "name": "_templateAddress",
          "type": "address"
        },
        {
          "internalType": "address",
          "name": "_operationalWhitelistAddress",
          "type": "address"
        },
        {
          "internalType": "address",
          "name": "_paymentTokenAddress",
          "type": "address"
        },
        {
          "internalType": "uint256",
          "name": "_offerDuration",
          "type": "uint256"
        }
      ],
      "name": "initialize",
      "outputs": [],
      "stateMutability": "nonpayable",
      "type": "function"
    },
    {
      "inputs": [],
      "name": "offerDuration",
      "outputs": [
        {
          "internalType": "uint256",
          "name": "",
          "type": "uint256"
        }
      ],
      "stateMutability": "view",
      "type": "function"
    },
    {
      "inputs": [],
      "name": "owner",
      "outputs": [
        {
          "internalType": "address",
          "name": "",
          "type": "address"
        }
      ],
      "stateMutability": "view",
      "type": "function"
    },
    {
      "inputs": [],
      "name": "paymentTokenAddress",
      "outputs": [
        {
          "internalType": "address",
          "name": "",
          "type": "address"
        }
      ],
      "stateMutability": "view",
      "type": "function"
    },
    {
      "inputs": [],
      "name": "proxiableUUID",
      "outputs": [
        {
          "internalType": "bytes32",
          "name": "",
          "type": "bytes32"
        }
      ],
      "stateMutability": "view",
      "type": "function"
    },
    {
      "inputs": [],
      "name": "renounceOwnership",
      "outputs": [],
      "stateMutability": "nonpayable",
      "type": "function"
    },
    {
      "inputs": [
        {
          "internalType": "uint256",
          "name": "_duration",
          "type": "uint256"
        }
      ],
      "name": "setOfferDuration",
      "outputs": [],
      "stateMutability": "nonpayable",
      "type": "function"
    },
    {
      "inputs": [
        {
          "internalType": "address",
          "name": "_paymentTokenAddress",
          "type": "address"
        }
      ],
      "name": "setPaymentTokenAddress",
      "outputs": [],
      "stateMutability": "nonpayable",
      "type": "function"
    },
    {
      "inputs": [
        {
          "internalType": "address",
          "name": "_templateAddress",
          "type": "address"
        }
      ],
      "name": "setTemplateAddress",
      "outputs": [],
      "stateMutability": "nonpayable",
      "type": "function"
    },
    {
      "inputs": [
        {
          "internalType": "address",
          "name": "_whitelistAddress",
          "type": "address"
        }
      ],
      "name": "setWhitelistAddress",
      "outputs": [],
      "stateMutability": "nonpayable",
      "type": "function"
    },
    {
      "inputs": [],
      "name": "templateAddress",
      "outputs": [
        {
          "internalType": "address",
          "name": "",
          "type": "address"
        }
      ],
      "stateMutability": "view",
      "type": "function"
    },
    {
      "inputs": [
        {
          "internalType": "address",
          "name": "newOwner",
          "type": "address"
        }
      ],
      "name": "transferOwnership",
      "outputs": [],
      "stateMutability": "nonpayable",
      "type": "function"
    },
    {
      "inputs": [
        {
          "internalType": "address",
          "name": "newImplementation",
          "type": "address"
        },
        {
          "internalType": "bytes",
          "name": "data",
          "type": "bytes"
        }
      ],
      "name": "upgradeToAndCall",
      "outputs": [],
      "stateMutability": "payable",
      "type": "function"
    },
    {
      "inputs": [
        {
          "internalType": "bytes1",
          "name": "",
          "type": "bytes1"
        }
      ],
      "name": "whitelists",
      "outputs": [
        {
          "internalType": "address",
          "name": "",
          "type": "address"
        }
      ],
      "stateMutability": "view",
      "type": "function"
    }
  ],
  "bytecode": "0x60a06040523073ffffffffffffffffffffffffffffffffffffffff1660809073ffffffffffffffffffffffffffffffffffffffff1681525034801562000043575f80fd5b50620000546200005a60201b60201c565b620001e1565b5f6200006b6200015e60201b60201c565b9050805f0160089054906101000a900460ff1615620000b6576040517ff92ee8a900000000000000000000000000000000000000000000000000000000815260040160405180910390fd5b67ffffffffffffffff8016815f015f9054906101000a900467ffffffffffffffff1667ffffffffffffffff16146200015b5767ffffffffffffffff815f015f6101000a81548167ffffffffffffffff021916908367ffffffffffffffff1602179055507fc7f505b2f371ae2175ee4913f4499e1f2633a7b5936321eed1cdaeb6115181d267ffffffffffffffff604051620001529190620001c6565b60405180910390a15b50565b5f80620001706200017960201b60201c565b90508091505090565b5f7ff0c57e16840df040f15088dc2f81fe391c3923bec73e23a9662efc9c229c6a005f1b905090565b5f67ffffffffffffffff82169050919050565b620001c081620001a2565b82525050565b5f602082019050620001db5f830184620001b5565b92915050565b608051612970620002085f395f8181610e8e01528181610ee3015261109d01526129705ff3fe6080604052600436106100fd575f3560e01c8063ad3cb1cc11610094578063cf756fdf11610063578063cf756fdf146102e3578063d5ea98961461030b578063dcb98f7e14610335578063f2fde38b1461035d578063fd80dd4614610385576100fd565b8063ad3cb1cc1461023d578063afb18fe714610267578063b962854114610291578063bd62869a146102b9576100fd565b806352d1902d116100d057806352d1902d146101ab578063715018a6146101d55780638da5cb5b146101eb578063a224c74514610215576100fd565b80630c5a6f2f14610101578063108ded1f1461012b5780631378b62e146101675780634f1ef2861461018f575b5f80fd5b34801561010c575f80fd5b506101156103c1565b6040516101229190611d5e565b60405180910390f35b348015610136575f80fd5b50610151600480360381019061014c9190611de5565b6103e6565b60405161015e9190611d5e565b60405180910390f35b348015610172575f80fd5b5061018d60048036038101906101889190611e5c565b610567565b005b6101a960048036038101906101a49190611fc3565b6106a3565b005b3480156101b6575f80fd5b506101bf6106c2565b6040516101cc9190612035565b60405180910390f35b3480156101e0575f80fd5b506101e96106f3565b005b3480156101f6575f80fd5b506101ff610706565b60405161020c9190611d5e565b60405180910390f35b348015610220575f80fd5b5061023b6004803603810190610236919061204e565b61073b565b005b348015610248575f80fd5b506102516108ea565b60405161025e91906120f3565b60405180910390f35b348015610272575f80fd5b5061027b610923565b6040516102889190611d5e565b60405180910390f35b34801561029c575f80fd5b506102b760048036038101906102b2919061204e565b610948565b005b3480156102c4575f80fd5b506102cd610a84565b6040516102da9190612122565b60405180910390f35b3480156102ee575f80fd5b506103096004803603810190610304919061213b565b610a8a565b005b348015610316575f80fd5b5061031f610c37565b60405161032c91906121d9565b60405180910390f35b348015610340575f80fd5b5061035b6004803603810190610356919061204e565b610c3f565b005b348015610368575f80fd5b50610383600480360381019061037e919061204e565b610d7b565b005b348015610390575f80fd5b506103ab60048036038101906103a6919061221c565b610dff565b6040516103b89190611d5e565b60405180910390f35b60035f9054906101000a900473ffffffffffffffffffffffffffffffffffffffff1681565b5f8061041260035f9054906101000a900473ffffffffffffffffffffffffffffffffffffffff16610e2e565b90508673ffffffffffffffffffffffffffffffffffffffff1663f242432a338389896040518563ffffffff1660e01b8152600401610453949392919061227a565b5f604051808303815f87803b15801561046a575f80fd5b505af115801561047c573d5f803e3d5ffd5b505050508073ffffffffffffffffffffffffffffffffffffffff16638f7bcd0488888860015f9054906101000a900473ffffffffffffffffffffffffffffffffffffffff1633898b6002546040518963ffffffff1660e01b81526004016104ea9897969594939291906122d0565b5f604051808303815f87803b158015610501575f80fd5b505af1158015610513573d5f803e3d5ffd5b505050507fbb3e2cc900d9e3c411d204e811a540342209240fa3fe7862e907f6af2d3a92a181338989898989604051610552979695949392919061234c565b60405180910390a18091505095945050505050565b600160f81b5f80827effffffffffffffffffffffffffffffffffffffffffffffffffffffffffffff19167effffffffffffffffffffffffffffffffffffffffffffffffffffffffffffff191681526020019081526020015f205f9054906101000a900473ffffffffffffffffffffffffffffffffffffffff1673ffffffffffffffffffffffffffffffffffffffff16633af32abf336040518263ffffffff1660e01b81526004016106189190611d5e565b602060405180830381865afa158015610633573d5f803e3d5ffd5b505050506040513d601f19601f8201168201806040525081019061065791906123ee565b610696576040517f08c379a000000000000000000000000000000000000000000000000000000000815260040161068d90612463565b60405180910390fd5b61069f82610e40565b5050565b6106ab610e8c565b6106b482610f72565b6106be8282610f7d565b5050565b5f6106cb61109b565b7f360894a13ba1a3210667c828492db98dca3e2076cc3735a920a3ca505d382bbc5f1b905090565b6106fb611122565b6107045f6111a9565b565b5f8061071061127a565b9050805f015f9054906101000a900473ffffffffffffffffffffffffffffffffffffffff1691505090565b600160f81b5f80827effffffffffffffffffffffffffffffffffffffffffffffffffffffffffffff19167effffffffffffffffffffffffffffffffffffffffffffffffffffffffffffff191681526020019081526020015f205f9054906101000a900473ffffffffffffffffffffffffffffffffffffffff1673ffffffffffffffffffffffffffffffffffffffff16633af32abf336040518263ffffffff1660e01b81526004016107ec9190611d5e565b602060405180830381865afa158015610807573d5f803e3d5ffd5b505050506040513d601f19601f8201168201806040525081019061082b91906123ee565b61086a576040517f08c379a000000000000000000000000000000000000000000000000000000000815260040161086190612463565b60405180910390fd5b5f73ffffffffffffffffffffffffffffffffffffffff168273ffffffffffffffffffffffffffffffffffffffff16036108d8576040517f08c379a00000000000000000000000000000000000000000000000000000000081526004016108cf90612517565b60405180910390fd5b6108e682600160f81b6112a1565b5050565b6040518060400160405280600581526020017f352e302e3000000000000000000000000000000000000000000000000000000081525081565b60015f9054906101000a900473ffffffffffffffffffffffffffffffffffffffff1681565b600160f81b5f80827effffffffffffffffffffffffffffffffffffffffffffffffffffffffffffff19167effffffffffffffffffffffffffffffffffffffffffffffffffffffffffffff191681526020019081526020015f205f9054906101000a900473ffffffffffffffffffffffffffffffffffffffff1673ffffffffffffffffffffffffffffffffffffffff16633af32abf336040518263ffffffff1660e01b81526004016109f99190611d5e565b602060405180830381865afa158015610a14573d5f803e3d5ffd5b505050506040513d601f19601f82011682018060405250810190610a3891906123ee565b610a77576040517f08c379a0000000000000000000000000000000000000000000000000000000008152600401610a6e90612463565b60405180910390fd5b610a808261131d565b5050565b60025481565b5f610a9361142d565b90505f815f0160089054906101000a900460ff161590505f825f015f9054906101000a900467ffffffffffffffff1690505f808267ffffffffffffffff16148015610adb5750825b90505f60018367ffffffffffffffff16148015610b0e57505f3073ffffffffffffffffffffffffffffffffffffffff163b145b905081158015610b1c575080155b15610b53576040517ff92ee8a900000000000000000000000000000000000000000000000000000000815260040160405180910390fd5b6001855f015f6101000a81548167ffffffffffffffff021916908367ffffffffffffffff1602179055508315610ba0576001855f0160086101000a81548160ff0219169083151502179055505b610ba98961131d565b610bb788600160f81b6112a1565b610bc086610e40565b610bc987611440565b610bd2336114f1565b8315610c2c575f855f0160086101000a81548160ff0219169083151502179055507fc7f505b2f371ae2175ee4913f4499e1f2633a7b5936321eed1cdaeb6115181d26001604051610c23919061258a565b60405180910390a15b505050505050505050565b600160f81b81565b600160f81b5f80827effffffffffffffffffffffffffffffffffffffffffffffffffffffffffffff19167effffffffffffffffffffffffffffffffffffffffffffffffffffffffffffff191681526020019081526020015f205f9054906101000a900473ffffffffffffffffffffffffffffffffffffffff1673ffffffffffffffffffffffffffffffffffffffff16633af32abf336040518263ffffffff1660e01b8152600401610cf09190611d5e565b602060405180830381865afa158015610d0b573d5f803e3d5ffd5b505050506040513d601f19601f82011682018060405250810190610d2f91906123ee565b610d6e576040517f08c379a0000000000000000000000000000000000000000000000000000000008152600401610d6590612463565b60405180910390fd5b610d7782611440565b5050565b610d83611122565b5f73ffffffffffffffffffffffffffffffffffffffff168173ffffffffffffffffffffffffffffffffffffffff1603610df3575f6040517f1e4fbdf7000000000000000000000000000000000000000000000000000000008152600401610dea9190611d5e565b60405180910390fd5b610dfc816111a9565b50565b5f602052805f5260405f205f915054906101000a900473ffffffffffffffffffffffffffffffffffffffff1681565b5f610e39825f611505565b9050919050565b5f8111610e82576040517f08c379a0000000000000000000000000000000000000000000000000000000008152600401610e7990612613565b60405180910390fd5b8060028190555050565b7f000000000000000000000000000000000000000000000000000000000000000073ffffffffffffffffffffffffffffffffffffffff163073ffffffffffffffffffffffffffffffffffffffff161480610f3957507f000000000000000000000000000000000000000000000000000000000000000073ffffffffffffffffffffffffffffffffffffffff16610f206115fa565b73ffffffffffffffffffffffffffffffffffffffff1614155b15610f70576040517fe07c8dba00000000000000000000000000000000000000000000000000000000815260040160405180910390fd5b565b610f7a611122565b50565b8173ffffffffffffffffffffffffffffffffffffffff166352d1902d6040518163ffffffff1660e01b8152600401602060405180830381865afa925050508015610fe557506040513d601f19601f82011682018060405250810190610fe2919061265b565b60015b61102657816040517f4c9c8ce300000000000000000000000000000000000000000000000000000000815260040161101d9190611d5e565b60405180910390fd5b7f360894a13ba1a3210667c828492db98dca3e2076cc3735a920a3ca505d382bbc5f1b811461108c57806040517faa1d49a40000000000000000000000000000000000000000000000000000000081526004016110839190612035565b60405180910390fd5b611096838361164d565b505050565b7f000000000000000000000000000000000000000000000000000000000000000073ffffffffffffffffffffffffffffffffffffffff163073ffffffffffffffffffffffffffffffffffffffff1614611120576040517fe07c8dba00000000000000000000000000000000000000000000000000000000815260040160405180910390fd5b565b61112a6116bf565b73ffffffffffffffffffffffffffffffffffffffff16611148610706565b73ffffffffffffffffffffffffffffffffffffffff16146111a75761116b6116bf565b6040517f118cdaa700000000000000000000000000000000000000000000000000000000815260040161119e9190611d5e565b60405180910390fd5b565b5f6111b261127a565b90505f815f015f9054906101000a900473ffffffffffffffffffffffffffffffffffffffff16905082825f015f6101000a81548173ffffffffffffffffffffffffffffffffffffffff021916908373ffffffffffffffffffffffffffffffffffffffff1602179055508273ffffffffffffffffffffffffffffffffffffffff168173ffffffffffffffffffffffffffffffffffffffff167f8be0079c531659141344cd1fd0a4f28419497f9722a3daafe3b4186f6b6457e060405160405180910390a3505050565b5f7f9016d09d72d40fdae2fd8ceac6b6234c7706214fd39c1cd1e609a0528c199300905090565b5f73ffffffffffffffffffffffffffffffffffffffff168273ffffffffffffffffffffffffffffffffffffffff160361130f576040517f08c379a000000000000000000000000000000000000000000000000000000000815260040161130690612517565b60405180910390fd5b61131982826116c6565b5050565b5f73ffffffffffffffffffffffffffffffffffffffff168173ffffffffffffffffffffffffffffffffffffffff160361138b576040517f08c379a0000000000000000000000000000000000000000000000000000000008152600401611382906126f6565b60405180910390fd5b5f60035f9054906101000a900473ffffffffffffffffffffffffffffffffffffffff1690508160035f6101000a81548173ffffffffffffffffffffffffffffffffffffffff021916908373ffffffffffffffffffffffffffffffffffffffff1602179055507f2b12be9fa6bedeff30cb15ba65624af638a4ba58bf9445d9e29fa9abeb10c4da8183604051611421929190612714565b60405180910390a15050565b5f806114376118ac565b90508091505090565b5f73ffffffffffffffffffffffffffffffffffffffff168173ffffffffffffffffffffffffffffffffffffffff16036114ae576040517f08c379a00000000000000000000000000000000000000000000000000000000081526004016114a5906127ab565b60405180910390fd5b8060015f6101000a81548173ffffffffffffffffffffffffffffffffffffffff021916908373ffffffffffffffffffffffffffffffffffffffff16021790555050565b6114f96118d5565b61150281611915565b50565b5f8147101561154d5747826040517fcf4791810000000000000000000000000000000000000000000000000000000081526004016115449291906127c9565b60405180910390fd5b763d602d80600a3d3981f3363d3d373d3d3d363d730000008360601b60e81c175f526e5af43d82803e903d91602b57fd5bf38360781b176020526037600983f090505f73ffffffffffffffffffffffffffffffffffffffff168173ffffffffffffffffffffffffffffffffffffffff16036115f4576040517fb06ebf3d00000000000000000000000000000000000000000000000000000000815260040160405180910390fd5b92915050565b5f6116267f360894a13ba1a3210667c828492db98dca3e2076cc3735a920a3ca505d382bbc5f1b611999565b5f015f9054906101000a900473ffffffffffffffffffffffffffffffffffffffff16905090565b611656826119a2565b8173ffffffffffffffffffffffffffffffffffffffff167fbc7cd75a20ee27fd9adebab32041f755214dbc6bffa90cc0225b39da2e5c2d3b60405160405180910390a25f815111156116b2576116ac8282611a6b565b506116bb565b6116ba611aeb565b5b5050565b5f33905090565b5f73ffffffffffffffffffffffffffffffffffffffff168273ffffffffffffffffffffffffffffffffffffffff161461176357611723827f5470aee900000000000000000000000000000000000000000000000000000000611b27565b611762576040517f08c379a00000000000000000000000000000000000000000000000000000000081526004016117599061283a565b60405180910390fd5b5b5f805f837effffffffffffffffffffffffffffffffffffffffffffffffffffffffffffff19167effffffffffffffffffffffffffffffffffffffffffffffffffffffffffffff191681526020019081526020015f205f9054906101000a900473ffffffffffffffffffffffffffffffffffffffff169050825f80847effffffffffffffffffffffffffffffffffffffffffffffffffffffffffffff19167effffffffffffffffffffffffffffffffffffffffffffffffffffffffffffff191681526020019081526020015f205f6101000a81548173ffffffffffffffffffffffffffffffffffffffff021916908373ffffffffffffffffffffffffffffffffffffffff1602179055507fbdb658fbebcb4884950df11335d9177f3b8c7fb1b1f5290202b9715198d7e10582828560405161189f93929190612858565b60405180910390a1505050565b5f7ff0c57e16840df040f15088dc2f81fe391c3923bec73e23a9662efc9c229c6a005f1b905090565b6118dd611b4b565b611913576040517fd7e6bcf800000000000000000000000000000000000000000000000000000000815260040160405180910390fd5b565b61191d6118d5565b5f73ffffffffffffffffffffffffffffffffffffffff168173ffffffffffffffffffffffffffffffffffffffff160361198d575f6040517f1e4fbdf70000000000000000000000000000000000000000000000000000000081526004016119849190611d5e565b60405180910390fd5b611996816111a9565b50565b5f819050919050565b5f8173ffffffffffffffffffffffffffffffffffffffff163b036119fd57806040517f4c9c8ce30000000000000000000000000000000000000000000000000000000081526004016119f49190611d5e565b60405180910390fd5b80611a297f360894a13ba1a3210667c828492db98dca3e2076cc3735a920a3ca505d382bbc5f1b611999565b5f015f6101000a81548173ffffffffffffffffffffffffffffffffffffffff021916908373ffffffffffffffffffffffffffffffffffffffff16021790555050565b60605f808473ffffffffffffffffffffffffffffffffffffffff1684604051611a9491906128d1565b5f60405180830381855af49150503d805f8114611acc576040519150601f19603f3d011682016040523d82523d5f602084013e611ad1565b606091505b5091509150611ae1858383611b69565b9250505092915050565b5f341115611b25576040517fb398979f00000000000000000000000000000000000000000000000000000000815260040160405180910390fd5b565b5f611b3183611bf6565b8015611b435750611b428383611c42565b5b905092915050565b5f611b5461142d565b5f0160089054906101000a900460ff16905090565b606082611b7e57611b7982611cdb565b611bee565b5f8251148015611ba457505f8473ffffffffffffffffffffffffffffffffffffffff163b145b15611be657836040517f9996b315000000000000000000000000000000000000000000000000000000008152600401611bdd9190611d5e565b60405180910390fd5b819050611bef565b5b9392505050565b5f611c21827f01ffc9a700000000000000000000000000000000000000000000000000000000611c42565b8015611c3b5750611c398263ffffffff60e01b611c42565b155b9050919050565b5f8082604051602401611c559190612921565b6040516020818303038152906040526301ffc9a760e01b6020820180517bffffffffffffffffffffffffffffffffffffffffffffffffffffffff838183161783525050505090505f805f60205f8551602087018a617530fa92503d91505f519050828015611cc4575060208210155b8015611ccf57505f81115b94505050505092915050565b5f81511115611ced5780518082602001fd5b6040517fd6bda27500000000000000000000000000000000000000000000000000000000815260040160405180910390fd5b5f73ffffffffffffffffffffffffffffffffffffffff82169050919050565b5f611d4882611d1f565b9050919050565b611d5881611d3e565b82525050565b5f602082019050611d715f830184611d4f565b92915050565b5f604051905090565b5f80fd5b5f80fd5b611d9181611d3e565b8114611d9b575f80fd5b50565b5f81359050611dac81611d88565b92915050565b5f819050919050565b611dc481611db2565b8114611dce575f80fd5b50565b5f81359050611ddf81611dbb565b92915050565b5f805f805f60a08688031215611dfe57611dfd611d80565b5b5f611e0b88828901611d9e565b9550506020611e1c88828901611dd1565b9450506040611e2d88828901611dd1565b9350506060611e3e88828901611dd1565b9250506080611e4f88828901611dd1565b9150509295509295909350565b5f60208284031215611e7157611e70611d80565b5b5f611e7e84828501611dd1565b91505092915050565b5f80fd5b5f80fd5b5f601f19601f8301169050919050565b7f4e487b71000000000000000000000000000000000000000000000000000000005f52604160045260245ffd5b611ed582611e8f565b810181811067ffffffffffffffff82111715611ef457611ef3611e9f565b5b80604052505050565b5f611f06611d77565b9050611f128282611ecc565b919050565b5f67ffffffffffffffff821115611f3157611f30611e9f565b5b611f3a82611e8f565b9050602081019050919050565b828183375f83830152505050565b5f611f67611f6284611f17565b611efd565b905082815260208101848484011115611f8357611f82611e8b565b5b611f8e848285611f47565b509392505050565b5f82601f830112611faa57611fa9611e87565b5b8135611fba848260208601611f55565b91505092915050565b5f8060408385031215611fd957611fd8611d80565b5b5f611fe685828601611d9e565b925050602083013567ffffffffffffffff81111561200757612006611d84565b5b61201385828601611f96565b9150509250929050565b5f819050919050565b61202f8161201d565b82525050565b5f6020820190506120485f830184612026565b92915050565b5f6020828403121561206357612062611d80565b5b5f61207084828501611d9e565b91505092915050565b5f81519050919050565b5f82825260208201905092915050565b5f5b838110156120b0578082015181840152602081019050612095565b5f8484015250505050565b5f6120c582612079565b6120cf8185612083565b93506120df818560208601612093565b6120e881611e8f565b840191505092915050565b5f6020820190508181035f83015261210b81846120bb565b905092915050565b61211c81611db2565b82525050565b5f6020820190506121355f830184612113565b92915050565b5f805f806080858703121561215357612152611d80565b5b5f61216087828801611d9e565b945050602061217187828801611d9e565b935050604061218287828801611d9e565b925050606061219387828801611dd1565b91505092959194509250565b5f7fff0000000000000000000000000000000000000000000000000000000000000082169050919050565b6121d38161219f565b82525050565b5f6020820190506121ec5f8301846121ca565b92915050565b6121fb8161219f565b8114612205575f80fd5b50565b5f81359050612216816121f2565b92915050565b5f6020828403121561223157612230611d80565b5b5f61223e84828501612208565b91505092915050565b5f82825260208201905092915050565b50565b5f6122655f83612247565b915061227082612257565b5f82019050919050565b5f60a08201905061228d5f830187611d4f565b61229a6020830186611d4f565b6122a76040830185612113565b6122b46060830184612113565b81810360808301526122c58161225a565b905095945050505050565b5f610100820190506122e45f83018b611d4f565b6122f1602083018a612113565b6122fe6040830189612113565b61230b6060830188611d4f565b6123186080830187611d4f565b61232560a0830186612113565b61233260c0830185612113565b61233f60e0830184612113565b9998505050505050505050565b5f60e08201905061235f5f83018a611d4f565b61236c6020830189611d4f565b6123796040830188611d4f565b6123866060830187612113565b6123936080830186612113565b6123a060a0830185612113565b6123ad60c0830184612113565b98975050505050505050565b5f8115159050919050565b6123cd816123b9565b81146123d7575f80fd5b50565b5f815190506123e8816123c4565b92915050565b5f6020828403121561240357612402611d80565b5b5f612410848285016123da565b91505092915050565b7f53656e646572206973206e6f742077686974656c6973746564000000000000005f82015250565b5f61244d601983612083565b915061245882612419565b602082019050919050565b5f6020820190508181035f83015261247a81612441565b9050919050565b7f526f79616c74794c6f616e466163746f72793a205f77686974656c69737441645f8201527f6472657373206164647265737320697320746865207a65726f2061646472657360208201527f7300000000000000000000000000000000000000000000000000000000000000604082015250565b5f612501604183612083565b915061250c82612481565b606082019050919050565b5f6020820190508181035f83015261252e816124f5565b9050919050565b5f819050919050565b5f67ffffffffffffffff82169050919050565b5f819050919050565b5f61257461256f61256a84612535565b612551565b61253e565b9050919050565b6125848161255a565b82525050565b5f60208201905061259d5f83018461257b565b92915050565b7f526f79616c74794c6f616e466163746f72793a205f6475726174696f6e206d755f8201527f73742062652067726561746572207468616e2030000000000000000000000000602082015250565b5f6125fd603483612083565b9150612608826125a3565b604082019050919050565b5f6020820190508181035f83015261262a816125f1565b9050919050565b61263a8161201d565b8114612644575f80fd5b50565b5f8151905061265581612631565b92915050565b5f602082840312156126705761266f611d80565b5b5f61267d84828501612647565b91505092915050565b7f526f79616c74794c6f616e466163746f72793a205f74656d706c6174654164645f8201527f7265737320697320746865207a65726f20616464726573730000000000000000602082015250565b5f6126e0603883612083565b91506126eb82612686565b604082019050919050565b5f6020820190508181035f83015261270d816126d4565b9050919050565b5f6040820190506127275f830185611d4f565b6127346020830184611d4f565b9392505050565b7f526f79616c74794c6f616e466163746f72793a205f7061796d656e74546f6b655f8201527f6e4164647265737320697320746865207a65726f206164647265737300000000602082015250565b5f612795603c83612083565b91506127a08261273b565b604082019050919050565b5f6020820190508181035f8301526127c281612789565b9050919050565b5f6040820190506127dc5f830185612113565b6127e96020830184612113565b9392505050565b7f496e74657266616365206e6f7420737570706f727465640000000000000000005f82015250565b5f612824601783612083565b915061282f826127f0565b602082019050919050565b5f6020820190508181035f83015261285181612818565b9050919050565b5f60608201905061286b5f8301866121ca565b6128786020830185611d4f565b6128856040830184611d4f565b949350505050565b5f81519050919050565b5f81905092915050565b5f6128ab8261288d565b6128b58185612897565b93506128c5818560208601612093565b80840191505092915050565b5f6128dc82846128a1565b915081905092915050565b5f7fffffffff0000000000000000000000000000000000000000000000000000000082169050919050565b61291b816128e7565b82525050565b5f6020820190506129345f830184612912565b9291505056fea26469706673582212206cb91889f57fa806b12dcf3c2ee931e2c7450373b5861325e8f067ff9aeb7eb264736f6c63430008180033",
  "linkReferences": {},
  "deployedLinkReferences": {}
}