{
  "_format": "hh-sol-artifact-1",
  "contractName": "RoyaltyLoanFactory",
  "sourceName": "contracts/Loans/RoyaltyLoanFactory.sol",
  "abi": [
    {
      "inputs": [],
      "stateMutability": "nonpayable",
      "type": "constructor"
    },
    {
      "inputs": [
        {
          "internalType": "address",
          "name": "target",
          "type": "address"
        }
      ],
      "name": "AddressEmptyCode",
      "type": "error"
    },
    {
      "inputs": [
        {
          "internalType": "address",
          "name": "implementation",
          "type": "address"
        }
      ],
      "name": "ERC1967InvalidImplementation",
      "type": "error"
    },
    {
      "inputs": [],
      "name": "ERC1967NonPayable",
      "type": "error"
    },
    {
      "inputs": [],
      "name": "FailedCall",
      "type": "error"
    },
    {
      "inputs": [],
      "name": "FailedDeployment",
      "type": "error"
    },
    {
      "inputs": [
        {
          "internalType": "uint256",
          "name": "balance",
          "type": "uint256"
        },
        {
          "internalType": "uint256",
          "name": "needed",
          "type": "uint256"
        }
      ],
      "name": "InsufficientBalance",
      "type": "error"
    },
    {
      "inputs": [],
      "name": "InvalidInitialization",
      "type": "error"
    },
    {
      "inputs": [],
      "name": "NotInitializing",
      "type": "error"
    },
    {
      "inputs": [
        {
          "internalType": "address",
          "name": "owner",
          "type": "address"
        }
      ],
      "name": "OwnableInvalidOwner",
      "type": "error"
    },
    {
      "inputs": [
        {
          "internalType": "address",
          "name": "account",
          "type": "address"
        }
      ],
      "name": "OwnableUnauthorizedAccount",
      "type": "error"
    },
    {
      "inputs": [],
      "name": "UUPSUnauthorizedCallContext",
      "type": "error"
    },
    {
      "inputs": [
        {
          "internalType": "bytes32",
          "name": "slot",
          "type": "bytes32"
        }
      ],
      "name": "UUPSUnsupportedProxiableUUID",
      "type": "error"
    },
    {
      "anonymous": false,
      "inputs": [
        {
          "indexed": false,
          "internalType": "uint64",
          "name": "version",
          "type": "uint64"
        }
      ],
      "name": "Initialized",
      "type": "event"
    },
    {
      "anonymous": false,
      "inputs": [
        {
          "indexed": false,
          "internalType": "address",
          "name": "loanContract",
          "type": "address"
        },
        {
          "indexed": false,
          "internalType": "address",
          "name": "borrower",
          "type": "address"
        },
        {
          "components": [
            {
              "internalType": "address",
              "name": "tokenAddress",
              "type": "address"
            },
            {
              "internalType": "uint256",
              "name": "tokenId",
              "type": "uint256"
            },
            {
              "internalType": "uint256",
              "name": "tokenAmount",
              "type": "uint256"
            }
          ],
          "indexed": false,
          "internalType": "struct ICollateral.Collateral[]",
          "name": "collaterals",
          "type": "tuple[]"
        },
        {
          "indexed": false,
          "internalType": "uint256",
          "name": "loanAmount",
          "type": "uint256"
        },
        {
          "indexed": false,
          "internalType": "uint256",
          "name": "feePpm",
          "type": "uint256"
        }
      ],
      "name": "LoanContractCreated",
      "type": "event"
    },
    {
      "anonymous": false,
      "inputs": [
        {
          "indexed": true,
          "internalType": "address",
          "name": "previousOwner",
          "type": "address"
        },
        {
          "indexed": true,
          "internalType": "address",
          "name": "newOwner",
          "type": "address"
        }
      ],
      "name": "OwnershipTransferred",
      "type": "event"
    },
    {
      "anonymous": false,
      "inputs": [
        {
          "indexed": false,
          "internalType": "address",
          "name": "previousAddress",
          "type": "address"
        },
        {
          "indexed": false,
          "internalType": "address",
          "name": "newAddress",
          "type": "address"
        }
      ],
      "name": "TemplateChanged",
      "type": "event"
    },
    {
      "anonymous": false,
      "inputs": [
        {
          "indexed": true,
          "internalType": "address",
          "name": "implementation",
          "type": "address"
        }
      ],
      "name": "Upgraded",
      "type": "event"
    },
    {
      "anonymous": false,
      "inputs": [
        {
          "indexed": false,
          "internalType": "bytes1",
          "name": "_whitelistId",
          "type": "bytes1"
        },
        {
          "indexed": false,
          "internalType": "address",
          "name": "_previousAddress",
          "type": "address"
        },
        {
          "indexed": false,
          "internalType": "address",
          "name": "_newAddress",
          "type": "address"
        }
      ],
      "name": "WhitelistChanged",
      "type": "event"
    },
    {
      "inputs": [],
      "name": "OPERATIONAL_WHITELIST",
      "outputs": [
        {
          "internalType": "bytes1",
          "name": "",
          "type": "bytes1"
        }
      ],
      "stateMutability": "view",
      "type": "function"
    },
    {
      "inputs": [],
      "name": "UPGRADE_INTERFACE_VERSION",
      "outputs": [
        {
          "internalType": "string",
          "name": "",
          "type": "string"
        }
      ],
      "stateMutability": "view",
      "type": "function"
    },
    {
      "inputs": [
        {
          "components": [
            {
              "internalType": "address",
              "name": "tokenAddress",
              "type": "address"
            },
            {
              "internalType": "uint256",
              "name": "tokenId",
              "type": "uint256"
            },
            {
              "internalType": "uint256",
              "name": "tokenAmount",
              "type": "uint256"
            }
          ],
          "internalType": "struct ICollateral.Collateral[]",
          "name": "collaterals",
          "type": "tuple[]"
        },
        {
          "internalType": "uint256",
          "name": "loanAmount",
          "type": "uint256"
        },
        {
          "internalType": "uint256",
          "name": "feePpm",
          "type": "uint256"
        }
      ],
      "name": "createLoanContract",
      "outputs": [
        {
          "internalType": "address",
          "name": "",
          "type": "address"
        }
      ],
      "stateMutability": "nonpayable",
      "type": "function"
    },
    {
      "inputs": [
        {
          "internalType": "address",
          "name": "_templateAddress",
          "type": "address"
        },
        {
          "internalType": "address",
          "name": "_operationalWhitelistAddress",
          "type": "address"
        },
        {
          "internalType": "address",
          "name": "_paymentTokenAddress",
          "type": "address"
        },
        {
          "internalType": "uint256",
          "name": "_offerDuration",
          "type": "uint256"
        }
      ],
      "name": "initialize",
      "outputs": [],
      "stateMutability": "nonpayable",
      "type": "function"
    },
    {
      "inputs": [],
      "name": "offerDuration",
      "outputs": [
        {
          "internalType": "uint256",
          "name": "",
          "type": "uint256"
        }
      ],
      "stateMutability": "view",
      "type": "function"
    },
    {
      "inputs": [],
      "name": "owner",
      "outputs": [
        {
          "internalType": "address",
          "name": "",
          "type": "address"
        }
      ],
      "stateMutability": "view",
      "type": "function"
    },
    {
      "inputs": [],
      "name": "paymentTokenAddress",
      "outputs": [
        {
          "internalType": "address",
          "name": "",
          "type": "address"
        }
      ],
      "stateMutability": "view",
      "type": "function"
    },
    {
      "inputs": [],
      "name": "proxiableUUID",
      "outputs": [
        {
          "internalType": "bytes32",
          "name": "",
          "type": "bytes32"
        }
      ],
      "stateMutability": "view",
      "type": "function"
    },
    {
      "inputs": [],
      "name": "renounceOwnership",
      "outputs": [],
      "stateMutability": "nonpayable",
      "type": "function"
    },
    {
      "inputs": [
        {
          "internalType": "uint256",
          "name": "_duration",
          "type": "uint256"
        }
      ],
      "name": "setOfferDuration",
      "outputs": [],
      "stateMutability": "nonpayable",
      "type": "function"
    },
    {
      "inputs": [
        {
          "internalType": "address",
          "name": "_paymentTokenAddress",
          "type": "address"
        }
      ],
      "name": "setPaymentTokenAddress",
      "outputs": [],
      "stateMutability": "nonpayable",
      "type": "function"
    },
    {
      "inputs": [
        {
          "internalType": "address",
          "name": "_templateAddress",
          "type": "address"
        }
      ],
      "name": "setTemplateAddress",
      "outputs": [],
      "stateMutability": "nonpayable",
      "type": "function"
    },
    {
      "inputs": [
        {
          "internalType": "address",
          "name": "_whitelistAddress",
          "type": "address"
        }
      ],
      "name": "setWhitelistAddress",
      "outputs": [],
      "stateMutability": "nonpayable",
      "type": "function"
    },
    {
      "inputs": [],
      "name": "templateAddress",
      "outputs": [
        {
          "internalType": "address",
          "name": "",
          "type": "address"
        }
      ],
      "stateMutability": "view",
      "type": "function"
    },
    {
      "inputs": [
        {
          "internalType": "address",
          "name": "newOwner",
          "type": "address"
        }
      ],
      "name": "transferOwnership",
      "outputs": [],
      "stateMutability": "nonpayable",
      "type": "function"
    },
    {
      "inputs": [
        {
          "internalType": "address",
          "name": "newImplementation",
          "type": "address"
        },
        {
          "internalType": "bytes",
          "name": "data",
          "type": "bytes"
        }
      ],
      "name": "upgradeToAndCall",
      "outputs": [],
      "stateMutability": "payable",
      "type": "function"
    },
    {
      "inputs": [
        {
          "internalType": "bytes1",
          "name": "",
          "type": "bytes1"
        }
      ],
      "name": "whitelists",
      "outputs": [
        {
          "internalType": "address",
          "name": "",
          "type": "address"
        }
      ],
      "stateMutability": "view",
      "type": "function"
    }
  ],
  "bytecode": "0x60a06040523073ffffffffffffffffffffffffffffffffffffffff1660809073ffffffffffffffffffffffffffffffffffffffff1681525034801562000043575f80fd5b50620000546200005a60201b60201c565b620001e1565b5f6200006b6200015e60201b60201c565b9050805f0160089054906101000a900460ff1615620000b6576040517ff92ee8a900000000000000000000000000000000000000000000000000000000815260040160405180910390fd5b67ffffffffffffffff8016815f015f9054906101000a900467ffffffffffffffff1667ffffffffffffffff16146200015b5767ffffffffffffffff815f015f6101000a81548167ffffffffffffffff021916908367ffffffffffffffff1602179055507fc7f505b2f371ae2175ee4913f4499e1f2633a7b5936321eed1cdaeb6115181d267ffffffffffffffff604051620001529190620001c6565b60405180910390a15b50565b5f80620001706200017960201b60201c565b90508091505090565b5f7ff0c57e16840df040f15088dc2f81fe391c3923bec73e23a9662efc9c229c6a005f1b905090565b5f67ffffffffffffffff82169050919050565b620001c081620001a2565b82525050565b5f602082019050620001db5f830184620001b5565b92915050565b608051612b87620002085f395f8181610ef301528181610f4801526111020152612b875ff3fe6080604052600436106100fd575f3560e01c8063afb18fe711610094578063d5ea989611610063578063d5ea9896146102cf578063da03f385146102f9578063dcb98f7e14610335578063f2fde38b1461035d578063fd80dd4614610385576100fd565b8063afb18fe71461022b578063b962854114610255578063bd62869a1461027d578063cf756fdf146102a7576100fd565b8063715018a6116100d0578063715018a6146101995780638da5cb5b146101af578063a224c745146101d9578063ad3cb1cc14610201576100fd565b80630c5a6f2f146101015780631378b62e1461012b5780634f1ef2861461015357806352d1902d1461016f575b5f80fd5b34801561010c575f80fd5b506101156103c1565b6040516101229190611dd5565b60405180910390f35b348015610136575f80fd5b50610151600480360381019061014c9190611e32565b6103e6565b005b61016d60048036038101906101689190611fc3565b610522565b005b34801561017a575f80fd5b50610183610541565b6040516101909190612035565b60405180910390f35b3480156101a4575f80fd5b506101ad610572565b005b3480156101ba575f80fd5b506101c3610585565b6040516101d09190611dd5565b60405180910390f35b3480156101e4575f80fd5b506101ff60048036038101906101fa919061204e565b6105ba565b005b34801561020c575f80fd5b50610215610769565b60405161022291906120f3565b60405180910390f35b348015610236575f80fd5b5061023f6107a2565b60405161024c9190611dd5565b60405180910390f35b348015610260575f80fd5b5061027b6004803603810190610276919061204e565b6107c7565b005b348015610288575f80fd5b50610291610903565b60405161029e9190612122565b60405180910390f35b3480156102b2575f80fd5b506102cd60048036038101906102c8919061213b565b610909565b005b3480156102da575f80fd5b506102e3610ab6565b6040516102f091906121d9565b60405180910390f35b348015610304575f80fd5b5061031f600480360381019061031a919061224f565b610abe565b60405161032c9190611dd5565b60405180910390f35b348015610340575f80fd5b5061035b6004803603810190610356919061204e565b610cb6565b005b348015610368575f80fd5b50610383600480360381019061037e919061204e565b610df2565b005b348015610390575f80fd5b506103ab60048036038101906103a691906122ea565b610e76565b6040516103b89190611dd5565b60405180910390f35b60035f9054906101000a900473ffffffffffffffffffffffffffffffffffffffff1681565b600160f81b5f80827effffffffffffffffffffffffffffffffffffffffffffffffffffffffffffff19167effffffffffffffffffffffffffffffffffffffffffffffffffffffffffffff191681526020019081526020015f205f9054906101000a900473ffffffffffffffffffffffffffffffffffffffff1673ffffffffffffffffffffffffffffffffffffffff16633af32abf336040518263ffffffff1660e01b81526004016104979190611dd5565b602060405180830381865afa1580156104b2573d5f803e3d5ffd5b505050506040513d601f19601f820116820180604052508101906104d6919061234a565b610515576040517f08c379a000000000000000000000000000000000000000000000000000000000815260040161050c906123bf565b60405180910390fd5b61051e82610ea5565b5050565b61052a610ef1565b61053382610fd7565b61053d8282610fe2565b5050565b5f61054a611100565b7f360894a13ba1a3210667c828492db98dca3e2076cc3735a920a3ca505d382bbc5f1b905090565b61057a611187565b6105835f61120e565b565b5f8061058f6112df565b9050805f015f9054906101000a900473ffffffffffffffffffffffffffffffffffffffff1691505090565b600160f81b5f80827effffffffffffffffffffffffffffffffffffffffffffffffffffffffffffff19167effffffffffffffffffffffffffffffffffffffffffffffffffffffffffffff191681526020019081526020015f205f9054906101000a900473ffffffffffffffffffffffffffffffffffffffff1673ffffffffffffffffffffffffffffffffffffffff16633af32abf336040518263ffffffff1660e01b815260040161066b9190611dd5565b602060405180830381865afa158015610686573d5f803e3d5ffd5b505050506040513d601f19601f820116820180604052508101906106aa919061234a565b6106e9576040517f08c379a00000000000000000000000000000000000000000000000000000000081526004016106e0906123bf565b60405180910390fd5b5f73ffffffffffffffffffffffffffffffffffffffff168273ffffffffffffffffffffffffffffffffffffffff1603610757576040517f08c379a000000000000000000000000000000000000000000000000000000000815260040161074e90612473565b60405180910390fd5b61076582600160f81b611306565b5050565b6040518060400160405280600581526020017f352e302e3000000000000000000000000000000000000000000000000000000081525081565b60015f9054906101000a900473ffffffffffffffffffffffffffffffffffffffff1681565b600160f81b5f80827effffffffffffffffffffffffffffffffffffffffffffffffffffffffffffff19167effffffffffffffffffffffffffffffffffffffffffffffffffffffffffffff191681526020019081526020015f205f9054906101000a900473ffffffffffffffffffffffffffffffffffffffff1673ffffffffffffffffffffffffffffffffffffffff16633af32abf336040518263ffffffff1660e01b81526004016108789190611dd5565b602060405180830381865afa158015610893573d5f803e3d5ffd5b505050506040513d601f19601f820116820180604052508101906108b7919061234a565b6108f6576040517f08c379a00000000000000000000000000000000000000000000000000000000081526004016108ed906123bf565b60405180910390fd5b6108ff82611382565b5050565b60025481565b5f610912611492565b90505f815f0160089054906101000a900460ff161590505f825f015f9054906101000a900467ffffffffffffffff1690505f808267ffffffffffffffff1614801561095a5750825b90505f60018367ffffffffffffffff1614801561098d57505f3073ffffffffffffffffffffffffffffffffffffffff163b145b90508115801561099b575080155b156109d2576040517ff92ee8a900000000000000000000000000000000000000000000000000000000815260040160405180910390fd5b6001855f015f6101000a81548167ffffffffffffffff021916908367ffffffffffffffff1602179055508315610a1f576001855f0160086101000a81548160ff0219169083151502179055505b610a2889611382565b610a3688600160f81b611306565b610a3f86610ea5565b610a48876114a5565b610a5133611556565b8315610aab575f855f0160086101000a81548160ff0219169083151502179055507fc7f505b2f371ae2175ee4913f4499e1f2633a7b5936321eed1cdaeb6115181d26001604051610aa291906124e6565b60405180910390a15b505050505050505050565b600160f81b81565b5f80610aea60035f9054906101000a900473ffffffffffffffffffffffffffffffffffffffff1661156a565b90505f5b86869050811015610bd357868682818110610b0c57610b0b6124ff565b5b9050606002015f016020810190610b23919061204e565b73ffffffffffffffffffffffffffffffffffffffff1663f242432a33848a8a86818110610b5357610b526124ff565b5b905060600201602001358b8b87818110610b7057610b6f6124ff565b5b905060600201604001356040518563ffffffff1660e01b8152600401610b99949392919061255f565b5f604051808303815f87803b158015610bb0575f80fd5b505af1158015610bc2573d5f803e3d5ffd5b505050508080600101915050610aee565b508073ffffffffffffffffffffffffffffffffffffffff1663947185fd878760015f9054906101000a900473ffffffffffffffffffffffffffffffffffffffff1633888a6002546040518863ffffffff1660e01b8152600401610c3c97969594939291906126f8565b5f604051808303815f87803b158015610c53575f80fd5b505af1158015610c65573d5f803e3d5ffd5b505050507fe20f4f7a4ed7eca6467f2684373d2bb7c6edbff958a1ee1c2798136940255cc6813388888888604051610ca296959493929190612760565b60405180910390a180915050949350505050565b600160f81b5f80827effffffffffffffffffffffffffffffffffffffffffffffffffffffffffffff19167effffffffffffffffffffffffffffffffffffffffffffffffffffffffffffff191681526020019081526020015f205f9054906101000a900473ffffffffffffffffffffffffffffffffffffffff1673ffffffffffffffffffffffffffffffffffffffff16633af32abf336040518263ffffffff1660e01b8152600401610d679190611dd5565b602060405180830381865afa158015610d82573d5f803e3d5ffd5b505050506040513d601f19601f82011682018060405250810190610da6919061234a565b610de5576040517f08c379a0000000000000000000000000000000000000000000000000000000008152600401610ddc906123bf565b60405180910390fd5b610dee826114a5565b5050565b610dfa611187565b5f73ffffffffffffffffffffffffffffffffffffffff168173ffffffffffffffffffffffffffffffffffffffff1603610e6a575f6040517f1e4fbdf7000000000000000000000000000000000000000000000000000000008152600401610e619190611dd5565b60405180910390fd5b610e738161120e565b50565b5f602052805f5260405f205f915054906101000a900473ffffffffffffffffffffffffffffffffffffffff1681565b5f8111610ee7576040517f08c379a0000000000000000000000000000000000000000000000000000000008152600401610ede9061282a565b60405180910390fd5b8060028190555050565b7f000000000000000000000000000000000000000000000000000000000000000073ffffffffffffffffffffffffffffffffffffffff163073ffffffffffffffffffffffffffffffffffffffff161480610f9e57507f000000000000000000000000000000000000000000000000000000000000000073ffffffffffffffffffffffffffffffffffffffff16610f8561157c565b73ffffffffffffffffffffffffffffffffffffffff1614155b15610fd5576040517fe07c8dba00000000000000000000000000000000000000000000000000000000815260040160405180910390fd5b565b610fdf611187565b50565b8173ffffffffffffffffffffffffffffffffffffffff166352d1902d6040518163ffffffff1660e01b8152600401602060405180830381865afa92505050801561104a57506040513d601f19601f820116820180604052508101906110479190612872565b60015b61108b57816040517f4c9c8ce30000000000000000000000000000000000000000000000000000000081526004016110829190611dd5565b60405180910390fd5b7f360894a13ba1a3210667c828492db98dca3e2076cc3735a920a3ca505d382bbc5f1b81146110f157806040517faa1d49a40000000000000000000000000000000000000000000000000000000081526004016110e89190612035565b60405180910390fd5b6110fb83836115cf565b505050565b7f000000000000000000000000000000000000000000000000000000000000000073ffffffffffffffffffffffffffffffffffffffff163073ffffffffffffffffffffffffffffffffffffffff1614611185576040517fe07c8dba00000000000000000000000000000000000000000000000000000000815260040160405180910390fd5b565b61118f611641565b73ffffffffffffffffffffffffffffffffffffffff166111ad610585565b73ffffffffffffffffffffffffffffffffffffffff161461120c576111d0611641565b6040517f118cdaa70000000000000000000000000000000000000000000000000000000081526004016112039190611dd5565b60405180910390fd5b565b5f6112176112df565b90505f815f015f9054906101000a900473ffffffffffffffffffffffffffffffffffffffff16905082825f015f6101000a81548173ffffffffffffffffffffffffffffffffffffffff021916908373ffffffffffffffffffffffffffffffffffffffff1602179055508273ffffffffffffffffffffffffffffffffffffffff168173ffffffffffffffffffffffffffffffffffffffff167f8be0079c531659141344cd1fd0a4f28419497f9722a3daafe3b4186f6b6457e060405160405180910390a3505050565b5f7f9016d09d72d40fdae2fd8ceac6b6234c7706214fd39c1cd1e609a0528c199300905090565b5f73ffffffffffffffffffffffffffffffffffffffff168273ffffffffffffffffffffffffffffffffffffffff1603611374576040517f08c379a000000000000000000000000000000000000000000000000000000000815260040161136b90612473565b60405180910390fd5b61137e8282611648565b5050565b5f73ffffffffffffffffffffffffffffffffffffffff168173ffffffffffffffffffffffffffffffffffffffff16036113f0576040517f08c379a00000000000000000000000000000000000000000000000000000000081526004016113e79061290d565b60405180910390fd5b5f60035f9054906101000a900473ffffffffffffffffffffffffffffffffffffffff1690508160035f6101000a81548173ffffffffffffffffffffffffffffffffffffffff021916908373ffffffffffffffffffffffffffffffffffffffff1602179055507f2b12be9fa6bedeff30cb15ba65624af638a4ba58bf9445d9e29fa9abeb10c4da818360405161148692919061292b565b60405180910390a15050565b5f8061149c61182e565b90508091505090565b5f73ffffffffffffffffffffffffffffffffffffffff168173ffffffffffffffffffffffffffffffffffffffff1603611513576040517f08c379a000000000000000000000000000000000000000000000000000000000815260040161150a906129c2565b60405180910390fd5b8060015f6101000a81548173ffffffffffffffffffffffffffffffffffffffff021916908373ffffffffffffffffffffffffffffffffffffffff16021790555050565b61155e611857565b61156781611897565b50565b5f611575825f61191b565b9050919050565b5f6115a87f360894a13ba1a3210667c828492db98dca3e2076cc3735a920a3ca505d382bbc5f1b611a10565b5f015f9054906101000a900473ffffffffffffffffffffffffffffffffffffffff16905090565b6115d882611a19565b8173ffffffffffffffffffffffffffffffffffffffff167fbc7cd75a20ee27fd9adebab32041f755214dbc6bffa90cc0225b39da2e5c2d3b60405160405180910390a25f815111156116345761162e8282611ae2565b5061163d565b61163c611b62565b5b5050565b5f33905090565b5f73ffffffffffffffffffffffffffffffffffffffff168273ffffffffffffffffffffffffffffffffffffffff16146116e5576116a5827f5470aee900000000000000000000000000000000000000000000000000000000611b9e565b6116e4576040517f08c379a00000000000000000000000000000000000000000000000000000000081526004016116db90612a2a565b60405180910390fd5b5b5f805f837effffffffffffffffffffffffffffffffffffffffffffffffffffffffffffff19167effffffffffffffffffffffffffffffffffffffffffffffffffffffffffffff191681526020019081526020015f205f9054906101000a900473ffffffffffffffffffffffffffffffffffffffff169050825f80847effffffffffffffffffffffffffffffffffffffffffffffffffffffffffffff19167effffffffffffffffffffffffffffffffffffffffffffffffffffffffffffff191681526020019081526020015f205f6101000a81548173ffffffffffffffffffffffffffffffffffffffff021916908373ffffffffffffffffffffffffffffffffffffffff1602179055507fbdb658fbebcb4884950df11335d9177f3b8c7fb1b1f5290202b9715198d7e10582828560405161182193929190612a48565b60405180910390a1505050565b5f7ff0c57e16840df040f15088dc2f81fe391c3923bec73e23a9662efc9c229c6a005f1b905090565b61185f611bc2565b611895576040517fd7e6bcf800000000000000000000000000000000000000000000000000000000815260040160405180910390fd5b565b61189f611857565b5f73ffffffffffffffffffffffffffffffffffffffff168173ffffffffffffffffffffffffffffffffffffffff160361190f575f6040517f1e4fbdf70000000000000000000000000000000000000000000000000000000081526004016119069190611dd5565b60405180910390fd5b6119188161120e565b50565b5f814710156119635747826040517fcf47918100000000000000000000000000000000000000000000000000000000815260040161195a929190612a7d565b60405180910390fd5b763d602d80600a3d3981f3363d3d373d3d3d363d730000008360601b60e81c175f526e5af43d82803e903d91602b57fd5bf38360781b176020526037600983f090505f73ffffffffffffffffffffffffffffffffffffffff168173ffffffffffffffffffffffffffffffffffffffff1603611a0a576040517fb06ebf3d00000000000000000000000000000000000000000000000000000000815260040160405180910390fd5b92915050565b5f819050919050565b5f8173ffffffffffffffffffffffffffffffffffffffff163b03611a7457806040517f4c9c8ce3000000000000000000000000000000000000000000000000000000008152600401611a6b9190611dd5565b60405180910390fd5b80611aa07f360894a13ba1a3210667c828492db98dca3e2076cc3735a920a3ca505d382bbc5f1b611a10565b5f015f6101000a81548173ffffffffffffffffffffffffffffffffffffffff021916908373ffffffffffffffffffffffffffffffffffffffff16021790555050565b60605f808473ffffffffffffffffffffffffffffffffffffffff1684604051611b0b9190612ae8565b5f60405180830381855af49150503d805f8114611b43576040519150601f19603f3d011682016040523d82523d5f602084013e611b48565b606091505b5091509150611b58858383611be0565b9250505092915050565b5f341115611b9c576040517fb398979f00000000000000000000000000000000000000000000000000000000815260040160405180910390fd5b565b5f611ba883611c6d565b8015611bba5750611bb98383611cb9565b5b905092915050565b5f611bcb611492565b5f0160089054906101000a900460ff16905090565b606082611bf557611bf082611d52565b611c65565b5f8251148015611c1b57505f8473ffffffffffffffffffffffffffffffffffffffff163b145b15611c5d57836040517f9996b315000000000000000000000000000000000000000000000000000000008152600401611c549190611dd5565b60405180910390fd5b819050611c66565b5b9392505050565b5f611c98827f01ffc9a700000000000000000000000000000000000000000000000000000000611cb9565b8015611cb25750611cb08263ffffffff60e01b611cb9565b155b9050919050565b5f8082604051602401611ccc9190612b38565b6040516020818303038152906040526301ffc9a760e01b6020820180517bffffffffffffffffffffffffffffffffffffffffffffffffffffffff838183161783525050505090505f805f60205f8551602087018a617530fa92503d91505f519050828015611d3b575060208210155b8015611d4657505f81115b94505050505092915050565b5f81511115611d645780518082602001fd5b6040517fd6bda27500000000000000000000000000000000000000000000000000000000815260040160405180910390fd5b5f73ffffffffffffffffffffffffffffffffffffffff82169050919050565b5f611dbf82611d96565b9050919050565b611dcf81611db5565b82525050565b5f602082019050611de85f830184611dc6565b92915050565b5f604051905090565b5f80fd5b5f80fd5b5f819050919050565b611e1181611dff565b8114611e1b575f80fd5b50565b5f81359050611e2c81611e08565b92915050565b5f60208284031215611e4757611e46611df7565b5b5f611e5484828501611e1e565b91505092915050565b611e6681611db5565b8114611e70575f80fd5b50565b5f81359050611e8181611e5d565b92915050565b5f80fd5b5f80fd5b5f601f19601f8301169050919050565b7f4e487b71000000000000000000000000000000000000000000000000000000005f52604160045260245ffd5b611ed582611e8f565b810181811067ffffffffffffffff82111715611ef457611ef3611e9f565b5b80604052505050565b5f611f06611dee565b9050611f128282611ecc565b919050565b5f67ffffffffffffffff821115611f3157611f30611e9f565b5b611f3a82611e8f565b9050602081019050919050565b828183375f83830152505050565b5f611f67611f6284611f17565b611efd565b905082815260208101848484011115611f8357611f82611e8b565b5b611f8e848285611f47565b509392505050565b5f82601f830112611faa57611fa9611e87565b5b8135611fba848260208601611f55565b91505092915050565b5f8060408385031215611fd957611fd8611df7565b5b5f611fe685828601611e73565b925050602083013567ffffffffffffffff81111561200757612006611dfb565b5b61201385828601611f96565b9150509250929050565b5f819050919050565b61202f8161201d565b82525050565b5f6020820190506120485f830184612026565b92915050565b5f6020828403121561206357612062611df7565b5b5f61207084828501611e73565b91505092915050565b5f81519050919050565b5f82825260208201905092915050565b5f5b838110156120b0578082015181840152602081019050612095565b5f8484015250505050565b5f6120c582612079565b6120cf8185612083565b93506120df818560208601612093565b6120e881611e8f565b840191505092915050565b5f6020820190508181035f83015261210b81846120bb565b905092915050565b61211c81611dff565b82525050565b5f6020820190506121355f830184612113565b92915050565b5f805f806080858703121561215357612152611df7565b5b5f61216087828801611e73565b945050602061217187828801611e73565b935050604061218287828801611e73565b925050606061219387828801611e1e565b91505092959194509250565b5f7fff0000000000000000000000000000000000000000000000000000000000000082169050919050565b6121d38161219f565b82525050565b5f6020820190506121ec5f8301846121ca565b92915050565b5f80fd5b5f80fd5b5f8083601f84011261220f5761220e611e87565b5b8235905067ffffffffffffffff81111561222c5761222b6121f2565b5b602083019150836060820283011115612248576122476121f6565b5b9250929050565b5f805f806060858703121561226757612266611df7565b5b5f85013567ffffffffffffffff81111561228457612283611dfb565b5b612290878288016121fa565b945094505060206122a387828801611e1e565b92505060406122b487828801611e1e565b91505092959194509250565b6122c98161219f565b81146122d3575f80fd5b50565b5f813590506122e4816122c0565b92915050565b5f602082840312156122ff576122fe611df7565b5b5f61230c848285016122d6565b91505092915050565b5f8115159050919050565b61232981612315565b8114612333575f80fd5b50565b5f8151905061234481612320565b92915050565b5f6020828403121561235f5761235e611df7565b5b5f61236c84828501612336565b91505092915050565b7f53656e646572206973206e6f742077686974656c6973746564000000000000005f82015250565b5f6123a9601983612083565b91506123b482612375565b602082019050919050565b5f6020820190508181035f8301526123d68161239d565b9050919050565b7f526f79616c74794c6f616e466163746f72793a205f77686974656c69737441645f8201527f6472657373206164647265737320697320746865207a65726f2061646472657360208201527f7300000000000000000000000000000000000000000000000000000000000000604082015250565b5f61245d604183612083565b9150612468826123dd565b606082019050919050565b5f6020820190508181035f83015261248a81612451565b9050919050565b5f819050919050565b5f67ffffffffffffffff82169050919050565b5f819050919050565b5f6124d06124cb6124c684612491565b6124ad565b61249a565b9050919050565b6124e0816124b6565b82525050565b5f6020820190506124f95f8301846124d7565b92915050565b7f4e487b71000000000000000000000000000000000000000000000000000000005f52603260045260245ffd5b5f82825260208201905092915050565b50565b5f61254a5f8361252c565b91506125558261253c565b5f82019050919050565b5f60a0820190506125725f830187611dc6565b61257f6020830186611dc6565b61258c6040830185612113565b6125996060830184612113565b81810360808301526125aa8161253f565b905095945050505050565b5f82825260208201905092915050565b5f819050919050565b5f6125dc6020840184611e73565b905092915050565b6125ed81611db5565b82525050565b5f6126016020840184611e1e565b905092915050565b61261281611dff565b82525050565b606082016126285f8301836125ce565b6126345f8501826125e4565b5061264260208301836125f3565b61264f6020850182612609565b5061265d60408301836125f3565b61266a6040850182612609565b50505050565b5f61267b8383612618565b60608301905092915050565b5f82905092915050565b5f606082019050919050565b5f6126a883856125b5565b93506126b3826125c5565b805f5b858110156126eb576126c88284612687565b6126d28882612670565b97506126dd83612691565b9250506001810190506126b6565b5085925050509392505050565b5f60c0820190508181035f83015261271181898b61269d565b90506127206020830188611dc6565b61272d6040830187611dc6565b61273a6060830186612113565b6127476080830185612113565b61275460a0830184612113565b98975050505050505050565b5f60a0820190506127735f830189611dc6565b6127806020830188611dc6565b818103604083015261279381868861269d565b90506127a26060830185612113565b6127af6080830184612113565b979650505050505050565b7f526f79616c74794c6f616e466163746f72793a205f6475726174696f6e206d755f8201527f73742062652067726561746572207468616e2030000000000000000000000000602082015250565b5f612814603483612083565b915061281f826127ba565b604082019050919050565b5f6020820190508181035f83015261284181612808565b9050919050565b6128518161201d565b811461285b575f80fd5b50565b5f8151905061286c81612848565b92915050565b5f6020828403121561288757612886611df7565b5b5f6128948482850161285e565b91505092915050565b7f526f79616c74794c6f616e466163746f72793a205f74656d706c6174654164645f8201527f7265737320697320746865207a65726f20616464726573730000000000000000602082015250565b5f6128f7603883612083565b91506129028261289d565b604082019050919050565b5f6020820190508181035f830152612924816128eb565b9050919050565b5f60408201905061293e5f830185611dc6565b61294b6020830184611dc6565b9392505050565b7f526f79616c74794c6f616e466163746f72793a205f7061796d656e74546f6b655f8201527f6e4164647265737320697320746865207a65726f206164647265737300000000602082015250565b5f6129ac603c83612083565b91506129b782612952565b604082019050919050565b5f6020820190508181035f8301526129d9816129a0565b9050919050565b7f496e74657266616365206e6f7420737570706f727465640000000000000000005f82015250565b5f612a14601783612083565b9150612a1f826129e0565b602082019050919050565b5f6020820190508181035f830152612a4181612a08565b9050919050565b5f606082019050612a5b5f8301866121ca565b612a686020830185611dc6565b612a756040830184611dc6565b949350505050565b5f604082019050612a905f830185612113565b612a9d6020830184612113565b9392505050565b5f81519050919050565b5f81905092915050565b5f612ac282612aa4565b612acc8185612aae565b9350612adc818560208601612093565b80840191505092915050565b5f612af38284612ab8565b915081905092915050565b5f7fffffffff0000000000000000000000000000000000000000000000000000000082169050919050565b612b3281612afe565b82525050565b5f602082019050612b4b5f830184612b29565b9291505056fea2646970667358221220f3f9904c6fcd8a2f5a4d41584c77a1917b219dd8006184962bd454b3420dd35f64736f6c63430008180033",
  "linkReferences": {},
  "deployedLinkReferences": {}
}