{
  "_format": "hh-sol-artifact-1",
  "contractName": "RoyaltyAdvance",
  "sourceName": "contracts/Advances/RoyaltyAdvance.sol",
  "abi": [
    {
      "inputs": [],
      "stateMutability": "nonpayable",
      "type": "constructor"
    },
    {
      "inputs": [],
      "name": "AdvanceAlreadyActive",
      "type": "error"
    },
    {
      "inputs": [],
      "name": "AdvanceNotActive",
      "type": "error"
    },
    {
      "inputs": [],
      "name": "AdvanceOfferExpired",
      "type": "error"
    },
    {
      "inputs": [],
      "name": "AdvanceOfferRevoked",
      "type": "error"
    },
    {
      "inputs": [
        {
          "internalType": "uint256",
          "name": "collateralIndex",
          "type": "uint256"
        }
      ],
      "name": "CollateralNotTransferred",
      "type": "error"
    },
    {
      "inputs": [],
      "name": "FeePpmTooHigh",
      "type": "error"
    },
    {
      "inputs": [],
      "name": "InvalidInitialization",
      "type": "error"
    },
    {
      "inputs": [],
      "name": "NoCollateralsProvided",
      "type": "error"
    },
    {
      "inputs": [],
      "name": "NoPaymentTokenToProcess",
      "type": "error"
    },
    {
      "inputs": [],
      "name": "NotInitializing",
      "type": "error"
    },
    {
      "inputs": [],
      "name": "OnlyRecipientAllowed",
      "type": "error"
    },
    {
      "inputs": [],
      "name": "ReentrancyGuardReentrantCall",
      "type": "error"
    },
    {
      "inputs": [
        {
          "internalType": "address",
          "name": "token",
          "type": "address"
        }
      ],
      "name": "SafeERC20FailedOperation",
      "type": "error"
    },
    {
      "inputs": [],
      "name": "ZeroAdvanceAmount",
      "type": "error"
    },
    {
      "inputs": [
        {
          "internalType": "uint256",
          "name": "collateralIndex",
          "type": "uint256"
        }
      ],
      "name": "ZeroCollateralAmount",
      "type": "error"
    },
    {
      "inputs": [],
      "name": "ZeroCollateralReceiverAddress",
      "type": "error"
    },
    {
      "inputs": [
        {
          "internalType": "uint256",
          "name": "collateralIndex",
          "type": "uint256"
        }
      ],
      "name": "ZeroCollateralTokenAddress",
      "type": "error"
    },
    {
      "inputs": [],
      "name": "ZeroDuration",
      "type": "error"
    },
    {
      "inputs": [],
      "name": "ZeroPaymentTokenAddress",
      "type": "error"
    },
    {
      "inputs": [],
      "name": "ZeroRecipientAddress",
      "type": "error"
    },
    {
      "anonymous": false,
      "inputs": [
        {
          "indexed": false,
          "internalType": "uint256",
          "name": "repaymentAmount",
          "type": "uint256"
        }
      ],
      "name": "AdvancePartiallyRepaid",
      "type": "event"
    },
    {
      "anonymous": false,
      "inputs": [
        {
          "indexed": false,
          "internalType": "address",
          "name": "advancer",
          "type": "address"
        }
      ],
      "name": "AdvanceProvided",
      "type": "event"
    },
    {
      "anonymous": false,
      "inputs": [
        {
          "indexed": false,
          "internalType": "uint256",
          "name": "repaymentAmount",
          "type": "uint256"
        }
      ],
      "name": "AdvanceRepaid",
      "type": "event"
    },
    {
      "anonymous": false,
      "inputs": [],
      "name": "AdvanceRevoked",
      "type": "event"
    },
    {
      "anonymous": false,
      "inputs": [
        {
          "indexed": false,
          "internalType": "uint64",
          "name": "version",
          "type": "uint64"
        }
      ],
      "name": "Initialized",
      "type": "event"
    },
    {
      "inputs": [],
      "name": "advanceAmount",
      "outputs": [
        {
          "internalType": "uint256",
          "name": "",
          "type": "uint256"
        }
      ],
      "stateMutability": "view",
      "type": "function"
    },
    {
      "inputs": [],
      "name": "advanceState",
      "outputs": [
        {
          "internalType": "enum AdvanceState",
          "name": "",
          "type": "uint8"
        }
      ],
      "stateMutability": "view",
      "type": "function"
    },
    {
      "inputs": [],
      "name": "advancer",
      "outputs": [
        {
          "internalType": "address",
          "name": "",
          "type": "address"
        }
      ],
      "stateMutability": "view",
      "type": "function"
    },
    {
      "inputs": [],
      "name": "collateralReceiver",
      "outputs": [
        {
          "internalType": "address",
          "name": "",
          "type": "address"
        }
      ],
      "stateMutability": "view",
      "type": "function"
    },
    {
      "inputs": [
        {
          "internalType": "uint256",
          "name": "",
          "type": "uint256"
        }
      ],
      "name": "collaterals",
      "outputs": [
        {
          "internalType": "address",
          "name": "tokenAddress",
          "type": "address"
        },
        {
          "internalType": "uint256",
          "name": "tokenId",
          "type": "uint256"
        },
        {
          "internalType": "uint256",
          "name": "tokenAmount",
          "type": "uint256"
        }
      ],
      "stateMutability": "view",
      "type": "function"
    },
    {
      "inputs": [],
      "name": "expirationDate",
      "outputs": [
        {
          "internalType": "uint256",
          "name": "",
          "type": "uint256"
        }
      ],
      "stateMutability": "view",
      "type": "function"
    },
    {
      "inputs": [],
      "name": "feePpm",
      "outputs": [
        {
          "internalType": "uint256",
          "name": "",
          "type": "uint256"
        }
      ],
      "stateMutability": "view",
      "type": "function"
    },
    {
      "inputs": [
        {
          "components": [
            {
              "internalType": "address",
              "name": "tokenAddress",
              "type": "address"
            },
            {
              "internalType": "uint256",
              "name": "tokenId",
              "type": "uint256"
            },
            {
              "internalType": "uint256",
              "name": "tokenAmount",
              "type": "uint256"
            }
          ],
          "internalType": "struct ICollateral.Collateral[]",
          "name": "_collaterals",
          "type": "tuple[]"
        },
        {
          "internalType": "address",
          "name": "_paymentTokenAddress",
          "type": "address"
        },
        {
          "internalType": "address",
          "name": "_recipientAddress",
          "type": "address"
        },
        {
          "internalType": "address",
          "name": "_collateralReceiverAddress",
          "type": "address"
        },
        {
          "internalType": "uint256",
          "name": "_feePpm",
          "type": "uint256"
        },
        {
          "internalType": "uint256",
          "name": "_advanceAmount",
          "type": "uint256"
        },
        {
          "internalType": "uint256",
          "name": "_duration",
          "type": "uint256"
        }
      ],
      "name": "initialize",
      "outputs": [],
      "stateMutability": "nonpayable",
      "type": "function"
    },
    {
      "inputs": [
        {
          "internalType": "address",
          "name": "",
          "type": "address"
        },
        {
          "internalType": "address",
          "name": "",
          "type": "address"
        },
        {
          "internalType": "uint256[]",
          "name": "",
          "type": "uint256[]"
        },
        {
          "internalType": "uint256[]",
          "name": "",
          "type": "uint256[]"
        },
        {
          "internalType": "bytes",
          "name": "",
          "type": "bytes"
        }
      ],
      "name": "onERC1155BatchReceived",
      "outputs": [
        {
          "internalType": "bytes4",
          "name": "",
          "type": "bytes4"
        }
      ],
      "stateMutability": "nonpayable",
      "type": "function"
    },
    {
      "inputs": [
        {
          "internalType": "address",
          "name": "",
          "type": "address"
        },
        {
          "internalType": "address",
          "name": "",
          "type": "address"
        },
        {
          "internalType": "uint256",
          "name": "",
          "type": "uint256"
        },
        {
          "internalType": "uint256",
          "name": "",
          "type": "uint256"
        },
        {
          "internalType": "bytes",
          "name": "",
          "type": "bytes"
        }
      ],
      "name": "onERC1155Received",
      "outputs": [
        {
          "internalType": "bytes4",
          "name": "",
          "type": "bytes4"
        }
      ],
      "stateMutability": "nonpayable",
      "type": "function"
    },
    {
      "inputs": [],
      "name": "paymentToken",
      "outputs": [
        {
          "internalType": "contract IERC20",
          "name": "",
          "type": "address"
        }
      ],
      "stateMutability": "view",
      "type": "function"
    },
    {
      "inputs": [],
      "name": "processRepayment",
      "outputs": [],
      "stateMutability": "nonpayable",
      "type": "function"
    },
    {
      "inputs": [],
      "name": "provideAdvance",
      "outputs": [],
      "stateMutability": "nonpayable",
      "type": "function"
    },
    {
      "inputs": [],
      "name": "recipient",
      "outputs": [
        {
          "internalType": "address",
          "name": "",
          "type": "address"
        }
      ],
      "stateMutability": "view",
      "type": "function"
    },
    {
      "inputs": [],
      "name": "reclaimExcessPaymentToken",
      "outputs": [],
      "stateMutability": "nonpayable",
      "type": "function"
    },
    {
      "inputs": [],
      "name": "revokeAdvance",
      "outputs": [],
      "stateMutability": "nonpayable",
      "type": "function"
    },
    {
      "inputs": [
        {
          "internalType": "bytes4",
          "name": "interfaceId",
          "type": "bytes4"
        }
      ],
      "name": "supportsInterface",
      "outputs": [
        {
          "internalType": "bool",
          "name": "",
          "type": "bool"
        }
      ],
      "stateMutability": "view",
      "type": "function"
    },
    {
      "inputs": [],
      "name": "totalDue",
      "outputs": [
        {
          "internalType": "uint256",
          "name": "",
          "type": "uint256"
        }
      ],
      "stateMutability": "view",
      "type": "function"
    }
  ],
  "bytecode": "0x6080604052348015600f57600080fd5b506001600055601b601f565b60cf565b7ff0c57e16840df040f15088dc2f81fe391c3923bec73e23a9662efc9c229c6a00805468010000000000000000900460ff1615606e5760405163f92ee8a960e01b815260040160405180910390fd5b80546001600160401b039081161460cc5780546001600160401b0319166001600160401b0390811782556040519081527fc7f505b2f371ae2175ee4913f4499e1f2633a7b5936321eed1cdaeb6115181d29060200160405180910390a15b50565b611a57806100de6000396000f3fe608060405234801561001057600080fd5b50600436106101365760003560e01c806384ecdaf6116100b2578063bc197c8111610081578063c6f0376d11610066578063c6f0376d146102c3578063f23a6e61146102d6578063fb5e65501461030e57600080fd5b8063bc197c8114610252578063c4fe0dc8146102bb57600080fd5b806384ecdaf61461021d5780638f6204871461023757806393e88f3a14610240578063a534150c1461024957600080fd5b80631bd2d4bd116101095780632a4f5336116100ee5780632a4f5336146101d75780633013ce29146101df57806366d003ac1461020a57600080fd5b80631bd2d4bd1461019757806324c1173b1461019f57600080fd5b806301ffc9a71461013b57806308ee4ef4146101635780630c2487b61461016d57806311f8a4ff14610184575b600080fd5b61014e61014936600461153d565b610321565b60405190151581526020015b60405180910390f35b61016b6103ba565b005b61017660075481565b60405190815260200161015a565b61016b6101923660046115ab565b610509565b61016b610a6f565b6101b26101ad36600461166d565b610bd3565b604080516001600160a01b03909416845260208401929092529082015260600161015a565b61016b610c10565b6002546101f2906001600160a01b031681565b6040516001600160a01b03909116815260200161015a565b6003546101f2906001600160a01b031681565b60095461022a9060ff1681565b60405161015a919061169c565b61017660085481565b610176600a5481565b61017660065481565b61028a6102603660046117fe565b7fbc197c810000000000000000000000000000000000000000000000000000000095945050505050565b6040517fffffffff00000000000000000000000000000000000000000000000000000000909116815260200161015a565b61016b610eee565b6005546101f2906001600160a01b031681565b61028a6102e43660046118b8565b7ff23a6e610000000000000000000000000000000000000000000000000000000095945050505050565b6004546101f2906001600160a01b031681565b60007fffffffff0000000000000000000000000000000000000000000000000000000082167f4e2312e00000000000000000000000000000000000000000000000000000000014806103b457507f01ffc9a7000000000000000000000000000000000000000000000000000000007fffffffff000000000000000000000000000000000000000000000000000000008316145b92915050565b6103c2611298565b60095460ff1660038160048111156103dc576103dc611686565b036103fa57604051638119e68b60e01b815260040160405180910390fd5b6002546040516370a0823160e01b81523060048201526000916001600160a01b0316906370a0823190602401602060405180830381865afa158015610443573d6000803e3d6000fd5b505050506040513d601f19601f820116820180604052508101906104679190611915565b9050806000036104a3576040517f5bef14e100000000000000000000000000000000000000000000000000000000815260040160405180910390fd5b60048260048111156104b7576104b7611686565b036104de576005546002546104d9916001600160a01b039182169116836112db565b6104fb565b6003546002546104fb916001600160a01b039182169116836112db565b50506105076001600055565b565b6000610513611354565b805490915060ff68010000000000000000820416159067ffffffffffffffff166000811580156105405750825b905060008267ffffffffffffffff16600114801561055d5750303b155b90508115801561056b575080155b156105a2576040517ff92ee8a900000000000000000000000000000000000000000000000000000000815260040160405180910390fd5b84547fffffffffffffffffffffffffffffffffffffffffffffffff000000000000000016600117855583156105ed57845468ff00000000000000001916680100000000000000001785555b8b6000819003610629576040517fa7a49a3800000000000000000000000000000000000000000000000000000000815260040160405180910390fd5b60005b8181101561080c57368f8f838181106106475761064761192e565b606002919091019150600090506106616020830183611944565b6001600160a01b0316036106a9576040517f7bbec226000000000000000000000000000000000000000000000000000000008152600481018390526024015b60405180910390fd5b80604001356000036106ea576040517fed470765000000000000000000000000000000000000000000000000000000008152600481018390526024016106a0565b60408101356106fc6020830183611944565b6040517efdd58e000000000000000000000000000000000000000000000000000000008152306004820152602084013560248201526001600160a01b03919091169062fdd58e90604401602060405180830381865afa158015610763573d6000803e3d6000fd5b505050506040513d601f19601f820116820180604052508101906107879190611915565b146107c1576040517fedfe43f8000000000000000000000000000000000000000000000000000000008152600481018390526024016106a0565b60018054808201825560009190915281906003027fb10e2d527612073b26eecdfd717e6a320cf44b4afac2b0732d9fcbe2b7fa0cf6016108018282611961565b50505060010161062c565b506001600160a01b038b1661084d576040517fceef985700000000000000000000000000000000000000000000000000000000815260040160405180910390fd5b6001600160a01b038a1661088d576040517f2be3419400000000000000000000000000000000000000000000000000000000815260040160405180910390fd5b876000036108c7576040517f89a7607700000000000000000000000000000000000000000000000000000000815260040160405180910390fd5b620f4240891115610904576040517fa729c8aa00000000000000000000000000000000000000000000000000000000815260040160405180910390fd5b6001600160a01b038c16610944576040517f5ebf731600000000000000000000000000000000000000000000000000000000815260040160405180910390fd5b8660000361097e576040517f68d5686e00000000000000000000000000000000000000000000000000000000815260040160405180910390fd5b600280546001600160a01b03808f1673ffffffffffffffffffffffffffffffffffffffff1992831617909255600380548e841690831617905560058054928d169290911691909117905560068990556007889055620f42406109e08a8a6119c2565b6109ea91906119d9565b6007546109f791906119fb565b600a55610a0487426119fb565b600855506009805460ff191660011790558315610a6057845468ff000000000000000019168555604051600181527fc7f505b2f371ae2175ee4913f4499e1f2633a7b5936321eed1cdaeb6115181d29060200160405180910390a15b50505050505050505050505050565b610a77611298565b60095460ff166003816004811115610a9157610a91611686565b03610aaf57604051638119e68b60e01b815260040160405180910390fd5b600854421115610aeb576040517f018adace00000000000000000000000000000000000000000000000000000000815260040160405180910390fd5b6002816004811115610aff57610aff611686565b03610b36576040517f384d39da00000000000000000000000000000000000000000000000000000000815260040160405180910390fd5b6004805473ffffffffffffffffffffffffffffffffffffffff191633908117909155600354600754600254610b7b936001600160a01b0391821693909291169061137d565b6009805460ff191660031790556004546040516001600160a01b0390911681527f2ee820c9b9c068ead26f57cebb0a94b217e21913c0255b8ee19d4fde369509cc9060200160405180910390a1506105076001600055565b60018181548110610be357600080fd5b60009182526020909120600390910201805460018201546002909201546001600160a01b03909116925083565b610c18611298565b60095460ff166003816004811115610c3257610c32611686565b03610c5057604051638119e68b60e01b815260040160405180910390fd5b6002816004811115610c6457610c64611686565b03610c9b576040517f384d39da00000000000000000000000000000000000000000000000000000000815260040160405180910390fd5b6003546001600160a01b03163314610cdf576040517f77e9e00f00000000000000000000000000000000000000000000000000000000815260040160405180910390fd5b60015460005b81811015610e185760018181548110610d0057610d0061192e565b60009182526020909120600391820201549054600180546001600160a01b039384169363f242432a93309391169186908110610d3e57610d3e61192e565b90600052602060002090600302016001015460018681548110610d6357610d6361192e565b600091825260208220600260039092020101546040517fffffffff0000000000000000000000000000000000000000000000000000000060e088901b1681526001600160a01b0395861660048201529490931660248501526044840191909152606483019190915260a0608483015260a482015260c401600060405180830381600087803b158015610df457600080fd5b505af1158015610e08573d6000803e3d6000fd5b505060019092019150610ce59050565b506002546040516370a0823160e01b81523060048201526000916001600160a01b0316906370a0823190602401602060405180830381865afa158015610e62573d6000803e3d6000fd5b505050506040513d601f19601f82011682018060405250810190610e869190611915565b90508015610eab57600354600254610eab916001600160a01b039182169116836112db565b6009805460ff191660021790556040517f022a7fffc5c2ea7303806c7edf15010c031dda497a976a308823f5f8b73e039890600090a15050506105076001600055565b610ef6611298565b600360095460ff166004811115610f0f57610f0f611686565b14610f46576040517f95ce9d4d00000000000000000000000000000000000000000000000000000000815260040160405180910390fd5b60015460005b81811015610f9157610f8960018281548110610f6a57610f6a61192e565b60009182526020909120600390910201546001600160a01b03166113bc565b600101610f4c565b506002546040516370a0823160e01b81523060048201526000916001600160a01b0316906370a0823190602401602060405180830381865afa158015610fdb573d6000803e3d6000fd5b505050506040513d601f19601f82011682018060405250810190610fff9190611915565b90508060000361103b576040517f5bef14e100000000000000000000000000000000000000000000000000000000815260040160405180910390fd5b600a54811061122b5760005b8281101561117b57600181815481106110625761106261192e565b6000918252602090912060039091020154600554600180546001600160a01b039384169363f242432a933093911691869081106110a1576110a161192e565b906000526020600020906003020160010154600186815481106110c6576110c661192e565b600091825260208220600260039092020101546040517fffffffff0000000000000000000000000000000000000000000000000000000060e088901b1681526001600160a01b0395861660048201529490931660248501526044840191909152606483019190915260a0608483015260a482015260c401600060405180830381600087803b15801561115757600080fd5b505af115801561116b573d6000803e3d6000fd5b5050600190920191506110479050565b50600454600a5460025461119d926001600160a01b03918216929116906112db565b600a548111156111d9576000600a54826111b79190611a0e565b6005546002549192506111d7916001600160a01b039081169116836112db565b505b7f4abd1d41665011a67b00233c43316194df6a6c723ee349dc887f0aa02a813a3c600a5460405161120c91815260200190565b60405180910390a16000600a556009805460ff191660041790556104fb565b80600a546112399190611a0e565b600a55600454600254611259916001600160a01b039182169116836112db565b6040518181527face8668275d75b494f11d300bff9e4447248a85b795b2c556c32d502b0cf17f49060200160405180910390a150506105076001600055565b6002600054036112d4576040517f3ee5aeb500000000000000000000000000000000000000000000000000000000815260040160405180910390fd5b6002600055565b6040516001600160a01b0383811660248301526044820183905261134f91859182169063a9059cbb906064015b604051602081830303815290604052915060e01b6020820180517bffffffffffffffffffffffffffffffffffffffffffffffffffffffff83818316178352505050506114b3565b505050565b6000807ff0c57e16840df040f15088dc2f81fe391c3923bec73e23a9662efc9c229c6a006103b4565b6040516001600160a01b0384811660248301528381166044830152606482018390526113b69186918216906323b872dd90608401611308565b50505050565b6002546040516370a0823160e01b81526001600160a01b03838116600483015260009216906370a0823190602401602060405180830381865afa158015611407573d6000803e3d6000fd5b505050506040513d601f19601f8201168201806040525081019061142b9190611915565b11156114b0576002546040517f5f8ba9610000000000000000000000000000000000000000000000000000000081523060048201526001600160a01b03918216602482015290821690635f8ba96190604401600060405180830381600087803b15801561149757600080fd5b505af11580156114ab573d6000803e3d6000fd5b505050505b50565b600080602060008451602086016000885af1806114d6576040513d6000823e3d81fd5b50506000513d915081156114ee5780600114156114fb565b6001600160a01b0384163b155b156113b6576040517f5274afe70000000000000000000000000000000000000000000000000000000081526001600160a01b03851660048201526024016106a0565b60006020828403121561154f57600080fd5b81357fffffffff000000000000000000000000000000000000000000000000000000008116811461157f57600080fd5b9392505050565b6001600160a01b03811681146114b057600080fd5b80356115a681611586565b919050565b60008060008060008060008060e0898b0312156115c757600080fd5b883567ffffffffffffffff8111156115de57600080fd5b8901601f81018b136115ef57600080fd5b803567ffffffffffffffff81111561160657600080fd5b8b602060608302840101111561161b57600080fd5b60209182019950975061162f908a0161159b565b955061163d60408a0161159b565b945061164b60608a0161159b565b979a96995094979396956080850135955060a08501359460c001359350915050565b60006020828403121561167f57600080fd5b5035919050565b634e487b7160e01b600052602160045260246000fd5b60208101600583106116be57634e487b7160e01b600052602160045260246000fd5b91905290565b634e487b7160e01b600052604160045260246000fd5b604051601f8201601f1916810167ffffffffffffffff81118282101715611703576117036116c4565b604052919050565b600082601f83011261171c57600080fd5b813567ffffffffffffffff811115611736576117366116c4565b8060051b611746602082016116da565b9182526020818501810192908101908684111561176257600080fd5b6020860192505b83831015611784578235825260209283019290910190611769565b9695505050505050565b600082601f83011261179f57600080fd5b813567ffffffffffffffff8111156117b9576117b96116c4565b6117cc6020601f19601f840116016116da565b8181528460208386010111156117e157600080fd5b816020850160208301376000918101602001919091529392505050565b600080600080600060a0868803121561181657600080fd5b853561182181611586565b9450602086013561183181611586565b9350604086013567ffffffffffffffff81111561184d57600080fd5b6118598882890161170b565b935050606086013567ffffffffffffffff81111561187657600080fd5b6118828882890161170b565b925050608086013567ffffffffffffffff81111561189f57600080fd5b6118ab8882890161178e565b9150509295509295909350565b600080600080600060a086880312156118d057600080fd5b85356118db81611586565b945060208601356118eb81611586565b93506040860135925060608601359150608086013567ffffffffffffffff81111561189f57600080fd5b60006020828403121561192757600080fd5b5051919050565b634e487b7160e01b600052603260045260246000fd5b60006020828403121561195657600080fd5b813561157f81611586565b813561196c81611586565b815473ffffffffffffffffffffffffffffffffffffffff19166001600160a01b039190911617815560208201356001820155604090910135600290910155565b634e487b7160e01b600052601160045260246000fd5b80820281158282048414176103b4576103b46119ac565b6000826119f657634e487b7160e01b600052601260045260246000fd5b500490565b808201808211156103b4576103b46119ac565b818103818111156103b4576103b46119ac56fea2646970667358221220ba9805f3c189c8d4b1950a564b608d6b022a122b2b0e2fb1c49da4c1633e670e64736f6c63430008200033",
  "linkReferences": {},
  "deployedLinkReferences": {}
}